{"contracts/Raffel.sol":{"Raffel":{"abi":[{"inputs":[{"internalType":"uint256","name":"entryFee","type":"uint256"},{"internalType":"address","name":"vrfCoordinator","type":"address"},{"internalType":"bytes32","name":"gasLane","type":"bytes32"},{"internalType":"uint64","name":"subscriptionId","type":"uint64"},{"internalType":"uint32","name":"callbackGasLimit","type":"uint32"}],"stateMutability":"nonpayable","type":"constructor"},{"inputs":[{"internalType":"address","name":"have","type":"address"},{"internalType":"address","name":"want","type":"address"}],"name":"OnlyCoordinatorCanFulfill","type":"error"},{"inputs":[],"name":"Raffel_NotEnoughEthSent","type":"error"},{"inputs":[],"name":"Raffel_TransferFailed","type":"error"},{"anonymous":false,"inputs":[{"indexed":true,"internalType":"address","name":"player","type":"address"}],"name":"RaffelEntered","type":"event"},{"anonymous":false,"inputs":[{"indexed":true,"internalType":"address","name":"winner","type":"address"}],"name":"RaffelWinnerPicked","type":"event"},{"anonymous":false,"inputs":[{"indexed":true,"internalType":"uint256","name":"requestId","type":"uint256"}],"name":"RequestedRaffelWinner","type":"event"},{"inputs":[],"name":"RequestRandomWinner","outputs":[],"stateMutability":"nonpayable","type":"function"},{"inputs":[],"name":"enterRaffel","outputs":[],"stateMutability":"payable","type":"function"},{"inputs":[],"name":"gertRecentWinner","outputs":[{"internalType":"address","name":"","type":"address"}],"stateMutability":"view","type":"function"},{"inputs":[],"name":"getEntryFee","outputs":[{"internalType":"uint256","name":"","type":"uint256"}],"stateMutability":"view","type":"function"},{"inputs":[{"internalType":"uint256","name":"index","type":"uint256"}],"name":"getPlayer","outputs":[{"internalType":"address payable","name":"","type":"address"}],"stateMutability":"view","type":"function"},{"inputs":[{"internalType":"uint256","name":"requestId","type":"uint256"},{"internalType":"uint256[]","name":"randomWords","type":"uint256[]"}],"name":"rawFulfillRandomWords","outputs":[],"stateMutability":"nonpayable","type":"function"}],"devdoc":{"kind":"dev","methods":{},"version":1},"evm":{"bytecode":{"linkReferences":{},"object":"610140604052620186a063ffffffff166101209063ffffffff1681525034801561002857600080fd5b50604051610f7a380380610f7a833981810160405281019061004a919061024b565b838073ffffffffffffffffffffffffffffffffffffffff1660808173ffffffffffffffffffffffffffffffffffffffff1681525050508460a081815250508373ffffffffffffffffffffffffffffffffffffffff1660c08173ffffffffffffffffffffffffffffffffffffffff16815250508260e081815250508167ffffffffffffffff166101008167ffffffffffffffff16815250508063ffffffff166101208163ffffffff168152505050505050506102c6565b600080fd5b6000819050919050565b61011881610105565b811461012357600080fd5b50565b6000815190506101358161010f565b92915050565b600073ffffffffffffffffffffffffffffffffffffffff82169050919050565b60006101668261013b565b9050919050565b6101768161015b565b811461018157600080fd5b50565b6000815190506101938161016d565b92915050565b6000819050919050565b6101ac81610199565b81146101b757600080fd5b50565b6000815190506101c9816101a3565b92915050565b600067ffffffffffffffff82169050919050565b6101ec816101cf565b81146101f757600080fd5b50565b600081519050610209816101e3565b92915050565b600063ffffffff82169050919050565b6102288161020f565b811461023357600080fd5b50565b6000815190506102458161021f565b92915050565b600080600080600060a0868803121561026757610266610100565b5b600061027588828901610126565b955050602061028688828901610184565b9450506040610297888289016101ba565b93505060606102a8888289016101fa565b92505060806102b988828901610236565b9150509295509295909350565b60805160a05160c05160e0516101005161012051610c5761032360003960006103a701526000610384015260006103630152600061032701526000818161016301526104a801526000818161026501526102b90152610c576000f3fe6080604052600436106100555760003560e01c80630b6831e51461005a5780630ff19fd7146100855780631fe543e31461008f5780635e8de0db146100b8578063e55ae4e8146100cf578063e586a4f01461010c575b600080fd5b34801561006657600080fd5b5061006f610137565b60405161007c91906106ec565b60405180910390f35b61008d610161565b005b34801561009b57600080fd5b506100b660048036038101906100b191906108aa565b610263565b005b3480156100c457600080fd5b506100cd610323565b005b3480156100db57600080fd5b506100f660048036038101906100f19190610906565b61045d565b6040516101039190610954565b60405180910390f35b34801561011857600080fd5b506101216104a4565b60405161012e919061097e565b60405180910390f35b6000600160009054906101000a900473ffffffffffffffffffffffffffffffffffffffff16905090565b7f00000000000000000000000000000000000000000000000000000000000000003410156101bb576040517f04de2f8600000000000000000000000000000000000000000000000000000000815260040160405180910390fd5b6000339080600181540180825580915050600190039060005260206000200160009091909190916101000a81548173ffffffffffffffffffffffffffffffffffffffff021916908373ffffffffffffffffffffffffffffffffffffffff1602179055503373ffffffffffffffffffffffffffffffffffffffff167f8ed6a7aff9a00785197dec230a172a32e2fdea5473a74f7d0477be4505554ef860405160405180910390a2565b7f000000000000000000000000000000000000000000000000000000000000000073ffffffffffffffffffffffffffffffffffffffff163373ffffffffffffffffffffffffffffffffffffffff161461031557337f00000000000000000000000000000000000000000000000000000000000000006040517f1cf993f400000000000000000000000000000000000000000000000000000000815260040161030c929190610999565b60405180910390fd5b61031f82826104cc565b5050565b60007f000000000000000000000000000000000000000000000000000000000000000073ffffffffffffffffffffffffffffffffffffffff16635d3b1d307f00000000000000000000000000000000000000000000000000000000000000007f000000000000000000000000000000000000000000000000000000000000000060037f000000000000000000000000000000000000000000000000000000000000000060016040518663ffffffff1660e01b81526004016103e8959493929190610a3a565b6020604051808303816000875af1158015610407573d6000803e3d6000fd5b505050506040513d601f19601f8201168201806040525081019061042b9190610aa2565b9050807f9cd72631871dff14bbc84976a39c2bca5d943f61f72884a8f331a889778f2c3160405160405180910390a250565b600080828154811061047257610471610acf565b5b9060005260206000200160009054906101000a900473ffffffffffffffffffffffffffffffffffffffff169050919050565b60007f0000000000000000000000000000000000000000000000000000000000000000905090565b60008080549050826000815181106104e7576104e6610acf565b5b60200260200101516104f99190610b2d565b905060008082815481106105105761050f610acf565b5b9060005260206000200160009054906101000a900473ffffffffffffffffffffffffffffffffffffffff16905080600160006101000a81548173ffffffffffffffffffffffffffffffffffffffff021916908373ffffffffffffffffffffffffffffffffffffffff16021790555060008173ffffffffffffffffffffffffffffffffffffffff16476040516105a490610b8f565b60006040518083038185875af1925050503d80600081146105e1576040519150601f19603f3d011682016040523d82523d6000602084013e6105e6565b606091505b505090508061062a576040517f08c379a000000000000000000000000000000000000000000000000000000000815260040161062190610c01565b60405180910390fd5b80610661576040517f6b56c6a300000000000000000000000000000000000000000000000000000000815260040160405180910390fd5b8173ffffffffffffffffffffffffffffffffffffffff167f7d5e0acef27db2fe13c94bbdb66d614a8840fb82c920a1b9aadb5d6acf3e769260405160405180910390a25050505050565b600073ffffffffffffffffffffffffffffffffffffffff82169050919050565b60006106d6826106ab565b9050919050565b6106e6816106cb565b82525050565b600060208201905061070160008301846106dd565b92915050565b6000604051905090565b600080fd5b600080fd5b6000819050919050565b61072e8161071b565b811461073957600080fd5b50565b60008135905061074b81610725565b92915050565b600080fd5b6000601f19601f8301169050919050565b7f4e487b7100000000000000000000000000000000000000000000000000000000600052604160045260246000fd5b61079f82610756565b810181811067ffffffffffffffff821117156107be576107bd610767565b5b80604052505050565b60006107d1610707565b90506107dd8282610796565b919050565b600067ffffffffffffffff8211156107fd576107fc610767565b5b602082029050602081019050919050565b600080fd5b6000610826610821846107e2565b6107c7565b905080838252602082019050602084028301858111156108495761084861080e565b5b835b81811015610872578061085e888261073c565b84526020840193505060208101905061084b565b5050509392505050565b600082601f83011261089157610890610751565b5b81356108a1848260208601610813565b91505092915050565b600080604083850312156108c1576108c0610711565b5b60006108cf8582860161073c565b925050602083013567ffffffffffffffff8111156108f0576108ef610716565b5b6108fc8582860161087c565b9150509250929050565b60006020828403121561091c5761091b610711565b5b600061092a8482850161073c565b91505092915050565b600061093e826106ab565b9050919050565b61094e81610933565b82525050565b60006020820190506109696000830184610945565b92915050565b6109788161071b565b82525050565b6000602082019050610993600083018461096f565b92915050565b60006040820190506109ae60008301856106dd565b6109bb60208301846106dd565b9392505050565b6000819050919050565b6109d5816109c2565b82525050565b600067ffffffffffffffff82169050919050565b6109f8816109db565b82525050565b600061ffff82169050919050565b610a15816109fe565b82525050565b600063ffffffff82169050919050565b610a3481610a1b565b82525050565b600060a082019050610a4f60008301886109cc565b610a5c60208301876109ef565b610a696040830186610a0c565b610a766060830185610a2b565b610a836080830184610a2b565b9695505050505050565b600081519050610a9c81610725565b92915050565b600060208284031215610ab857610ab7610711565b5b6000610ac684828501610a8d565b91505092915050565b7f4e487b7100000000000000000000000000000000000000000000000000000000600052603260045260246000fd5b7f4e487b7100000000000000000000000000000000000000000000000000000000600052601260045260246000fd5b6000610b388261071b565b9150610b438361071b565b925082610b5357610b52610afe565b5b828206905092915050565b600081905092915050565b50565b6000610b79600083610b5e565b9150610b8482610b69565b600082019050919050565b6000610b9a82610b6c565b9150819050919050565b600082825260208201905092915050565b7f5472616e73666572206661696c65640000000000000000000000000000000000600082015250565b6000610beb600f83610ba4565b9150610bf682610bb5565b602082019050919050565b60006020820190508181036000830152610c1a81610bde565b905091905056fea264697066735822122076043c6fc349b845cc59abf0f5093b8d82e18e876aba76c32b9d6e8229c41fb764736f6c634300081c0033","opcodes":"PUSH2 0x140 PUSH1 0x40 MSTORE PUSH3 0x186A0 PUSH4 0xFFFFFFFF AND PUSH2 0x120 SWAP1 PUSH4 0xFFFFFFFF AND DUP2 MSTORE POP CALLVALUE DUP1 ISZERO PUSH2 0x28 JUMPI PUSH1 0x0 DUP1 REVERT JUMPDEST POP PUSH1 0x40 MLOAD PUSH2 0xF7A CODESIZE SUB DUP1 PUSH2 0xF7A DUP4 CODECOPY DUP2 DUP2 ADD PUSH1 0x40 MSTORE DUP2 ADD SWAP1 PUSH2 0x4A SWAP2 SWAP1 PUSH2 0x24B JUMP JUMPDEST DUP4 DUP1 PUSH20 0xFFFFFFFFFFFFFFFFFFFFFFFFFFFFFFFFFFFFFFFF AND PUSH1 0x80 DUP2 PUSH20 0xFFFFFFFFFFFFFFFFFFFFFFFFFFFFFFFFFFFFFFFF AND DUP2 MSTORE POP POP POP DUP5 PUSH1 0xA0 DUP2 DUP2 MSTORE POP POP DUP4 PUSH20 0xFFFFFFFFFFFFFFFFFFFFFFFFFFFFFFFFFFFFFFFF AND PUSH1 0xC0 DUP2 PUSH20 0xFFFFFFFFFFFFFFFFFFFFFFFFFFFFFFFFFFFFFFFF AND DUP2 MSTORE POP POP DUP3 PUSH1 0xE0 DUP2 DUP2 MSTORE POP POP DUP2 PUSH8 0xFFFFFFFFFFFFFFFF AND PUSH2 0x100 DUP2 PUSH8 0xFFFFFFFFFFFFFFFF AND DUP2 MSTORE POP POP DUP1 PUSH4 0xFFFFFFFF AND PUSH2 0x120 DUP2 PUSH4 0xFFFFFFFF AND DUP2 MSTORE POP POP POP POP POP POP POP PUSH2 0x2C6 JUMP JUMPDEST PUSH1 0x0 DUP1 REVERT JUMPDEST PUSH1 0x0 DUP2 SWAP1 POP SWAP2 SWAP1 POP JUMP JUMPDEST PUSH2 0x118 DUP2 PUSH2 0x105 JUMP JUMPDEST DUP2 EQ PUSH2 0x123 JUMPI PUSH1 0x0 DUP1 REVERT JUMPDEST POP JUMP JUMPDEST PUSH1 0x0 DUP2 MLOAD SWAP1 POP PUSH2 0x135 DUP2 PUSH2 0x10F JUMP JUMPDEST SWAP3 SWAP2 POP POP JUMP JUMPDEST PUSH1 0x0 PUSH20 0xFFFFFFFFFFFFFFFFFFFFFFFFFFFFFFFFFFFFFFFF DUP3 AND SWAP1 POP SWAP2 SWAP1 POP JUMP JUMPDEST PUSH1 0x0 PUSH2 0x166 DUP3 PUSH2 0x13B JUMP JUMPDEST SWAP1 POP SWAP2 SWAP1 POP JUMP JUMPDEST PUSH2 0x176 DUP2 PUSH2 0x15B JUMP JUMPDEST DUP2 EQ PUSH2 0x181 JUMPI PUSH1 0x0 DUP1 REVERT JUMPDEST POP JUMP JUMPDEST PUSH1 0x0 DUP2 MLOAD SWAP1 POP PUSH2 0x193 DUP2 PUSH2 0x16D JUMP JUMPDEST SWAP3 SWAP2 POP POP JUMP JUMPDEST PUSH1 0x0 DUP2 SWAP1 POP SWAP2 SWAP1 POP JUMP JUMPDEST PUSH2 0x1AC DUP2 PUSH2 0x199 JUMP JUMPDEST DUP2 EQ PUSH2 0x1B7 JUMPI PUSH1 0x0 DUP1 REVERT JUMPDEST POP JUMP JUMPDEST PUSH1 0x0 DUP2 MLOAD SWAP1 POP PUSH2 0x1C9 DUP2 PUSH2 0x1A3 JUMP JUMPDEST SWAP3 SWAP2 POP POP JUMP JUMPDEST PUSH1 0x0 PUSH8 0xFFFFFFFFFFFFFFFF DUP3 AND SWAP1 POP SWAP2 SWAP1 POP JUMP JUMPDEST PUSH2 0x1EC DUP2 PUSH2 0x1CF JUMP JUMPDEST DUP2 EQ PUSH2 0x1F7 JUMPI PUSH1 0x0 DUP1 REVERT JUMPDEST POP JUMP JUMPDEST PUSH1 0x0 DUP2 MLOAD SWAP1 POP PUSH2 0x209 DUP2 PUSH2 0x1E3 JUMP JUMPDEST SWAP3 SWAP2 POP POP JUMP JUMPDEST PUSH1 0x0 PUSH4 0xFFFFFFFF DUP3 AND SWAP1 POP SWAP2 SWAP1 POP JUMP JUMPDEST PUSH2 0x228 DUP2 PUSH2 0x20F JUMP JUMPDEST DUP2 EQ PUSH2 0x233 JUMPI PUSH1 0x0 DUP1 REVERT JUMPDEST POP JUMP JUMPDEST PUSH1 0x0 DUP2 MLOAD SWAP1 POP PUSH2 0x245 DUP2 PUSH2 0x21F JUMP JUMPDEST SWAP3 SWAP2 POP POP JUMP JUMPDEST PUSH1 0x0 DUP1 PUSH1 0x0 DUP1 PUSH1 0x0 PUSH1 0xA0 DUP7 DUP9 SUB SLT ISZERO PUSH2 0x267 JUMPI PUSH2 0x266 PUSH2 0x100 JUMP JUMPDEST JUMPDEST PUSH1 0x0 PUSH2 0x275 DUP9 DUP3 DUP10 ADD PUSH2 0x126 JUMP JUMPDEST SWAP6 POP POP PUSH1 0x20 PUSH2 0x286 DUP9 DUP3 DUP10 ADD PUSH2 0x184 JUMP JUMPDEST SWAP5 POP POP PUSH1 0x40 PUSH2 0x297 DUP9 DUP3 DUP10 ADD PUSH2 0x1BA JUMP JUMPDEST SWAP4 POP POP PUSH1 0x60 PUSH2 0x2A8 DUP9 DUP3 DUP10 ADD PUSH2 0x1FA JUMP JUMPDEST SWAP3 POP POP PUSH1 0x80 PUSH2 0x2B9 DUP9 DUP3 DUP10 ADD PUSH2 0x236 JUMP JUMPDEST SWAP2 POP POP SWAP3 SWAP6 POP SWAP3 SWAP6 SWAP1 SWAP4 POP JUMP JUMPDEST PUSH1 0x80 MLOAD PUSH1 0xA0 MLOAD PUSH1 0xC0 MLOAD PUSH1 0xE0 MLOAD PUSH2 0x100 MLOAD PUSH2 0x120 MLOAD PUSH2 0xC57 PUSH2 0x323 PUSH1 0x0 CODECOPY PUSH1 0x0 PUSH2 0x3A7 ADD MSTORE PUSH1 0x0 PUSH2 0x384 ADD MSTORE PUSH1 0x0 PUSH2 0x363 ADD MSTORE PUSH1 0x0 PUSH2 0x327 ADD MSTORE PUSH1 0x0 DUP2 DUP2 PUSH2 0x163 ADD MSTORE PUSH2 0x4A8 ADD MSTORE PUSH1 0x0 DUP2 DUP2 PUSH2 0x265 ADD MSTORE PUSH2 0x2B9 ADD MSTORE PUSH2 0xC57 PUSH1 0x0 RETURN INVALID PUSH1 0x80 PUSH1 0x40 MSTORE PUSH1 0x4 CALLDATASIZE LT PUSH2 0x55 JUMPI PUSH1 0x0 CALLDATALOAD PUSH1 0xE0 SHR DUP1 PUSH4 0xB6831E5 EQ PUSH2 0x5A JUMPI DUP1 PUSH4 0xFF19FD7 EQ PUSH2 0x85 JUMPI DUP1 PUSH4 0x1FE543E3 EQ PUSH2 0x8F JUMPI DUP1 PUSH4 0x5E8DE0DB EQ PUSH2 0xB8 JUMPI DUP1 PUSH4 0xE55AE4E8 EQ PUSH2 0xCF JUMPI DUP1 PUSH4 0xE586A4F0 EQ PUSH2 0x10C JUMPI JUMPDEST PUSH1 0x0 DUP1 REVERT JUMPDEST CALLVALUE DUP1 ISZERO PUSH2 0x66 JUMPI PUSH1 0x0 DUP1 REVERT JUMPDEST POP PUSH2 0x6F PUSH2 0x137 JUMP JUMPDEST PUSH1 0x40 MLOAD PUSH2 0x7C SWAP2 SWAP1 PUSH2 0x6EC JUMP JUMPDEST PUSH1 0x40 MLOAD DUP1 SWAP2 SUB SWAP1 RETURN JUMPDEST PUSH2 0x8D PUSH2 0x161 JUMP JUMPDEST STOP JUMPDEST CALLVALUE DUP1 ISZERO PUSH2 0x9B JUMPI PUSH1 0x0 DUP1 REVERT JUMPDEST POP PUSH2 0xB6 PUSH1 0x4 DUP1 CALLDATASIZE SUB DUP2 ADD SWAP1 PUSH2 0xB1 SWAP2 SWAP1 PUSH2 0x8AA JUMP JUMPDEST PUSH2 0x263 JUMP JUMPDEST STOP JUMPDEST CALLVALUE DUP1 ISZERO PUSH2 0xC4 JUMPI PUSH1 0x0 DUP1 REVERT JUMPDEST POP PUSH2 0xCD PUSH2 0x323 JUMP JUMPDEST STOP JUMPDEST CALLVALUE DUP1 ISZERO PUSH2 0xDB JUMPI PUSH1 0x0 DUP1 REVERT JUMPDEST POP PUSH2 0xF6 PUSH1 0x4 DUP1 CALLDATASIZE SUB DUP2 ADD SWAP1 PUSH2 0xF1 SWAP2 SWAP1 PUSH2 0x906 JUMP JUMPDEST PUSH2 0x45D JUMP JUMPDEST PUSH1 0x40 MLOAD PUSH2 0x103 SWAP2 SWAP1 PUSH2 0x954 JUMP JUMPDEST PUSH1 0x40 MLOAD DUP1 SWAP2 SUB SWAP1 RETURN JUMPDEST CALLVALUE DUP1 ISZERO PUSH2 0x118 JUMPI PUSH1 0x0 DUP1 REVERT JUMPDEST POP PUSH2 0x121 PUSH2 0x4A4 JUMP JUMPDEST PUSH1 0x40 MLOAD PUSH2 0x12E SWAP2 SWAP1 PUSH2 0x97E JUMP JUMPDEST PUSH1 0x40 MLOAD DUP1 SWAP2 SUB SWAP1 RETURN JUMPDEST PUSH1 0x0 PUSH1 0x1 PUSH1 0x0 SWAP1 SLOAD SWAP1 PUSH2 0x100 EXP SWAP1 DIV PUSH20 0xFFFFFFFFFFFFFFFFFFFFFFFFFFFFFFFFFFFFFFFF AND SWAP1 POP SWAP1 JUMP JUMPDEST PUSH32 0x0 CALLVALUE LT ISZERO PUSH2 0x1BB JUMPI PUSH1 0x40 MLOAD PUSH32 0x4DE2F8600000000000000000000000000000000000000000000000000000000 DUP2 MSTORE PUSH1 0x4 ADD PUSH1 0x40 MLOAD DUP1 SWAP2 SUB SWAP1 REVERT JUMPDEST PUSH1 0x0 CALLER SWAP1 DUP1 PUSH1 0x1 DUP2 SLOAD ADD DUP1 DUP3 SSTORE DUP1 SWAP2 POP POP PUSH1 0x1 SWAP1 SUB SWAP1 PUSH1 0x0 MSTORE PUSH1 0x20 PUSH1 0x0 KECCAK256 ADD PUSH1 0x0 SWAP1 SWAP2 SWAP1 SWAP2 SWAP1 SWAP2 PUSH2 0x100 EXP DUP2 SLOAD DUP2 PUSH20 0xFFFFFFFFFFFFFFFFFFFFFFFFFFFFFFFFFFFFFFFF MUL NOT AND SWAP1 DUP4 PUSH20 0xFFFFFFFFFFFFFFFFFFFFFFFFFFFFFFFFFFFFFFFF AND MUL OR SWAP1 SSTORE POP CALLER PUSH20 0xFFFFFFFFFFFFFFFFFFFFFFFFFFFFFFFFFFFFFFFF AND PUSH32 0x8ED6A7AFF9A00785197DEC230A172A32E2FDEA5473A74F7D0477BE4505554EF8 PUSH1 0x40 MLOAD PUSH1 0x40 MLOAD DUP1 SWAP2 SUB SWAP1 LOG2 JUMP JUMPDEST PUSH32 0x0 PUSH20 0xFFFFFFFFFFFFFFFFFFFFFFFFFFFFFFFFFFFFFFFF AND CALLER PUSH20 0xFFFFFFFFFFFFFFFFFFFFFFFFFFFFFFFFFFFFFFFF AND EQ PUSH2 0x315 JUMPI CALLER PUSH32 0x0 PUSH1 0x40 MLOAD PUSH32 0x1CF993F400000000000000000000000000000000000000000000000000000000 DUP2 MSTORE PUSH1 0x4 ADD PUSH2 0x30C SWAP3 SWAP2 SWAP1 PUSH2 0x999 JUMP JUMPDEST PUSH1 0x40 MLOAD DUP1 SWAP2 SUB SWAP1 REVERT JUMPDEST PUSH2 0x31F DUP3 DUP3 PUSH2 0x4CC JUMP JUMPDEST POP POP JUMP JUMPDEST PUSH1 0x0 PUSH32 0x0 PUSH20 0xFFFFFFFFFFFFFFFFFFFFFFFFFFFFFFFFFFFFFFFF AND PUSH4 0x5D3B1D30 PUSH32 0x0 PUSH32 0x0 PUSH1 0x3 PUSH32 0x0 PUSH1 0x1 PUSH1 0x40 MLOAD DUP7 PUSH4 0xFFFFFFFF AND PUSH1 0xE0 SHL DUP2 MSTORE PUSH1 0x4 ADD PUSH2 0x3E8 SWAP6 SWAP5 SWAP4 SWAP3 SWAP2 SWAP1 PUSH2 0xA3A JUMP JUMPDEST PUSH1 0x20 PUSH1 0x40 MLOAD DUP1 DUP4 SUB DUP2 PUSH1 0x0 DUP8 GAS CALL ISZERO DUP1 ISZERO PUSH2 0x407 JUMPI RETURNDATASIZE PUSH1 0x0 DUP1 RETURNDATACOPY RETURNDATASIZE PUSH1 0x0 REVERT JUMPDEST POP POP POP POP PUSH1 0x40 MLOAD RETURNDATASIZE PUSH1 0x1F NOT PUSH1 0x1F DUP3 ADD AND DUP3 ADD DUP1 PUSH1 0x40 MSTORE POP DUP2 ADD SWAP1 PUSH2 0x42B SWAP2 SWAP1 PUSH2 0xAA2 JUMP JUMPDEST SWAP1 POP DUP1 PUSH32 0x9CD72631871DFF14BBC84976A39C2BCA5D943F61F72884A8F331A889778F2C31 PUSH1 0x40 MLOAD PUSH1 0x40 MLOAD DUP1 SWAP2 SUB SWAP1 LOG2 POP JUMP JUMPDEST PUSH1 0x0 DUP1 DUP3 DUP2 SLOAD DUP2 LT PUSH2 0x472 JUMPI PUSH2 0x471 PUSH2 0xACF JUMP JUMPDEST JUMPDEST SWAP1 PUSH1 0x0 MSTORE PUSH1 0x20 PUSH1 0x0 KECCAK256 ADD PUSH1 0x0 SWAP1 SLOAD SWAP1 PUSH2 0x100 EXP SWAP1 DIV PUSH20 0xFFFFFFFFFFFFFFFFFFFFFFFFFFFFFFFFFFFFFFFF AND SWAP1 POP SWAP2 SWAP1 POP JUMP JUMPDEST PUSH1 0x0 PUSH32 0x0 SWAP1 POP SWAP1 JUMP JUMPDEST PUSH1 0x0 DUP1 DUP1 SLOAD SWAP1 POP DUP3 PUSH1 0x0 DUP2 MLOAD DUP2 LT PUSH2 0x4E7 JUMPI PUSH2 0x4E6 PUSH2 0xACF JUMP JUMPDEST JUMPDEST PUSH1 0x20 MUL PUSH1 0x20 ADD ADD MLOAD PUSH2 0x4F9 SWAP2 SWAP1 PUSH2 0xB2D JUMP JUMPDEST SWAP1 POP PUSH1 0x0 DUP1 DUP3 DUP2 SLOAD DUP2 LT PUSH2 0x510 JUMPI PUSH2 0x50F PUSH2 0xACF JUMP JUMPDEST JUMPDEST SWAP1 PUSH1 0x0 MSTORE PUSH1 0x20 PUSH1 0x0 KECCAK256 ADD PUSH1 0x0 SWAP1 SLOAD SWAP1 PUSH2 0x100 EXP SWAP1 DIV PUSH20 0xFFFFFFFFFFFFFFFFFFFFFFFFFFFFFFFFFFFFFFFF AND SWAP1 POP DUP1 PUSH1 0x1 PUSH1 0x0 PUSH2 0x100 EXP DUP2 SLOAD DUP2 PUSH20 0xFFFFFFFFFFFFFFFFFFFFFFFFFFFFFFFFFFFFFFFF MUL NOT AND SWAP1 DUP4 PUSH20 0xFFFFFFFFFFFFFFFFFFFFFFFFFFFFFFFFFFFFFFFF AND MUL OR SWAP1 SSTORE POP PUSH1 0x0 DUP2 PUSH20 0xFFFFFFFFFFFFFFFFFFFFFFFFFFFFFFFFFFFFFFFF AND SELFBALANCE PUSH1 0x40 MLOAD PUSH2 0x5A4 SWAP1 PUSH2 0xB8F JUMP JUMPDEST PUSH1 0x0 PUSH1 0x40 MLOAD DUP1 DUP4 SUB DUP2 DUP6 DUP8 GAS CALL SWAP3 POP POP POP RETURNDATASIZE DUP1 PUSH1 0x0 DUP2 EQ PUSH2 0x5E1 JUMPI PUSH1 0x40 MLOAD SWAP2 POP PUSH1 0x1F NOT PUSH1 0x3F RETURNDATASIZE ADD AND DUP3 ADD PUSH1 0x40 MSTORE RETURNDATASIZE DUP3 MSTORE RETURNDATASIZE PUSH1 0x0 PUSH1 0x20 DUP5 ADD RETURNDATACOPY PUSH2 0x5E6 JUMP JUMPDEST PUSH1 0x60 SWAP2 POP JUMPDEST POP POP SWAP1 POP DUP1 PUSH2 0x62A JUMPI PUSH1 0x40 MLOAD PUSH32 0x8C379A000000000000000000000000000000000000000000000000000000000 DUP2 MSTORE PUSH1 0x4 ADD PUSH2 0x621 SWAP1 PUSH2 0xC01 JUMP JUMPDEST PUSH1 0x40 MLOAD DUP1 SWAP2 SUB SWAP1 REVERT JUMPDEST DUP1 PUSH2 0x661 JUMPI PUSH1 0x40 MLOAD PUSH32 0x6B56C6A300000000000000000000000000000000000000000000000000000000 DUP2 MSTORE PUSH1 0x4 ADD PUSH1 0x40 MLOAD DUP1 SWAP2 SUB SWAP1 REVERT JUMPDEST DUP2 PUSH20 0xFFFFFFFFFFFFFFFFFFFFFFFFFFFFFFFFFFFFFFFF AND PUSH32 0x7D5E0ACEF27DB2FE13C94BBDB66D614A8840FB82C920A1B9AADB5D6ACF3E7692 PUSH1 0x40 MLOAD PUSH1 0x40 MLOAD DUP1 SWAP2 SUB SWAP1 LOG2 POP POP POP POP POP JUMP JUMPDEST PUSH1 0x0 PUSH20 0xFFFFFFFFFFFFFFFFFFFFFFFFFFFFFFFFFFFFFFFF DUP3 AND SWAP1 POP SWAP2 SWAP1 POP JUMP JUMPDEST PUSH1 0x0 PUSH2 0x6D6 DUP3 PUSH2 0x6AB JUMP JUMPDEST SWAP1 POP SWAP2 SWAP1 POP JUMP JUMPDEST PUSH2 0x6E6 DUP2 PUSH2 0x6CB JUMP JUMPDEST DUP3 MSTORE POP POP JUMP JUMPDEST PUSH1 0x0 PUSH1 0x20 DUP3 ADD SWAP1 POP PUSH2 0x701 PUSH1 0x0 DUP4 ADD DUP5 PUSH2 0x6DD JUMP JUMPDEST SWAP3 SWAP2 POP POP JUMP JUMPDEST PUSH1 0x0 PUSH1 0x40 MLOAD SWAP1 POP SWAP1 JUMP JUMPDEST PUSH1 0x0 DUP1 REVERT JUMPDEST PUSH1 0x0 DUP1 REVERT JUMPDEST PUSH1 0x0 DUP2 SWAP1 POP SWAP2 SWAP1 POP JUMP JUMPDEST PUSH2 0x72E DUP2 PUSH2 0x71B JUMP JUMPDEST DUP2 EQ PUSH2 0x739 JUMPI PUSH1 0x0 DUP1 REVERT JUMPDEST POP JUMP JUMPDEST PUSH1 0x0 DUP2 CALLDATALOAD SWAP1 POP PUSH2 0x74B DUP2 PUSH2 0x725 JUMP JUMPDEST SWAP3 SWAP2 POP POP JUMP JUMPDEST PUSH1 0x0 DUP1 REVERT JUMPDEST PUSH1 0x0 PUSH1 0x1F NOT PUSH1 0x1F DUP4 ADD AND SWAP1 POP SWAP2 SWAP1 POP JUMP JUMPDEST PUSH32 0x4E487B7100000000000000000000000000000000000000000000000000000000 PUSH1 0x0 MSTORE PUSH1 0x41 PUSH1 0x4 MSTORE PUSH1 0x24 PUSH1 0x0 REVERT JUMPDEST PUSH2 0x79F DUP3 PUSH2 0x756 JUMP JUMPDEST DUP2 ADD DUP2 DUP2 LT PUSH8 0xFFFFFFFFFFFFFFFF DUP3 GT OR ISZERO PUSH2 0x7BE JUMPI PUSH2 0x7BD PUSH2 0x767 JUMP JUMPDEST JUMPDEST DUP1 PUSH1 0x40 MSTORE POP POP POP JUMP JUMPDEST PUSH1 0x0 PUSH2 0x7D1 PUSH2 0x707 JUMP JUMPDEST SWAP1 POP PUSH2 0x7DD DUP3 DUP3 PUSH2 0x796 JUMP JUMPDEST SWAP2 SWAP1 POP JUMP JUMPDEST PUSH1 0x0 PUSH8 0xFFFFFFFFFFFFFFFF DUP3 GT ISZERO PUSH2 0x7FD JUMPI PUSH2 0x7FC PUSH2 0x767 JUMP JUMPDEST JUMPDEST PUSH1 0x20 DUP3 MUL SWAP1 POP PUSH1 0x20 DUP2 ADD SWAP1 POP SWAP2 SWAP1 POP JUMP JUMPDEST PUSH1 0x0 DUP1 REVERT JUMPDEST PUSH1 0x0 PUSH2 0x826 PUSH2 0x821 DUP5 PUSH2 0x7E2 JUMP JUMPDEST PUSH2 0x7C7 JUMP JUMPDEST SWAP1 POP DUP1 DUP4 DUP3 MSTORE PUSH1 0x20 DUP3 ADD SWAP1 POP PUSH1 0x20 DUP5 MUL DUP4 ADD DUP6 DUP2 GT ISZERO PUSH2 0x849 JUMPI PUSH2 0x848 PUSH2 0x80E JUMP JUMPDEST JUMPDEST DUP4 JUMPDEST DUP2 DUP2 LT ISZERO PUSH2 0x872 JUMPI DUP1 PUSH2 0x85E DUP9 DUP3 PUSH2 0x73C JUMP JUMPDEST DUP5 MSTORE PUSH1 0x20 DUP5 ADD SWAP4 POP POP PUSH1 0x20 DUP2 ADD SWAP1 POP PUSH2 0x84B JUMP JUMPDEST POP POP POP SWAP4 SWAP3 POP POP POP JUMP JUMPDEST PUSH1 0x0 DUP3 PUSH1 0x1F DUP4 ADD SLT PUSH2 0x891 JUMPI PUSH2 0x890 PUSH2 0x751 JUMP JUMPDEST JUMPDEST DUP2 CALLDATALOAD PUSH2 0x8A1 DUP5 DUP3 PUSH1 0x20 DUP7 ADD PUSH2 0x813 JUMP JUMPDEST SWAP2 POP POP SWAP3 SWAP2 POP POP JUMP JUMPDEST PUSH1 0x0 DUP1 PUSH1 0x40 DUP4 DUP6 SUB SLT ISZERO PUSH2 0x8C1 JUMPI PUSH2 0x8C0 PUSH2 0x711 JUMP JUMPDEST JUMPDEST PUSH1 0x0 PUSH2 0x8CF DUP6 DUP3 DUP7 ADD PUSH2 0x73C JUMP JUMPDEST SWAP3 POP POP PUSH1 0x20 DUP4 ADD CALLDATALOAD PUSH8 0xFFFFFFFFFFFFFFFF DUP2 GT ISZERO PUSH2 0x8F0 JUMPI PUSH2 0x8EF PUSH2 0x716 JUMP JUMPDEST JUMPDEST PUSH2 0x8FC DUP6 DUP3 DUP7 ADD PUSH2 0x87C JUMP JUMPDEST SWAP2 POP POP SWAP3 POP SWAP3 SWAP1 POP JUMP JUMPDEST PUSH1 0x0 PUSH1 0x20 DUP3 DUP5 SUB SLT ISZERO PUSH2 0x91C JUMPI PUSH2 0x91B PUSH2 0x711 JUMP JUMPDEST JUMPDEST PUSH1 0x0 PUSH2 0x92A DUP5 DUP3 DUP6 ADD PUSH2 0x73C JUMP JUMPDEST SWAP2 POP POP SWAP3 SWAP2 POP POP JUMP JUMPDEST PUSH1 0x0 PUSH2 0x93E DUP3 PUSH2 0x6AB JUMP JUMPDEST SWAP1 POP SWAP2 SWAP1 POP JUMP JUMPDEST PUSH2 0x94E DUP2 PUSH2 0x933 JUMP JUMPDEST DUP3 MSTORE POP POP JUMP JUMPDEST PUSH1 0x0 PUSH1 0x20 DUP3 ADD SWAP1 POP PUSH2 0x969 PUSH1 0x0 DUP4 ADD DUP5 PUSH2 0x945 JUMP JUMPDEST SWAP3 SWAP2 POP POP JUMP JUMPDEST PUSH2 0x978 DUP2 PUSH2 0x71B JUMP JUMPDEST DUP3 MSTORE POP POP JUMP JUMPDEST PUSH1 0x0 PUSH1 0x20 DUP3 ADD SWAP1 POP PUSH2 0x993 PUSH1 0x0 DUP4 ADD DUP5 PUSH2 0x96F JUMP JUMPDEST SWAP3 SWAP2 POP POP JUMP JUMPDEST PUSH1 0x0 PUSH1 0x40 DUP3 ADD SWAP1 POP PUSH2 0x9AE PUSH1 0x0 DUP4 ADD DUP6 PUSH2 0x6DD JUMP JUMPDEST PUSH2 0x9BB PUSH1 0x20 DUP4 ADD DUP5 PUSH2 0x6DD JUMP JUMPDEST SWAP4 SWAP3 POP POP POP JUMP JUMPDEST PUSH1 0x0 DUP2 SWAP1 POP SWAP2 SWAP1 POP JUMP JUMPDEST PUSH2 0x9D5 DUP2 PUSH2 0x9C2 JUMP JUMPDEST DUP3 MSTORE POP POP JUMP JUMPDEST PUSH1 0x0 PUSH8 0xFFFFFFFFFFFFFFFF DUP3 AND SWAP1 POP SWAP2 SWAP1 POP JUMP JUMPDEST PUSH2 0x9F8 DUP2 PUSH2 0x9DB JUMP JUMPDEST DUP3 MSTORE POP POP JUMP JUMPDEST PUSH1 0x0 PUSH2 0xFFFF DUP3 AND SWAP1 POP SWAP2 SWAP1 POP JUMP JUMPDEST PUSH2 0xA15 DUP2 PUSH2 0x9FE JUMP JUMPDEST DUP3 MSTORE POP POP JUMP JUMPDEST PUSH1 0x0 PUSH4 0xFFFFFFFF DUP3 AND SWAP1 POP SWAP2 SWAP1 POP JUMP JUMPDEST PUSH2 0xA34 DUP2 PUSH2 0xA1B JUMP JUMPDEST DUP3 MSTORE POP POP JUMP JUMPDEST PUSH1 0x0 PUSH1 0xA0 DUP3 ADD SWAP1 POP PUSH2 0xA4F PUSH1 0x0 DUP4 ADD DUP9 PUSH2 0x9CC JUMP JUMPDEST PUSH2 0xA5C PUSH1 0x20 DUP4 ADD DUP8 PUSH2 0x9EF JUMP JUMPDEST PUSH2 0xA69 PUSH1 0x40 DUP4 ADD DUP7 PUSH2 0xA0C JUMP JUMPDEST PUSH2 0xA76 PUSH1 0x60 DUP4 ADD DUP6 PUSH2 0xA2B JUMP JUMPDEST PUSH2 0xA83 PUSH1 0x80 DUP4 ADD DUP5 PUSH2 0xA2B JUMP JUMPDEST SWAP7 SWAP6 POP POP POP POP POP POP JUMP JUMPDEST PUSH1 0x0 DUP2 MLOAD SWAP1 POP PUSH2 0xA9C DUP2 PUSH2 0x725 JUMP JUMPDEST SWAP3 SWAP2 POP POP JUMP JUMPDEST PUSH1 0x0 PUSH1 0x20 DUP3 DUP5 SUB SLT ISZERO PUSH2 0xAB8 JUMPI PUSH2 0xAB7 PUSH2 0x711 JUMP JUMPDEST JUMPDEST PUSH1 0x0 PUSH2 0xAC6 DUP5 DUP3 DUP6 ADD PUSH2 0xA8D JUMP JUMPDEST SWAP2 POP POP SWAP3 SWAP2 POP POP JUMP JUMPDEST PUSH32 0x4E487B7100000000000000000000000000000000000000000000000000000000 PUSH1 0x0 MSTORE PUSH1 0x32 PUSH1 0x4 MSTORE PUSH1 0x24 PUSH1 0x0 REVERT JUMPDEST PUSH32 0x4E487B7100000000000000000000000000000000000000000000000000000000 PUSH1 0x0 MSTORE PUSH1 0x12 PUSH1 0x4 MSTORE PUSH1 0x24 PUSH1 0x0 REVERT JUMPDEST PUSH1 0x0 PUSH2 0xB38 DUP3 PUSH2 0x71B JUMP JUMPDEST SWAP2 POP PUSH2 0xB43 DUP4 PUSH2 0x71B JUMP JUMPDEST SWAP3 POP DUP3 PUSH2 0xB53 JUMPI PUSH2 0xB52 PUSH2 0xAFE JUMP JUMPDEST JUMPDEST DUP3 DUP3 MOD SWAP1 POP SWAP3 SWAP2 POP POP JUMP JUMPDEST PUSH1 0x0 DUP2 SWAP1 POP SWAP3 SWAP2 POP POP JUMP JUMPDEST POP JUMP JUMPDEST PUSH1 0x0 PUSH2 0xB79 PUSH1 0x0 DUP4 PUSH2 0xB5E JUMP JUMPDEST SWAP2 POP PUSH2 0xB84 DUP3 PUSH2 0xB69 JUMP JUMPDEST PUSH1 0x0 DUP3 ADD SWAP1 POP SWAP2 SWAP1 POP JUMP JUMPDEST PUSH1 0x0 PUSH2 0xB9A DUP3 PUSH2 0xB6C JUMP JUMPDEST SWAP2 POP DUP2 SWAP1 POP SWAP2 SWAP1 POP JUMP JUMPDEST PUSH1 0x0 DUP3 DUP3 MSTORE PUSH1 0x20 DUP3 ADD SWAP1 POP SWAP3 SWAP2 POP POP JUMP JUMPDEST PUSH32 0x5472616E73666572206661696C65640000000000000000000000000000000000 PUSH1 0x0 DUP3 ADD MSTORE POP JUMP JUMPDEST PUSH1 0x0 PUSH2 0xBEB PUSH1 0xF DUP4 PUSH2 0xBA4 JUMP JUMPDEST SWAP2 POP PUSH2 0xBF6 DUP3 PUSH2 0xBB5 JUMP JUMPDEST PUSH1 0x20 DUP3 ADD SWAP1 POP SWAP2 SWAP1 POP JUMP JUMPDEST PUSH1 0x0 PUSH1 0x20 DUP3 ADD SWAP1 POP DUP2 DUP2 SUB PUSH1 0x0 DUP4 ADD MSTORE PUSH2 0xC1A DUP2 PUSH2 0xBDE JUMP JUMPDEST SWAP1 POP SWAP2 SWAP1 POP JUMP INVALID LOG2 PUSH5 0x6970667358 0x22 SLT KECCAK256 PUSH23 0x43C6FC349B845CC59ABF0F5093B8D82E18E876ABA76C3 0x2B SWAP14 PUSH15 0x8229C41FB764736F6C634300081C00 CALLER "},"gasEstimates":{"creation":{"codeDepositCost":"631800","executionCost":"infinite","totalCost":"infinite"},"external":{"RequestRandomWinner()":"infinite","enterRaffel()":"infinite","gertRecentWinner()":"2500","getEntryFee()":"infinite","getPlayer(uint256)":"5033","rawFulfillRandomWords(uint256,uint256[])":"infinite"},"internal":{"fulfillRandomWords(uint256,uint256[] memory)":"infinite"}},"methodIdentifiers":{"RequestRandomWinner()":"5e8de0db","enterRaffel()":"0ff19fd7","gertRecentWinner()":"0b6831e5","getEntryFee()":"e586a4f0","getPlayer(uint256)":"e55ae4e8","rawFulfillRandomWords(uint256,uint256[])":"1fe543e3"}},"storageLayout":{"storage":[{"astId":168,"contract":"contracts/Raffel.sol:Raffel","label":"s_players","offset":0,"slot":"0","type":"t_array(t_address_payable)dyn_storage"},{"astId":186,"contract":"contracts/Raffel.sol:Raffel","label":"s_recentWinner","offset":0,"slot":"1","type":"t_address"}],"types":{"t_address":{"encoding":"inplace","label":"address","numberOfBytes":"20"},"t_address_payable":{"encoding":"inplace","label":"address payable","numberOfBytes":"20"},"t_array(t_address_payable)dyn_storage":{"base":"t_address_payable","encoding":"dynamic_array","label":"address payable[]","numberOfBytes":"32"}}},"userdoc":{"kind":"user","methods":{},"version":1}}}}