{"contracts/Raffel.sol":{"Raffel":{"abi":[{"inputs":[{"internalType":"uint256","name":"entryFee","type":"uint256"},{"internalType":"address","name":"vrfCoordinator","type":"address"},{"internalType":"bytes32","name":"gasLane","type":"bytes32"},{"internalType":"uint64","name":"subscriptionId","type":"uint64"},{"internalType":"uint32","name":"callbackGasLimit","type":"uint32"},{"internalType":"uint256","name":"interval","type":"uint256"}],"stateMutability":"nonpayable","type":"constructor"},{"inputs":[{"internalType":"address","name":"have","type":"address"},{"internalType":"address","name":"want","type":"address"}],"name":"OnlyCoordinatorCanFulfill","type":"error"},{"inputs":[],"name":"Raffel_NotOpen","type":"error"},{"inputs":[],"name":"Raffel_TransferFailed","type":"error"},{"inputs":[{"internalType":"uint256","name":"currentBalance","type":"uint256"},{"internalType":"uint256","name":"numPlayers","type":"uint256"},{"internalType":"uint256","name":"raffelState","type":"uint256"}],"name":"Raffel_UpkeepNotNeeded","type":"error"},{"anonymous":false,"inputs":[{"indexed":true,"internalType":"address","name":"player","type":"address"}],"name":"RaffelEntered","type":"event"},{"anonymous":false,"inputs":[{"indexed":true,"internalType":"address","name":"winner","type":"address"}],"name":"RaffelWinnerPicked","type":"event"},{"anonymous":false,"inputs":[{"indexed":true,"internalType":"uint256","name":"requestId","type":"uint256"}],"name":"RequestedRaffelWinner","type":"event"},{"inputs":[{"internalType":"bytes","name":"","type":"bytes"}],"name":"checkUpkeep","outputs":[{"internalType":"bool","name":"upkeepNeeded","type":"bool"},{"internalType":"bytes","name":"","type":"bytes"}],"stateMutability":"view","type":"function"},{"inputs":[],"name":"enterRaffel","outputs":[],"stateMutability":"payable","type":"function"},{"inputs":[],"name":"gertRecentWinner","outputs":[{"internalType":"address","name":"","type":"address"}],"stateMutability":"view","type":"function"},{"inputs":[],"name":"getEntryFee","outputs":[{"internalType":"uint256","name":"","type":"uint256"}],"stateMutability":"view","type":"function"},{"inputs":[],"name":"getLatestTimeStamp","outputs":[{"internalType":"uint256","name":"","type":"uint256"}],"stateMutability":"view","type":"function"},{"inputs":[],"name":"getNumWords","outputs":[{"internalType":"uint32","name":"","type":"uint32"}],"stateMutability":"pure","type":"function"},{"inputs":[],"name":"getNumberofPlayers","outputs":[{"internalType":"uint256","name":"","type":"uint256"}],"stateMutability":"view","type":"function"},{"inputs":[{"internalType":"uint256","name":"index","type":"uint256"}],"name":"getPlayer","outputs":[{"internalType":"address payable","name":"","type":"address"}],"stateMutability":"view","type":"function"},{"inputs":[],"name":"getRaffelState","outputs":[{"internalType":"enum Raffel.RaffelState","name":"","type":"uint8"}],"stateMutability":"view","type":"function"},{"inputs":[],"name":"getRequestConfirmations","outputs":[{"internalType":"uint16","name":"","type":"uint16"}],"stateMutability":"pure","type":"function"},{"inputs":[{"internalType":"bytes","name":"","type":"bytes"}],"name":"performUpKeep","outputs":[],"stateMutability":"nonpayable","type":"function"},{"inputs":[{"internalType":"uint256","name":"requestId","type":"uint256"},{"internalType":"uint256[]","name":"randomWords","type":"uint256[]"}],"name":"rawFulfillRandomWords","outputs":[],"stateMutability":"nonpayable","type":"function"}],"devdoc":{"kind":"dev","methods":{},"version":1},"evm":{"bytecode":{"linkReferences":{},"object":"610160604052620186a063ffffffff166101209063ffffffff1681525034801561002857600080fd5b50604051611805380380611805833981810160405281019061004a9190610287565b848073ffffffffffffffffffffffffffffffffffffffff1660808173ffffffffffffffffffffffffffffffffffffffff1681525050508560a081815250508473ffffffffffffffffffffffffffffffffffffffff1660c08173ffffffffffffffffffffffffffffffffffffffff16815250508360e081815250508267ffffffffffffffff166101008167ffffffffffffffff16815250508163ffffffff166101208163ffffffff16815250506000600160146101000a81548160ff0219169083600181111561011c5761011b610314565b5b021790555042600281905550806101408181525050505050505050610343565b600080fd5b6000819050919050565b61015481610141565b811461015f57600080fd5b50565b6000815190506101718161014b565b92915050565b600073ffffffffffffffffffffffffffffffffffffffff82169050919050565b60006101a282610177565b9050919050565b6101b281610197565b81146101bd57600080fd5b50565b6000815190506101cf816101a9565b92915050565b6000819050919050565b6101e8816101d5565b81146101f357600080fd5b50565b600081519050610205816101df565b92915050565b600067ffffffffffffffff82169050919050565b6102288161020b565b811461023357600080fd5b50565b6000815190506102458161021f565b92915050565b600063ffffffff82169050919050565b6102648161024b565b811461026f57600080fd5b50565b6000815190506102818161025b565b92915050565b60008060008060008060c087890312156102a4576102a361013c565b5b60006102b289828a01610162565b96505060206102c389828a016101c0565b95505060406102d489828a016101f6565b94505060606102e589828a01610236565b93505060806102f689828a01610272565b92505060a061030789828a01610162565b9150509295509295509295565b7f4e487b7100000000000000000000000000000000000000000000000000000000600052602160045260246000fd5b60805160a05160c05160e05161010051610120516101405161145a6103ab6000396000610a5f0152600061065b0152600061063801526000610617015260006105db0152600081816102dc015261078a01526000818161045401526104a8015261145a6000f3fe6080604052600436106100a75760003560e01c80635f1b0fd8116100645780635f1b0fd81461018b5780636c7c8f17146101b65780636e04ff0d146101df5780638a78da411461021d578063e55ae4e814610248578063e586a4f014610285576100a7565b80630b6831e5146100ac5780630ff19fd7146100d75780631fe543e3146100e1578063320229eb1461010a57806349a706ce1461013557806353a2c19a14610160575b600080fd5b3480156100b857600080fd5b506100c16102b0565b6040516100ce9190610baf565b60405180910390f35b6100df6102da565b005b3480156100ed57600080fd5b5061010860048036038101906101039190610d6d565b610452565b005b34801561011657600080fd5b5061011f610512565b60405161012c9190610dd8565b60405180910390f35b34801561014157600080fd5b5061014a61051c565b6040516101579190610dd8565b60405180910390f35b34801561016c57600080fd5b50610175610528565b6040516101829190610e12565b60405180910390f35b34801561019757600080fd5b506101a0610531565b6040516101ad9190610e4a565b60405180910390f35b3480156101c257600080fd5b506101dd60048036038101906101d89190610ec0565b61053a565b005b3480156101eb57600080fd5b5061020660048036038101906102019190610ec0565b610713565b604051610214929190610fa7565b60405180910390f35b34801561022957600080fd5b50610232610728565b60405161023f919061104e565b60405180910390f35b34801561025457600080fd5b5061026f600480360381019061026a9190611069565b61073f565b60405161027c91906110b7565b60405180910390f35b34801561029157600080fd5b5061029a610786565b6040516102a79190610dd8565b60405180910390f35b6000600160009054906101000a900473ffffffffffffffffffffffffffffffffffffffff16905090565b7f0000000000000000000000000000000000000000000000000000000000000000341015610334576040517f38c2c67e00000000000000000000000000000000000000000000000000000000815260040160405180910390fd5b6000600181111561034857610347610fd7565b5b600160149054906101000a900460ff16600181111561036a57610369610fd7565b5b146103aa576040517f08c379a00000000000000000000000000000000000000000000000000000000081526004016103a19061112f565b60405180910390fd5b6000339080600181540180825580915050600190039060005260206000200160009091909190916101000a81548173ffffffffffffffffffffffffffffffffffffffff021916908373ffffffffffffffffffffffffffffffffffffffff1602179055503373ffffffffffffffffffffffffffffffffffffffff167f8ed6a7aff9a00785197dec230a172a32e2fdea5473a74f7d0477be4505554ef860405160405180910390a2565b7f000000000000000000000000000000000000000000000000000000000000000073ffffffffffffffffffffffffffffffffffffffff163373ffffffffffffffffffffffffffffffffffffffff161461050457337f00000000000000000000000000000000000000000000000000000000000000006040517f1cf993f40000000000000000000000000000000000000000000000000000000081526004016104fb92919061114f565b60405180910390fd5b61050e82826107ae565b5050565b6000600254905090565b60008080549050905090565b60006001905090565b60006003905090565b610542610a1f565b6105ad5747600080549050600160149054906101000a900460ff16600181111561056f5761056e610fd7565b5b6040517feee093da0000000000000000000000000000000000000000000000000000000081526004016105a493929190611178565b60405180910390fd5b60018060146101000a81548160ff021916908360018111156105d2576105d1610fd7565b5b021790555060007f000000000000000000000000000000000000000000000000000000000000000073ffffffffffffffffffffffffffffffffffffffff16635d3b1d307f00000000000000000000000000000000000000000000000000000000000000007f000000000000000000000000000000000000000000000000000000000000000060037f000000000000000000000000000000000000000000000000000000000000000060016040518663ffffffff1660e01b815260040161069c9594939291906111eb565b6020604051808303816000875af11580156106bb573d6000803e3d6000fd5b505050506040513d601f19601f820116820180604052508101906106df9190611253565b9050807f9cd72631871dff14bbc84976a39c2bca5d943f61f72884a8f331a889778f2c3160405160405180910390a2505050565b6000606061071f610a1f565b91509250929050565b6000600160149054906101000a900460ff16905090565b600080828154811061075457610753611280565b5b9060005260206000200160009054906101000a900473ffffffffffffffffffffffffffffffffffffffff169050919050565b60007f0000000000000000000000000000000000000000000000000000000000000000905090565b60008080549050826000815181106107c9576107c8611280565b5b60200260200101516107db91906112de565b905060008082815481106107f2576107f1611280565b5b9060005260206000200160009054906101000a900473ffffffffffffffffffffffffffffffffffffffff16905080600160006101000a81548173ffffffffffffffffffffffffffffffffffffffff021916908373ffffffffffffffffffffffffffffffffffffffff1602179055506000600160146101000a81548160ff0219169083600181111561088657610885610fd7565b5b0217905550600067ffffffffffffffff8111156108a6576108a5610c2a565b5b6040519080825280602002602001820160405280156108d45781602001602082028036833780820191505090505b50600090805190602001906108ea929190610ac7565b504260028190555060008173ffffffffffffffffffffffffffffffffffffffff164760405161091890611340565b60006040518083038185875af1925050503d8060008114610955576040519150601f19603f3d011682016040523d82523d6000602084013e61095a565b606091505b505090508061099e576040517f08c379a0000000000000000000000000000000000000000000000000000000008152600401610995906113a1565b60405180910390fd5b806109d5576040517f6b56c6a300000000000000000000000000000000000000000000000000000000815260040160405180910390fd5b8173ffffffffffffffffffffffffffffffffffffffff167f7d5e0acef27db2fe13c94bbdb66d614a8840fb82c920a1b9aadb5d6acf3e769260405160405180910390a25050505050565b600080600160149054906101000a900460ff166001811115610a4457610a43610fd7565b5b60006001811115610a5857610a57610fd7565b5b14905060007f000000000000000000000000000000000000000000000000000000000000000060025442610a8c91906113f0565b11905060008060008054905011905060008047119050838015610aac5750825b8015610ab55750815b8015610abe5750805b94505050505090565b828054828255906000526020600020908101928215610b40579160200282015b82811115610b3f5782518260006101000a81548173ffffffffffffffffffffffffffffffffffffffff021916908373ffffffffffffffffffffffffffffffffffffffff16021790555091602001919060010190610ae7565b5b509050610b4d9190610b51565b5090565b5b80821115610b6a576000816000905550600101610b52565b5090565b600073ffffffffffffffffffffffffffffffffffffffff82169050919050565b6000610b9982610b6e565b9050919050565b610ba981610b8e565b82525050565b6000602082019050610bc46000830184610ba0565b92915050565b6000604051905090565b600080fd5b600080fd5b6000819050919050565b610bf181610bde565b8114610bfc57600080fd5b50565b600081359050610c0e81610be8565b92915050565b600080fd5b6000601f19601f8301169050919050565b7f4e487b7100000000000000000000000000000000000000000000000000000000600052604160045260246000fd5b610c6282610c19565b810181811067ffffffffffffffff82111715610c8157610c80610c2a565b5b80604052505050565b6000610c94610bca565b9050610ca08282610c59565b919050565b600067ffffffffffffffff821115610cc057610cbf610c2a565b5b602082029050602081019050919050565b600080fd5b6000610ce9610ce484610ca5565b610c8a565b90508083825260208201905060208402830185811115610d0c57610d0b610cd1565b5b835b81811015610d355780610d218882610bff565b845260208401935050602081019050610d0e565b5050509392505050565b600082601f830112610d5457610d53610c14565b5b8135610d64848260208601610cd6565b91505092915050565b60008060408385031215610d8457610d83610bd4565b5b6000610d9285828601610bff565b925050602083013567ffffffffffffffff811115610db357610db2610bd9565b5b610dbf85828601610d3f565b9150509250929050565b610dd281610bde565b82525050565b6000602082019050610ded6000830184610dc9565b92915050565b600063ffffffff82169050919050565b610e0c81610df3565b82525050565b6000602082019050610e276000830184610e03565b92915050565b600061ffff82169050919050565b610e4481610e2d565b82525050565b6000602082019050610e5f6000830184610e3b565b92915050565b600080fd5b60008083601f840112610e8057610e7f610c14565b5b8235905067ffffffffffffffff811115610e9d57610e9c610e65565b5b602083019150836001820283011115610eb957610eb8610cd1565b5b9250929050565b60008060208385031215610ed757610ed6610bd4565b5b600083013567ffffffffffffffff811115610ef557610ef4610bd9565b5b610f0185828601610e6a565b92509250509250929050565b60008115159050919050565b610f2281610f0d565b82525050565b600081519050919050565b600082825260208201905092915050565b60005b83811015610f62578082015181840152602081019050610f47565b60008484015250505050565b6000610f7982610f28565b610f838185610f33565b9350610f93818560208601610f44565b610f9c81610c19565b840191505092915050565b6000604082019050610fbc6000830185610f19565b8181036020830152610fce8184610f6e565b90509392505050565b7f4e487b7100000000000000000000000000000000000000000000000000000000600052602160045260246000fd5b6002811061101757611016610fd7565b5b50565b600081905061102882611006565b919050565b60006110388261101a565b9050919050565b6110488161102d565b82525050565b6000602082019050611063600083018461103f565b92915050565b60006020828403121561107f5761107e610bd4565b5b600061108d84828501610bff565b91505092915050565b60006110a182610b6e565b9050919050565b6110b181611096565b82525050565b60006020820190506110cc60008301846110a8565b92915050565b600082825260208201905092915050565b7f52616666656c206973206e6f74206f70656e0000000000000000000000000000600082015250565b60006111196012836110d2565b9150611124826110e3565b602082019050919050565b600060208201905081810360008301526111488161110c565b9050919050565b60006040820190506111646000830185610ba0565b6111716020830184610ba0565b9392505050565b600060608201905061118d6000830186610dc9565b61119a6020830185610dc9565b6111a76040830184610dc9565b949350505050565b6000819050919050565b6111c2816111af565b82525050565b600067ffffffffffffffff82169050919050565b6111e5816111c8565b82525050565b600060a08201905061120060008301886111b9565b61120d60208301876111dc565b61121a6040830186610e3b565b6112276060830185610e03565b6112346080830184610e03565b9695505050505050565b60008151905061124d81610be8565b92915050565b60006020828403121561126957611268610bd4565b5b60006112778482850161123e565b91505092915050565b7f4e487b7100000000000000000000000000000000000000000000000000000000600052603260045260246000fd5b7f4e487b7100000000000000000000000000000000000000000000000000000000600052601260045260246000fd5b60006112e982610bde565b91506112f483610bde565b925082611304576113036112af565b5b828206905092915050565b600081905092915050565b50565b600061132a60008361130f565b91506113358261131a565b600082019050919050565b600061134b8261131d565b9150819050919050565b7f5472616e73666572206661696c65640000000000000000000000000000000000600082015250565b600061138b600f836110d2565b915061139682611355565b602082019050919050565b600060208201905081810360008301526113ba8161137e565b9050919050565b7f4e487b7100000000000000000000000000000000000000000000000000000000600052601160045260246000fd5b60006113fb82610bde565b915061140683610bde565b925082820390508181111561141e5761141d6113c1565b5b9291505056fea26469706673582212205c6e5f6b0d59259a16e23bbf87b085c719d0f54379ca0c4176dd2fa3742c5e7364736f6c634300081c0033","opcodes":"PUSH2 0x160 PUSH1 0x40 MSTORE PUSH3 0x186A0 PUSH4 0xFFFFFFFF AND PUSH2 0x120 SWAP1 PUSH4 0xFFFFFFFF AND DUP2 MSTORE POP CALLVALUE DUP1 ISZERO PUSH2 0x28 JUMPI PUSH1 0x0 DUP1 REVERT JUMPDEST POP PUSH1 0x40 MLOAD PUSH2 0x1805 CODESIZE SUB DUP1 PUSH2 0x1805 DUP4 CODECOPY DUP2 DUP2 ADD PUSH1 0x40 MSTORE DUP2 ADD SWAP1 PUSH2 0x4A SWAP2 SWAP1 PUSH2 0x287 JUMP JUMPDEST DUP5 DUP1 PUSH20 0xFFFFFFFFFFFFFFFFFFFFFFFFFFFFFFFFFFFFFFFF AND PUSH1 0x80 DUP2 PUSH20 0xFFFFFFFFFFFFFFFFFFFFFFFFFFFFFFFFFFFFFFFF AND DUP2 MSTORE POP POP POP DUP6 PUSH1 0xA0 DUP2 DUP2 MSTORE POP POP DUP5 PUSH20 0xFFFFFFFFFFFFFFFFFFFFFFFFFFFFFFFFFFFFFFFF AND PUSH1 0xC0 DUP2 PUSH20 0xFFFFFFFFFFFFFFFFFFFFFFFFFFFFFFFFFFFFFFFF AND DUP2 MSTORE POP POP DUP4 PUSH1 0xE0 DUP2 DUP2 MSTORE POP POP DUP3 PUSH8 0xFFFFFFFFFFFFFFFF AND PUSH2 0x100 DUP2 PUSH8 0xFFFFFFFFFFFFFFFF AND DUP2 MSTORE POP POP DUP2 PUSH4 0xFFFFFFFF AND PUSH2 0x120 DUP2 PUSH4 0xFFFFFFFF AND DUP2 MSTORE POP POP PUSH1 0x0 PUSH1 0x1 PUSH1 0x14 PUSH2 0x100 EXP DUP2 SLOAD DUP2 PUSH1 0xFF MUL NOT AND SWAP1 DUP4 PUSH1 0x1 DUP2 GT ISZERO PUSH2 0x11C JUMPI PUSH2 0x11B PUSH2 0x314 JUMP JUMPDEST JUMPDEST MUL OR SWAP1 SSTORE POP TIMESTAMP PUSH1 0x2 DUP2 SWAP1 SSTORE POP DUP1 PUSH2 0x140 DUP2 DUP2 MSTORE POP POP POP POP POP POP POP POP PUSH2 0x343 JUMP JUMPDEST PUSH1 0x0 DUP1 REVERT JUMPDEST PUSH1 0x0 DUP2 SWAP1 POP SWAP2 SWAP1 POP JUMP JUMPDEST PUSH2 0x154 DUP2 PUSH2 0x141 JUMP JUMPDEST DUP2 EQ PUSH2 0x15F JUMPI PUSH1 0x0 DUP1 REVERT JUMPDEST POP JUMP JUMPDEST PUSH1 0x0 DUP2 MLOAD SWAP1 POP PUSH2 0x171 DUP2 PUSH2 0x14B JUMP JUMPDEST SWAP3 SWAP2 POP POP JUMP JUMPDEST PUSH1 0x0 PUSH20 0xFFFFFFFFFFFFFFFFFFFFFFFFFFFFFFFFFFFFFFFF DUP3 AND SWAP1 POP SWAP2 SWAP1 POP JUMP JUMPDEST PUSH1 0x0 PUSH2 0x1A2 DUP3 PUSH2 0x177 JUMP JUMPDEST SWAP1 POP SWAP2 SWAP1 POP JUMP JUMPDEST PUSH2 0x1B2 DUP2 PUSH2 0x197 JUMP JUMPDEST DUP2 EQ PUSH2 0x1BD JUMPI PUSH1 0x0 DUP1 REVERT JUMPDEST POP JUMP JUMPDEST PUSH1 0x0 DUP2 MLOAD SWAP1 POP PUSH2 0x1CF DUP2 PUSH2 0x1A9 JUMP JUMPDEST SWAP3 SWAP2 POP POP JUMP JUMPDEST PUSH1 0x0 DUP2 SWAP1 POP SWAP2 SWAP1 POP JUMP JUMPDEST PUSH2 0x1E8 DUP2 PUSH2 0x1D5 JUMP JUMPDEST DUP2 EQ PUSH2 0x1F3 JUMPI PUSH1 0x0 DUP1 REVERT JUMPDEST POP JUMP JUMPDEST PUSH1 0x0 DUP2 MLOAD SWAP1 POP PUSH2 0x205 DUP2 PUSH2 0x1DF JUMP JUMPDEST SWAP3 SWAP2 POP POP JUMP JUMPDEST PUSH1 0x0 PUSH8 0xFFFFFFFFFFFFFFFF DUP3 AND SWAP1 POP SWAP2 SWAP1 POP JUMP JUMPDEST PUSH2 0x228 DUP2 PUSH2 0x20B JUMP JUMPDEST DUP2 EQ PUSH2 0x233 JUMPI PUSH1 0x0 DUP1 REVERT JUMPDEST POP JUMP JUMPDEST PUSH1 0x0 DUP2 MLOAD SWAP1 POP PUSH2 0x245 DUP2 PUSH2 0x21F JUMP JUMPDEST SWAP3 SWAP2 POP POP JUMP JUMPDEST PUSH1 0x0 PUSH4 0xFFFFFFFF DUP3 AND SWAP1 POP SWAP2 SWAP1 POP JUMP JUMPDEST PUSH2 0x264 DUP2 PUSH2 0x24B JUMP JUMPDEST DUP2 EQ PUSH2 0x26F JUMPI PUSH1 0x0 DUP1 REVERT JUMPDEST POP JUMP JUMPDEST PUSH1 0x0 DUP2 MLOAD SWAP1 POP PUSH2 0x281 DUP2 PUSH2 0x25B JUMP JUMPDEST SWAP3 SWAP2 POP POP JUMP JUMPDEST PUSH1 0x0 DUP1 PUSH1 0x0 DUP1 PUSH1 0x0 DUP1 PUSH1 0xC0 DUP8 DUP10 SUB SLT ISZERO PUSH2 0x2A4 JUMPI PUSH2 0x2A3 PUSH2 0x13C JUMP JUMPDEST JUMPDEST PUSH1 0x0 PUSH2 0x2B2 DUP10 DUP3 DUP11 ADD PUSH2 0x162 JUMP JUMPDEST SWAP7 POP POP PUSH1 0x20 PUSH2 0x2C3 DUP10 DUP3 DUP11 ADD PUSH2 0x1C0 JUMP JUMPDEST SWAP6 POP POP PUSH1 0x40 PUSH2 0x2D4 DUP10 DUP3 DUP11 ADD PUSH2 0x1F6 JUMP JUMPDEST SWAP5 POP POP PUSH1 0x60 PUSH2 0x2E5 DUP10 DUP3 DUP11 ADD PUSH2 0x236 JUMP JUMPDEST SWAP4 POP POP PUSH1 0x80 PUSH2 0x2F6 DUP10 DUP3 DUP11 ADD PUSH2 0x272 JUMP JUMPDEST SWAP3 POP POP PUSH1 0xA0 PUSH2 0x307 DUP10 DUP3 DUP11 ADD PUSH2 0x162 JUMP JUMPDEST SWAP2 POP POP SWAP3 SWAP6 POP SWAP3 SWAP6 POP SWAP3 SWAP6 JUMP JUMPDEST PUSH32 0x4E487B7100000000000000000000000000000000000000000000000000000000 PUSH1 0x0 MSTORE PUSH1 0x21 PUSH1 0x4 MSTORE PUSH1 0x24 PUSH1 0x0 REVERT JUMPDEST PUSH1 0x80 MLOAD PUSH1 0xA0 MLOAD PUSH1 0xC0 MLOAD PUSH1 0xE0 MLOAD PUSH2 0x100 MLOAD PUSH2 0x120 MLOAD PUSH2 0x140 MLOAD PUSH2 0x145A PUSH2 0x3AB PUSH1 0x0 CODECOPY PUSH1 0x0 PUSH2 0xA5F ADD MSTORE PUSH1 0x0 PUSH2 0x65B ADD MSTORE PUSH1 0x0 PUSH2 0x638 ADD MSTORE PUSH1 0x0 PUSH2 0x617 ADD MSTORE PUSH1 0x0 PUSH2 0x5DB ADD MSTORE PUSH1 0x0 DUP2 DUP2 PUSH2 0x2DC ADD MSTORE PUSH2 0x78A ADD MSTORE PUSH1 0x0 DUP2 DUP2 PUSH2 0x454 ADD MSTORE PUSH2 0x4A8 ADD MSTORE PUSH2 0x145A PUSH1 0x0 RETURN INVALID PUSH1 0x80 PUSH1 0x40 MSTORE PUSH1 0x4 CALLDATASIZE LT PUSH2 0xA7 JUMPI PUSH1 0x0 CALLDATALOAD PUSH1 0xE0 SHR DUP1 PUSH4 0x5F1B0FD8 GT PUSH2 0x64 JUMPI DUP1 PUSH4 0x5F1B0FD8 EQ PUSH2 0x18B JUMPI DUP1 PUSH4 0x6C7C8F17 EQ PUSH2 0x1B6 JUMPI DUP1 PUSH4 0x6E04FF0D EQ PUSH2 0x1DF JUMPI DUP1 PUSH4 0x8A78DA41 EQ PUSH2 0x21D JUMPI DUP1 PUSH4 0xE55AE4E8 EQ PUSH2 0x248 JUMPI DUP1 PUSH4 0xE586A4F0 EQ PUSH2 0x285 JUMPI PUSH2 0xA7 JUMP JUMPDEST DUP1 PUSH4 0xB6831E5 EQ PUSH2 0xAC JUMPI DUP1 PUSH4 0xFF19FD7 EQ PUSH2 0xD7 JUMPI DUP1 PUSH4 0x1FE543E3 EQ PUSH2 0xE1 JUMPI DUP1 PUSH4 0x320229EB EQ PUSH2 0x10A JUMPI DUP1 PUSH4 0x49A706CE EQ PUSH2 0x135 JUMPI DUP1 PUSH4 0x53A2C19A EQ PUSH2 0x160 JUMPI JUMPDEST PUSH1 0x0 DUP1 REVERT JUMPDEST CALLVALUE DUP1 ISZERO PUSH2 0xB8 JUMPI PUSH1 0x0 DUP1 REVERT JUMPDEST POP PUSH2 0xC1 PUSH2 0x2B0 JUMP JUMPDEST PUSH1 0x40 MLOAD PUSH2 0xCE SWAP2 SWAP1 PUSH2 0xBAF JUMP JUMPDEST PUSH1 0x40 MLOAD DUP1 SWAP2 SUB SWAP1 RETURN JUMPDEST PUSH2 0xDF PUSH2 0x2DA JUMP JUMPDEST STOP JUMPDEST CALLVALUE DUP1 ISZERO PUSH2 0xED JUMPI PUSH1 0x0 DUP1 REVERT JUMPDEST POP PUSH2 0x108 PUSH1 0x4 DUP1 CALLDATASIZE SUB DUP2 ADD SWAP1 PUSH2 0x103 SWAP2 SWAP1 PUSH2 0xD6D JUMP JUMPDEST PUSH2 0x452 JUMP JUMPDEST STOP JUMPDEST CALLVALUE DUP1 ISZERO PUSH2 0x116 JUMPI PUSH1 0x0 DUP1 REVERT JUMPDEST POP PUSH2 0x11F PUSH2 0x512 JUMP JUMPDEST PUSH1 0x40 MLOAD PUSH2 0x12C SWAP2 SWAP1 PUSH2 0xDD8 JUMP JUMPDEST PUSH1 0x40 MLOAD DUP1 SWAP2 SUB SWAP1 RETURN JUMPDEST CALLVALUE DUP1 ISZERO PUSH2 0x141 JUMPI PUSH1 0x0 DUP1 REVERT JUMPDEST POP PUSH2 0x14A PUSH2 0x51C JUMP JUMPDEST PUSH1 0x40 MLOAD PUSH2 0x157 SWAP2 SWAP1 PUSH2 0xDD8 JUMP JUMPDEST PUSH1 0x40 MLOAD DUP1 SWAP2 SUB SWAP1 RETURN JUMPDEST CALLVALUE DUP1 ISZERO PUSH2 0x16C JUMPI PUSH1 0x0 DUP1 REVERT JUMPDEST POP PUSH2 0x175 PUSH2 0x528 JUMP JUMPDEST PUSH1 0x40 MLOAD PUSH2 0x182 SWAP2 SWAP1 PUSH2 0xE12 JUMP JUMPDEST PUSH1 0x40 MLOAD DUP1 SWAP2 SUB SWAP1 RETURN JUMPDEST CALLVALUE DUP1 ISZERO PUSH2 0x197 JUMPI PUSH1 0x0 DUP1 REVERT JUMPDEST POP PUSH2 0x1A0 PUSH2 0x531 JUMP JUMPDEST PUSH1 0x40 MLOAD PUSH2 0x1AD SWAP2 SWAP1 PUSH2 0xE4A JUMP JUMPDEST PUSH1 0x40 MLOAD DUP1 SWAP2 SUB SWAP1 RETURN JUMPDEST CALLVALUE DUP1 ISZERO PUSH2 0x1C2 JUMPI PUSH1 0x0 DUP1 REVERT JUMPDEST POP PUSH2 0x1DD PUSH1 0x4 DUP1 CALLDATASIZE SUB DUP2 ADD SWAP1 PUSH2 0x1D8 SWAP2 SWAP1 PUSH2 0xEC0 JUMP JUMPDEST PUSH2 0x53A JUMP JUMPDEST STOP JUMPDEST CALLVALUE DUP1 ISZERO PUSH2 0x1EB JUMPI PUSH1 0x0 DUP1 REVERT JUMPDEST POP PUSH2 0x206 PUSH1 0x4 DUP1 CALLDATASIZE SUB DUP2 ADD SWAP1 PUSH2 0x201 SWAP2 SWAP1 PUSH2 0xEC0 JUMP JUMPDEST PUSH2 0x713 JUMP JUMPDEST PUSH1 0x40 MLOAD PUSH2 0x214 SWAP3 SWAP2 SWAP1 PUSH2 0xFA7 JUMP JUMPDEST PUSH1 0x40 MLOAD DUP1 SWAP2 SUB SWAP1 RETURN JUMPDEST CALLVALUE DUP1 ISZERO PUSH2 0x229 JUMPI PUSH1 0x0 DUP1 REVERT JUMPDEST POP PUSH2 0x232 PUSH2 0x728 JUMP JUMPDEST PUSH1 0x40 MLOAD PUSH2 0x23F SWAP2 SWAP1 PUSH2 0x104E JUMP JUMPDEST PUSH1 0x40 MLOAD DUP1 SWAP2 SUB SWAP1 RETURN JUMPDEST CALLVALUE DUP1 ISZERO PUSH2 0x254 JUMPI PUSH1 0x0 DUP1 REVERT JUMPDEST POP PUSH2 0x26F PUSH1 0x4 DUP1 CALLDATASIZE SUB DUP2 ADD SWAP1 PUSH2 0x26A SWAP2 SWAP1 PUSH2 0x1069 JUMP JUMPDEST PUSH2 0x73F JUMP JUMPDEST PUSH1 0x40 MLOAD PUSH2 0x27C SWAP2 SWAP1 PUSH2 0x10B7 JUMP JUMPDEST PUSH1 0x40 MLOAD DUP1 SWAP2 SUB SWAP1 RETURN JUMPDEST CALLVALUE DUP1 ISZERO PUSH2 0x291 JUMPI PUSH1 0x0 DUP1 REVERT JUMPDEST POP PUSH2 0x29A PUSH2 0x786 JUMP JUMPDEST PUSH1 0x40 MLOAD PUSH2 0x2A7 SWAP2 SWAP1 PUSH2 0xDD8 JUMP JUMPDEST PUSH1 0x40 MLOAD DUP1 SWAP2 SUB SWAP1 RETURN JUMPDEST PUSH1 0x0 PUSH1 0x1 PUSH1 0x0 SWAP1 SLOAD SWAP1 PUSH2 0x100 EXP SWAP1 DIV PUSH20 0xFFFFFFFFFFFFFFFFFFFFFFFFFFFFFFFFFFFFFFFF AND SWAP1 POP SWAP1 JUMP JUMPDEST PUSH32 0x0 CALLVALUE LT ISZERO PUSH2 0x334 JUMPI PUSH1 0x40 MLOAD PUSH32 0x38C2C67E00000000000000000000000000000000000000000000000000000000 DUP2 MSTORE PUSH1 0x4 ADD PUSH1 0x40 MLOAD DUP1 SWAP2 SUB SWAP1 REVERT JUMPDEST PUSH1 0x0 PUSH1 0x1 DUP2 GT ISZERO PUSH2 0x348 JUMPI PUSH2 0x347 PUSH2 0xFD7 JUMP JUMPDEST JUMPDEST PUSH1 0x1 PUSH1 0x14 SWAP1 SLOAD SWAP1 PUSH2 0x100 EXP SWAP1 DIV PUSH1 0xFF AND PUSH1 0x1 DUP2 GT ISZERO PUSH2 0x36A JUMPI PUSH2 0x369 PUSH2 0xFD7 JUMP JUMPDEST JUMPDEST EQ PUSH2 0x3AA JUMPI PUSH1 0x40 MLOAD PUSH32 0x8C379A000000000000000000000000000000000000000000000000000000000 DUP2 MSTORE PUSH1 0x4 ADD PUSH2 0x3A1 SWAP1 PUSH2 0x112F JUMP JUMPDEST PUSH1 0x40 MLOAD DUP1 SWAP2 SUB SWAP1 REVERT JUMPDEST PUSH1 0x0 CALLER SWAP1 DUP1 PUSH1 0x1 DUP2 SLOAD ADD DUP1 DUP3 SSTORE DUP1 SWAP2 POP POP PUSH1 0x1 SWAP1 SUB SWAP1 PUSH1 0x0 MSTORE PUSH1 0x20 PUSH1 0x0 KECCAK256 ADD PUSH1 0x0 SWAP1 SWAP2 SWAP1 SWAP2 SWAP1 SWAP2 PUSH2 0x100 EXP DUP2 SLOAD DUP2 PUSH20 0xFFFFFFFFFFFFFFFFFFFFFFFFFFFFFFFFFFFFFFFF MUL NOT AND SWAP1 DUP4 PUSH20 0xFFFFFFFFFFFFFFFFFFFFFFFFFFFFFFFFFFFFFFFF AND MUL OR SWAP1 SSTORE POP CALLER PUSH20 0xFFFFFFFFFFFFFFFFFFFFFFFFFFFFFFFFFFFFFFFF AND PUSH32 0x8ED6A7AFF9A00785197DEC230A172A32E2FDEA5473A74F7D0477BE4505554EF8 PUSH1 0x40 MLOAD PUSH1 0x40 MLOAD DUP1 SWAP2 SUB SWAP1 LOG2 JUMP JUMPDEST PUSH32 0x0 PUSH20 0xFFFFFFFFFFFFFFFFFFFFFFFFFFFFFFFFFFFFFFFF AND CALLER PUSH20 0xFFFFFFFFFFFFFFFFFFFFFFFFFFFFFFFFFFFFFFFF AND EQ PUSH2 0x504 JUMPI CALLER PUSH32 0x0 PUSH1 0x40 MLOAD PUSH32 0x1CF993F400000000000000000000000000000000000000000000000000000000 DUP2 MSTORE PUSH1 0x4 ADD PUSH2 0x4FB SWAP3 SWAP2 SWAP1 PUSH2 0x114F JUMP JUMPDEST PUSH1 0x40 MLOAD DUP1 SWAP2 SUB SWAP1 REVERT JUMPDEST PUSH2 0x50E DUP3 DUP3 PUSH2 0x7AE JUMP JUMPDEST POP POP JUMP JUMPDEST PUSH1 0x0 PUSH1 0x2 SLOAD SWAP1 POP SWAP1 JUMP JUMPDEST PUSH1 0x0 DUP1 DUP1 SLOAD SWAP1 POP SWAP1 POP SWAP1 JUMP JUMPDEST PUSH1 0x0 PUSH1 0x1 SWAP1 POP SWAP1 JUMP JUMPDEST PUSH1 0x0 PUSH1 0x3 SWAP1 POP SWAP1 JUMP JUMPDEST PUSH2 0x542 PUSH2 0xA1F JUMP JUMPDEST PUSH2 0x5AD JUMPI SELFBALANCE PUSH1 0x0 DUP1 SLOAD SWAP1 POP PUSH1 0x1 PUSH1 0x14 SWAP1 SLOAD SWAP1 PUSH2 0x100 EXP SWAP1 DIV PUSH1 0xFF AND PUSH1 0x1 DUP2 GT ISZERO PUSH2 0x56F JUMPI PUSH2 0x56E PUSH2 0xFD7 JUMP JUMPDEST JUMPDEST PUSH1 0x40 MLOAD PUSH32 0xEEE093DA00000000000000000000000000000000000000000000000000000000 DUP2 MSTORE PUSH1 0x4 ADD PUSH2 0x5A4 SWAP4 SWAP3 SWAP2 SWAP1 PUSH2 0x1178 JUMP JUMPDEST PUSH1 0x40 MLOAD DUP1 SWAP2 SUB SWAP1 REVERT JUMPDEST PUSH1 0x1 DUP1 PUSH1 0x14 PUSH2 0x100 EXP DUP2 SLOAD DUP2 PUSH1 0xFF MUL NOT AND SWAP1 DUP4 PUSH1 0x1 DUP2 GT ISZERO PUSH2 0x5D2 JUMPI PUSH2 0x5D1 PUSH2 0xFD7 JUMP JUMPDEST JUMPDEST MUL OR SWAP1 SSTORE POP PUSH1 0x0 PUSH32 0x0 PUSH20 0xFFFFFFFFFFFFFFFFFFFFFFFFFFFFFFFFFFFFFFFF AND PUSH4 0x5D3B1D30 PUSH32 0x0 PUSH32 0x0 PUSH1 0x3 PUSH32 0x0 PUSH1 0x1 PUSH1 0x40 MLOAD DUP7 PUSH4 0xFFFFFFFF AND PUSH1 0xE0 SHL DUP2 MSTORE PUSH1 0x4 ADD PUSH2 0x69C SWAP6 SWAP5 SWAP4 SWAP3 SWAP2 SWAP1 PUSH2 0x11EB JUMP JUMPDEST PUSH1 0x20 PUSH1 0x40 MLOAD DUP1 DUP4 SUB DUP2 PUSH1 0x0 DUP8 GAS CALL ISZERO DUP1 ISZERO PUSH2 0x6BB JUMPI RETURNDATASIZE PUSH1 0x0 DUP1 RETURNDATACOPY RETURNDATASIZE PUSH1 0x0 REVERT JUMPDEST POP POP POP POP PUSH1 0x40 MLOAD RETURNDATASIZE PUSH1 0x1F NOT PUSH1 0x1F DUP3 ADD AND DUP3 ADD DUP1 PUSH1 0x40 MSTORE POP DUP2 ADD SWAP1 PUSH2 0x6DF SWAP2 SWAP1 PUSH2 0x1253 JUMP JUMPDEST SWAP1 POP DUP1 PUSH32 0x9CD72631871DFF14BBC84976A39C2BCA5D943F61F72884A8F331A889778F2C31 PUSH1 0x40 MLOAD PUSH1 0x40 MLOAD DUP1 SWAP2 SUB SWAP1 LOG2 POP POP POP JUMP JUMPDEST PUSH1 0x0 PUSH1 0x60 PUSH2 0x71F PUSH2 0xA1F JUMP JUMPDEST SWAP2 POP SWAP3 POP SWAP3 SWAP1 POP JUMP JUMPDEST PUSH1 0x0 PUSH1 0x1 PUSH1 0x14 SWAP1 SLOAD SWAP1 PUSH2 0x100 EXP SWAP1 DIV PUSH1 0xFF AND SWAP1 POP SWAP1 JUMP JUMPDEST PUSH1 0x0 DUP1 DUP3 DUP2 SLOAD DUP2 LT PUSH2 0x754 JUMPI PUSH2 0x753 PUSH2 0x1280 JUMP JUMPDEST JUMPDEST SWAP1 PUSH1 0x0 MSTORE PUSH1 0x20 PUSH1 0x0 KECCAK256 ADD PUSH1 0x0 SWAP1 SLOAD SWAP1 PUSH2 0x100 EXP SWAP1 DIV PUSH20 0xFFFFFFFFFFFFFFFFFFFFFFFFFFFFFFFFFFFFFFFF AND SWAP1 POP SWAP2 SWAP1 POP JUMP JUMPDEST PUSH1 0x0 PUSH32 0x0 SWAP1 POP SWAP1 JUMP JUMPDEST PUSH1 0x0 DUP1 DUP1 SLOAD SWAP1 POP DUP3 PUSH1 0x0 DUP2 MLOAD DUP2 LT PUSH2 0x7C9 JUMPI PUSH2 0x7C8 PUSH2 0x1280 JUMP JUMPDEST JUMPDEST PUSH1 0x20 MUL PUSH1 0x20 ADD ADD MLOAD PUSH2 0x7DB SWAP2 SWAP1 PUSH2 0x12DE JUMP JUMPDEST SWAP1 POP PUSH1 0x0 DUP1 DUP3 DUP2 SLOAD DUP2 LT PUSH2 0x7F2 JUMPI PUSH2 0x7F1 PUSH2 0x1280 JUMP JUMPDEST JUMPDEST SWAP1 PUSH1 0x0 MSTORE PUSH1 0x20 PUSH1 0x0 KECCAK256 ADD PUSH1 0x0 SWAP1 SLOAD SWAP1 PUSH2 0x100 EXP SWAP1 DIV PUSH20 0xFFFFFFFFFFFFFFFFFFFFFFFFFFFFFFFFFFFFFFFF AND SWAP1 POP DUP1 PUSH1 0x1 PUSH1 0x0 PUSH2 0x100 EXP DUP2 SLOAD DUP2 PUSH20 0xFFFFFFFFFFFFFFFFFFFFFFFFFFFFFFFFFFFFFFFF MUL NOT AND SWAP1 DUP4 PUSH20 0xFFFFFFFFFFFFFFFFFFFFFFFFFFFFFFFFFFFFFFFF AND MUL OR SWAP1 SSTORE POP PUSH1 0x0 PUSH1 0x1 PUSH1 0x14 PUSH2 0x100 EXP DUP2 SLOAD DUP2 PUSH1 0xFF MUL NOT AND SWAP1 DUP4 PUSH1 0x1 DUP2 GT ISZERO PUSH2 0x886 JUMPI PUSH2 0x885 PUSH2 0xFD7 JUMP JUMPDEST JUMPDEST MUL OR SWAP1 SSTORE POP PUSH1 0x0 PUSH8 0xFFFFFFFFFFFFFFFF DUP2 GT ISZERO PUSH2 0x8A6 JUMPI PUSH2 0x8A5 PUSH2 0xC2A JUMP JUMPDEST JUMPDEST PUSH1 0x40 MLOAD SWAP1 DUP1 DUP3 MSTORE DUP1 PUSH1 0x20 MUL PUSH1 0x20 ADD DUP3 ADD PUSH1 0x40 MSTORE DUP1 ISZERO PUSH2 0x8D4 JUMPI DUP2 PUSH1 0x20 ADD PUSH1 0x20 DUP3 MUL DUP1 CALLDATASIZE DUP4 CALLDATACOPY DUP1 DUP3 ADD SWAP2 POP POP SWAP1 POP JUMPDEST POP PUSH1 0x0 SWAP1 DUP1 MLOAD SWAP1 PUSH1 0x20 ADD SWAP1 PUSH2 0x8EA SWAP3 SWAP2 SWAP1 PUSH2 0xAC7 JUMP JUMPDEST POP TIMESTAMP PUSH1 0x2 DUP2 SWAP1 SSTORE POP PUSH1 0x0 DUP2 PUSH20 0xFFFFFFFFFFFFFFFFFFFFFFFFFFFFFFFFFFFFFFFF AND SELFBALANCE PUSH1 0x40 MLOAD PUSH2 0x918 SWAP1 PUSH2 0x1340 JUMP JUMPDEST PUSH1 0x0 PUSH1 0x40 MLOAD DUP1 DUP4 SUB DUP2 DUP6 DUP8 GAS CALL SWAP3 POP POP POP RETURNDATASIZE DUP1 PUSH1 0x0 DUP2 EQ PUSH2 0x955 JUMPI PUSH1 0x40 MLOAD SWAP2 POP PUSH1 0x1F NOT PUSH1 0x3F RETURNDATASIZE ADD AND DUP3 ADD PUSH1 0x40 MSTORE RETURNDATASIZE DUP3 MSTORE RETURNDATASIZE PUSH1 0x0 PUSH1 0x20 DUP5 ADD RETURNDATACOPY PUSH2 0x95A JUMP JUMPDEST PUSH1 0x60 SWAP2 POP JUMPDEST POP POP SWAP1 POP DUP1 PUSH2 0x99E JUMPI PUSH1 0x40 MLOAD PUSH32 0x8C379A000000000000000000000000000000000000000000000000000000000 DUP2 MSTORE PUSH1 0x4 ADD PUSH2 0x995 SWAP1 PUSH2 0x13A1 JUMP JUMPDEST PUSH1 0x40 MLOAD DUP1 SWAP2 SUB SWAP1 REVERT JUMPDEST DUP1 PUSH2 0x9D5 JUMPI PUSH1 0x40 MLOAD PUSH32 0x6B56C6A300000000000000000000000000000000000000000000000000000000 DUP2 MSTORE PUSH1 0x4 ADD PUSH1 0x40 MLOAD DUP1 SWAP2 SUB SWAP1 REVERT JUMPDEST DUP2 PUSH20 0xFFFFFFFFFFFFFFFFFFFFFFFFFFFFFFFFFFFFFFFF AND PUSH32 0x7D5E0ACEF27DB2FE13C94BBDB66D614A8840FB82C920A1B9AADB5D6ACF3E7692 PUSH1 0x40 MLOAD PUSH1 0x40 MLOAD DUP1 SWAP2 SUB SWAP1 LOG2 POP POP POP POP POP JUMP JUMPDEST PUSH1 0x0 DUP1 PUSH1 0x1 PUSH1 0x14 SWAP1 SLOAD SWAP1 PUSH2 0x100 EXP SWAP1 DIV PUSH1 0xFF AND PUSH1 0x1 DUP2 GT ISZERO PUSH2 0xA44 JUMPI PUSH2 0xA43 PUSH2 0xFD7 JUMP JUMPDEST JUMPDEST PUSH1 0x0 PUSH1 0x1 DUP2 GT ISZERO PUSH2 0xA58 JUMPI PUSH2 0xA57 PUSH2 0xFD7 JUMP JUMPDEST JUMPDEST EQ SWAP1 POP PUSH1 0x0 PUSH32 0x0 PUSH1 0x2 SLOAD TIMESTAMP PUSH2 0xA8C SWAP2 SWAP1 PUSH2 0x13F0 JUMP JUMPDEST GT SWAP1 POP PUSH1 0x0 DUP1 PUSH1 0x0 DUP1 SLOAD SWAP1 POP GT SWAP1 POP PUSH1 0x0 DUP1 SELFBALANCE GT SWAP1 POP DUP4 DUP1 ISZERO PUSH2 0xAAC JUMPI POP DUP3 JUMPDEST DUP1 ISZERO PUSH2 0xAB5 JUMPI POP DUP2 JUMPDEST DUP1 ISZERO PUSH2 0xABE JUMPI POP DUP1 JUMPDEST SWAP5 POP POP POP POP POP SWAP1 JUMP JUMPDEST DUP3 DUP1 SLOAD DUP3 DUP3 SSTORE SWAP1 PUSH1 0x0 MSTORE PUSH1 0x20 PUSH1 0x0 KECCAK256 SWAP1 DUP2 ADD SWAP3 DUP3 ISZERO PUSH2 0xB40 JUMPI SWAP2 PUSH1 0x20 MUL DUP3 ADD JUMPDEST DUP3 DUP2 GT ISZERO PUSH2 0xB3F JUMPI DUP3 MLOAD DUP3 PUSH1 0x0 PUSH2 0x100 EXP DUP2 SLOAD DUP2 PUSH20 0xFFFFFFFFFFFFFFFFFFFFFFFFFFFFFFFFFFFFFFFF MUL NOT AND SWAP1 DUP4 PUSH20 0xFFFFFFFFFFFFFFFFFFFFFFFFFFFFFFFFFFFFFFFF AND MUL OR SWAP1 SSTORE POP SWAP2 PUSH1 0x20 ADD SWAP2 SWAP1 PUSH1 0x1 ADD SWAP1 PUSH2 0xAE7 JUMP JUMPDEST JUMPDEST POP SWAP1 POP PUSH2 0xB4D SWAP2 SWAP1 PUSH2 0xB51 JUMP JUMPDEST POP SWAP1 JUMP JUMPDEST JUMPDEST DUP1 DUP3 GT ISZERO PUSH2 0xB6A JUMPI PUSH1 0x0 DUP2 PUSH1 0x0 SWAP1 SSTORE POP PUSH1 0x1 ADD PUSH2 0xB52 JUMP JUMPDEST POP SWAP1 JUMP JUMPDEST PUSH1 0x0 PUSH20 0xFFFFFFFFFFFFFFFFFFFFFFFFFFFFFFFFFFFFFFFF DUP3 AND SWAP1 POP SWAP2 SWAP1 POP JUMP JUMPDEST PUSH1 0x0 PUSH2 0xB99 DUP3 PUSH2 0xB6E JUMP JUMPDEST SWAP1 POP SWAP2 SWAP1 POP JUMP JUMPDEST PUSH2 0xBA9 DUP2 PUSH2 0xB8E JUMP JUMPDEST DUP3 MSTORE POP POP JUMP JUMPDEST PUSH1 0x0 PUSH1 0x20 DUP3 ADD SWAP1 POP PUSH2 0xBC4 PUSH1 0x0 DUP4 ADD DUP5 PUSH2 0xBA0 JUMP JUMPDEST SWAP3 SWAP2 POP POP JUMP JUMPDEST PUSH1 0x0 PUSH1 0x40 MLOAD SWAP1 POP SWAP1 JUMP JUMPDEST PUSH1 0x0 DUP1 REVERT JUMPDEST PUSH1 0x0 DUP1 REVERT JUMPDEST PUSH1 0x0 DUP2 SWAP1 POP SWAP2 SWAP1 POP JUMP JUMPDEST PUSH2 0xBF1 DUP2 PUSH2 0xBDE JUMP JUMPDEST DUP2 EQ PUSH2 0xBFC JUMPI PUSH1 0x0 DUP1 REVERT JUMPDEST POP JUMP JUMPDEST PUSH1 0x0 DUP2 CALLDATALOAD SWAP1 POP PUSH2 0xC0E DUP2 PUSH2 0xBE8 JUMP JUMPDEST SWAP3 SWAP2 POP POP JUMP JUMPDEST PUSH1 0x0 DUP1 REVERT JUMPDEST PUSH1 0x0 PUSH1 0x1F NOT PUSH1 0x1F DUP4 ADD AND SWAP1 POP SWAP2 SWAP1 POP JUMP JUMPDEST PUSH32 0x4E487B7100000000000000000000000000000000000000000000000000000000 PUSH1 0x0 MSTORE PUSH1 0x41 PUSH1 0x4 MSTORE PUSH1 0x24 PUSH1 0x0 REVERT JUMPDEST PUSH2 0xC62 DUP3 PUSH2 0xC19 JUMP JUMPDEST DUP2 ADD DUP2 DUP2 LT PUSH8 0xFFFFFFFFFFFFFFFF DUP3 GT OR ISZERO PUSH2 0xC81 JUMPI PUSH2 0xC80 PUSH2 0xC2A JUMP JUMPDEST JUMPDEST DUP1 PUSH1 0x40 MSTORE POP POP POP JUMP JUMPDEST PUSH1 0x0 PUSH2 0xC94 PUSH2 0xBCA JUMP JUMPDEST SWAP1 POP PUSH2 0xCA0 DUP3 DUP3 PUSH2 0xC59 JUMP JUMPDEST SWAP2 SWAP1 POP JUMP JUMPDEST PUSH1 0x0 PUSH8 0xFFFFFFFFFFFFFFFF DUP3 GT ISZERO PUSH2 0xCC0 JUMPI PUSH2 0xCBF PUSH2 0xC2A JUMP JUMPDEST JUMPDEST PUSH1 0x20 DUP3 MUL SWAP1 POP PUSH1 0x20 DUP2 ADD SWAP1 POP SWAP2 SWAP1 POP JUMP JUMPDEST PUSH1 0x0 DUP1 REVERT JUMPDEST PUSH1 0x0 PUSH2 0xCE9 PUSH2 0xCE4 DUP5 PUSH2 0xCA5 JUMP JUMPDEST PUSH2 0xC8A JUMP JUMPDEST SWAP1 POP DUP1 DUP4 DUP3 MSTORE PUSH1 0x20 DUP3 ADD SWAP1 POP PUSH1 0x20 DUP5 MUL DUP4 ADD DUP6 DUP2 GT ISZERO PUSH2 0xD0C JUMPI PUSH2 0xD0B PUSH2 0xCD1 JUMP JUMPDEST JUMPDEST DUP4 JUMPDEST DUP2 DUP2 LT ISZERO PUSH2 0xD35 JUMPI DUP1 PUSH2 0xD21 DUP9 DUP3 PUSH2 0xBFF JUMP JUMPDEST DUP5 MSTORE PUSH1 0x20 DUP5 ADD SWAP4 POP POP PUSH1 0x20 DUP2 ADD SWAP1 POP PUSH2 0xD0E JUMP JUMPDEST POP POP POP SWAP4 SWAP3 POP POP POP JUMP JUMPDEST PUSH1 0x0 DUP3 PUSH1 0x1F DUP4 ADD SLT PUSH2 0xD54 JUMPI PUSH2 0xD53 PUSH2 0xC14 JUMP JUMPDEST JUMPDEST DUP2 CALLDATALOAD PUSH2 0xD64 DUP5 DUP3 PUSH1 0x20 DUP7 ADD PUSH2 0xCD6 JUMP JUMPDEST SWAP2 POP POP SWAP3 SWAP2 POP POP JUMP JUMPDEST PUSH1 0x0 DUP1 PUSH1 0x40 DUP4 DUP6 SUB SLT ISZERO PUSH2 0xD84 JUMPI PUSH2 0xD83 PUSH2 0xBD4 JUMP JUMPDEST JUMPDEST PUSH1 0x0 PUSH2 0xD92 DUP6 DUP3 DUP7 ADD PUSH2 0xBFF JUMP JUMPDEST SWAP3 POP POP PUSH1 0x20 DUP4 ADD CALLDATALOAD PUSH8 0xFFFFFFFFFFFFFFFF DUP2 GT ISZERO PUSH2 0xDB3 JUMPI PUSH2 0xDB2 PUSH2 0xBD9 JUMP JUMPDEST JUMPDEST PUSH2 0xDBF DUP6 DUP3 DUP7 ADD PUSH2 0xD3F JUMP JUMPDEST SWAP2 POP POP SWAP3 POP SWAP3 SWAP1 POP JUMP JUMPDEST PUSH2 0xDD2 DUP2 PUSH2 0xBDE JUMP JUMPDEST DUP3 MSTORE POP POP JUMP JUMPDEST PUSH1 0x0 PUSH1 0x20 DUP3 ADD SWAP1 POP PUSH2 0xDED PUSH1 0x0 DUP4 ADD DUP5 PUSH2 0xDC9 JUMP JUMPDEST SWAP3 SWAP2 POP POP JUMP JUMPDEST PUSH1 0x0 PUSH4 0xFFFFFFFF DUP3 AND SWAP1 POP SWAP2 SWAP1 POP JUMP JUMPDEST PUSH2 0xE0C DUP2 PUSH2 0xDF3 JUMP JUMPDEST DUP3 MSTORE POP POP JUMP JUMPDEST PUSH1 0x0 PUSH1 0x20 DUP3 ADD SWAP1 POP PUSH2 0xE27 PUSH1 0x0 DUP4 ADD DUP5 PUSH2 0xE03 JUMP JUMPDEST SWAP3 SWAP2 POP POP JUMP JUMPDEST PUSH1 0x0 PUSH2 0xFFFF DUP3 AND SWAP1 POP SWAP2 SWAP1 POP JUMP JUMPDEST PUSH2 0xE44 DUP2 PUSH2 0xE2D JUMP JUMPDEST DUP3 MSTORE POP POP JUMP JUMPDEST PUSH1 0x0 PUSH1 0x20 DUP3 ADD SWAP1 POP PUSH2 0xE5F PUSH1 0x0 DUP4 ADD DUP5 PUSH2 0xE3B JUMP JUMPDEST SWAP3 SWAP2 POP POP JUMP JUMPDEST PUSH1 0x0 DUP1 REVERT JUMPDEST PUSH1 0x0 DUP1 DUP4 PUSH1 0x1F DUP5 ADD SLT PUSH2 0xE80 JUMPI PUSH2 0xE7F PUSH2 0xC14 JUMP JUMPDEST JUMPDEST DUP3 CALLDATALOAD SWAP1 POP PUSH8 0xFFFFFFFFFFFFFFFF DUP2 GT ISZERO PUSH2 0xE9D JUMPI PUSH2 0xE9C PUSH2 0xE65 JUMP JUMPDEST JUMPDEST PUSH1 0x20 DUP4 ADD SWAP2 POP DUP4 PUSH1 0x1 DUP3 MUL DUP4 ADD GT ISZERO PUSH2 0xEB9 JUMPI PUSH2 0xEB8 PUSH2 0xCD1 JUMP JUMPDEST JUMPDEST SWAP3 POP SWAP3 SWAP1 POP JUMP JUMPDEST PUSH1 0x0 DUP1 PUSH1 0x20 DUP4 DUP6 SUB SLT ISZERO PUSH2 0xED7 JUMPI PUSH2 0xED6 PUSH2 0xBD4 JUMP JUMPDEST JUMPDEST PUSH1 0x0 DUP4 ADD CALLDATALOAD PUSH8 0xFFFFFFFFFFFFFFFF DUP2 GT ISZERO PUSH2 0xEF5 JUMPI PUSH2 0xEF4 PUSH2 0xBD9 JUMP JUMPDEST JUMPDEST PUSH2 0xF01 DUP6 DUP3 DUP7 ADD PUSH2 0xE6A JUMP JUMPDEST SWAP3 POP SWAP3 POP POP SWAP3 POP SWAP3 SWAP1 POP JUMP JUMPDEST PUSH1 0x0 DUP2 ISZERO ISZERO SWAP1 POP SWAP2 SWAP1 POP JUMP JUMPDEST PUSH2 0xF22 DUP2 PUSH2 0xF0D JUMP JUMPDEST DUP3 MSTORE POP POP JUMP JUMPDEST PUSH1 0x0 DUP2 MLOAD SWAP1 POP SWAP2 SWAP1 POP JUMP JUMPDEST PUSH1 0x0 DUP3 DUP3 MSTORE PUSH1 0x20 DUP3 ADD SWAP1 POP SWAP3 SWAP2 POP POP JUMP JUMPDEST PUSH1 0x0 JUMPDEST DUP4 DUP2 LT ISZERO PUSH2 0xF62 JUMPI DUP1 DUP3 ADD MLOAD DUP2 DUP5 ADD MSTORE PUSH1 0x20 DUP2 ADD SWAP1 POP PUSH2 0xF47 JUMP JUMPDEST PUSH1 0x0 DUP5 DUP5 ADD MSTORE POP POP POP POP JUMP JUMPDEST PUSH1 0x0 PUSH2 0xF79 DUP3 PUSH2 0xF28 JUMP JUMPDEST PUSH2 0xF83 DUP2 DUP6 PUSH2 0xF33 JUMP JUMPDEST SWAP4 POP PUSH2 0xF93 DUP2 DUP6 PUSH1 0x20 DUP7 ADD PUSH2 0xF44 JUMP JUMPDEST PUSH2 0xF9C DUP2 PUSH2 0xC19 JUMP JUMPDEST DUP5 ADD SWAP2 POP POP SWAP3 SWAP2 POP POP JUMP JUMPDEST PUSH1 0x0 PUSH1 0x40 DUP3 ADD SWAP1 POP PUSH2 0xFBC PUSH1 0x0 DUP4 ADD DUP6 PUSH2 0xF19 JUMP JUMPDEST DUP2 DUP2 SUB PUSH1 0x20 DUP4 ADD MSTORE PUSH2 0xFCE DUP2 DUP5 PUSH2 0xF6E JUMP JUMPDEST SWAP1 POP SWAP4 SWAP3 POP POP POP JUMP JUMPDEST PUSH32 0x4E487B7100000000000000000000000000000000000000000000000000000000 PUSH1 0x0 MSTORE PUSH1 0x21 PUSH1 0x4 MSTORE PUSH1 0x24 PUSH1 0x0 REVERT JUMPDEST PUSH1 0x2 DUP2 LT PUSH2 0x1017 JUMPI PUSH2 0x1016 PUSH2 0xFD7 JUMP JUMPDEST JUMPDEST POP JUMP JUMPDEST PUSH1 0x0 DUP2 SWAP1 POP PUSH2 0x1028 DUP3 PUSH2 0x1006 JUMP JUMPDEST SWAP2 SWAP1 POP JUMP JUMPDEST PUSH1 0x0 PUSH2 0x1038 DUP3 PUSH2 0x101A JUMP JUMPDEST SWAP1 POP SWAP2 SWAP1 POP JUMP JUMPDEST PUSH2 0x1048 DUP2 PUSH2 0x102D JUMP JUMPDEST DUP3 MSTORE POP POP JUMP JUMPDEST PUSH1 0x0 PUSH1 0x20 DUP3 ADD SWAP1 POP PUSH2 0x1063 PUSH1 0x0 DUP4 ADD DUP5 PUSH2 0x103F JUMP JUMPDEST SWAP3 SWAP2 POP POP JUMP JUMPDEST PUSH1 0x0 PUSH1 0x20 DUP3 DUP5 SUB SLT ISZERO PUSH2 0x107F JUMPI PUSH2 0x107E PUSH2 0xBD4 JUMP JUMPDEST JUMPDEST PUSH1 0x0 PUSH2 0x108D DUP5 DUP3 DUP6 ADD PUSH2 0xBFF JUMP JUMPDEST SWAP2 POP POP SWAP3 SWAP2 POP POP JUMP JUMPDEST PUSH1 0x0 PUSH2 0x10A1 DUP3 PUSH2 0xB6E JUMP JUMPDEST SWAP1 POP SWAP2 SWAP1 POP JUMP JUMPDEST PUSH2 0x10B1 DUP2 PUSH2 0x1096 JUMP JUMPDEST DUP3 MSTORE POP POP JUMP JUMPDEST PUSH1 0x0 PUSH1 0x20 DUP3 ADD SWAP1 POP PUSH2 0x10CC PUSH1 0x0 DUP4 ADD DUP5 PUSH2 0x10A8 JUMP JUMPDEST SWAP3 SWAP2 POP POP JUMP JUMPDEST PUSH1 0x0 DUP3 DUP3 MSTORE PUSH1 0x20 DUP3 ADD SWAP1 POP SWAP3 SWAP2 POP POP JUMP JUMPDEST PUSH32 0x52616666656C206973206E6F74206F70656E0000000000000000000000000000 PUSH1 0x0 DUP3 ADD MSTORE POP JUMP JUMPDEST PUSH1 0x0 PUSH2 0x1119 PUSH1 0x12 DUP4 PUSH2 0x10D2 JUMP JUMPDEST SWAP2 POP PUSH2 0x1124 DUP3 PUSH2 0x10E3 JUMP JUMPDEST PUSH1 0x20 DUP3 ADD SWAP1 POP SWAP2 SWAP1 POP JUMP JUMPDEST PUSH1 0x0 PUSH1 0x20 DUP3 ADD SWAP1 POP DUP2 DUP2 SUB PUSH1 0x0 DUP4 ADD MSTORE PUSH2 0x1148 DUP2 PUSH2 0x110C JUMP JUMPDEST SWAP1 POP SWAP2 SWAP1 POP JUMP JUMPDEST PUSH1 0x0 PUSH1 0x40 DUP3 ADD SWAP1 POP PUSH2 0x1164 PUSH1 0x0 DUP4 ADD DUP6 PUSH2 0xBA0 JUMP JUMPDEST PUSH2 0x1171 PUSH1 0x20 DUP4 ADD DUP5 PUSH2 0xBA0 JUMP JUMPDEST SWAP4 SWAP3 POP POP POP JUMP JUMPDEST PUSH1 0x0 PUSH1 0x60 DUP3 ADD SWAP1 POP PUSH2 0x118D PUSH1 0x0 DUP4 ADD DUP7 PUSH2 0xDC9 JUMP JUMPDEST PUSH2 0x119A PUSH1 0x20 DUP4 ADD DUP6 PUSH2 0xDC9 JUMP JUMPDEST PUSH2 0x11A7 PUSH1 0x40 DUP4 ADD DUP5 PUSH2 0xDC9 JUMP JUMPDEST SWAP5 SWAP4 POP POP POP POP JUMP JUMPDEST PUSH1 0x0 DUP2 SWAP1 POP SWAP2 SWAP1 POP JUMP JUMPDEST PUSH2 0x11C2 DUP2 PUSH2 0x11AF JUMP JUMPDEST DUP3 MSTORE POP POP JUMP JUMPDEST PUSH1 0x0 PUSH8 0xFFFFFFFFFFFFFFFF DUP3 AND SWAP1 POP SWAP2 SWAP1 POP JUMP JUMPDEST PUSH2 0x11E5 DUP2 PUSH2 0x11C8 JUMP JUMPDEST DUP3 MSTORE POP POP JUMP JUMPDEST PUSH1 0x0 PUSH1 0xA0 DUP3 ADD SWAP1 POP PUSH2 0x1200 PUSH1 0x0 DUP4 ADD DUP9 PUSH2 0x11B9 JUMP JUMPDEST PUSH2 0x120D PUSH1 0x20 DUP4 ADD DUP8 PUSH2 0x11DC JUMP JUMPDEST PUSH2 0x121A PUSH1 0x40 DUP4 ADD DUP7 PUSH2 0xE3B JUMP JUMPDEST PUSH2 0x1227 PUSH1 0x60 DUP4 ADD DUP6 PUSH2 0xE03 JUMP JUMPDEST PUSH2 0x1234 PUSH1 0x80 DUP4 ADD DUP5 PUSH2 0xE03 JUMP JUMPDEST SWAP7 SWAP6 POP POP POP POP POP POP JUMP JUMPDEST PUSH1 0x0 DUP2 MLOAD SWAP1 POP PUSH2 0x124D DUP2 PUSH2 0xBE8 JUMP JUMPDEST SWAP3 SWAP2 POP POP JUMP JUMPDEST PUSH1 0x0 PUSH1 0x20 DUP3 DUP5 SUB SLT ISZERO PUSH2 0x1269 JUMPI PUSH2 0x1268 PUSH2 0xBD4 JUMP JUMPDEST JUMPDEST PUSH1 0x0 PUSH2 0x1277 DUP5 DUP3 DUP6 ADD PUSH2 0x123E JUMP JUMPDEST SWAP2 POP POP SWAP3 SWAP2 POP POP JUMP JUMPDEST PUSH32 0x4E487B7100000000000000000000000000000000000000000000000000000000 PUSH1 0x0 MSTORE PUSH1 0x32 PUSH1 0x4 MSTORE PUSH1 0x24 PUSH1 0x0 REVERT JUMPDEST PUSH32 0x4E487B7100000000000000000000000000000000000000000000000000000000 PUSH1 0x0 MSTORE PUSH1 0x12 PUSH1 0x4 MSTORE PUSH1 0x24 PUSH1 0x0 REVERT JUMPDEST PUSH1 0x0 PUSH2 0x12E9 DUP3 PUSH2 0xBDE JUMP JUMPDEST SWAP2 POP PUSH2 0x12F4 DUP4 PUSH2 0xBDE JUMP JUMPDEST SWAP3 POP DUP3 PUSH2 0x1304 JUMPI PUSH2 0x1303 PUSH2 0x12AF JUMP JUMPDEST JUMPDEST DUP3 DUP3 MOD SWAP1 POP SWAP3 SWAP2 POP POP JUMP JUMPDEST PUSH1 0x0 DUP2 SWAP1 POP SWAP3 SWAP2 POP POP JUMP JUMPDEST POP JUMP JUMPDEST PUSH1 0x0 PUSH2 0x132A PUSH1 0x0 DUP4 PUSH2 0x130F JUMP JUMPDEST SWAP2 POP PUSH2 0x1335 DUP3 PUSH2 0x131A JUMP JUMPDEST PUSH1 0x0 DUP3 ADD SWAP1 POP SWAP2 SWAP1 POP JUMP JUMPDEST PUSH1 0x0 PUSH2 0x134B DUP3 PUSH2 0x131D JUMP JUMPDEST SWAP2 POP DUP2 SWAP1 POP SWAP2 SWAP1 POP JUMP JUMPDEST PUSH32 0x5472616E73666572206661696C65640000000000000000000000000000000000 PUSH1 0x0 DUP3 ADD MSTORE POP JUMP JUMPDEST PUSH1 0x0 PUSH2 0x138B PUSH1 0xF DUP4 PUSH2 0x10D2 JUMP JUMPDEST SWAP2 POP PUSH2 0x1396 DUP3 PUSH2 0x1355 JUMP JUMPDEST PUSH1 0x20 DUP3 ADD SWAP1 POP SWAP2 SWAP1 POP JUMP JUMPDEST PUSH1 0x0 PUSH1 0x20 DUP3 ADD SWAP1 POP DUP2 DUP2 SUB PUSH1 0x0 DUP4 ADD MSTORE PUSH2 0x13BA DUP2 PUSH2 0x137E JUMP JUMPDEST SWAP1 POP SWAP2 SWAP1 POP JUMP JUMPDEST PUSH32 0x4E487B7100000000000000000000000000000000000000000000000000000000 PUSH1 0x0 MSTORE PUSH1 0x11 PUSH1 0x4 MSTORE PUSH1 0x24 PUSH1 0x0 REVERT JUMPDEST PUSH1 0x0 PUSH2 0x13FB DUP3 PUSH2 0xBDE JUMP JUMPDEST SWAP2 POP PUSH2 0x1406 DUP4 PUSH2 0xBDE JUMP JUMPDEST SWAP3 POP DUP3 DUP3 SUB SWAP1 POP DUP2 DUP2 GT ISZERO PUSH2 0x141E JUMPI PUSH2 0x141D PUSH2 0x13C1 JUMP JUMPDEST JUMPDEST SWAP3 SWAP2 POP POP JUMP INVALID LOG2 PUSH5 0x6970667358 0x22 SLT KECCAK256 TLOAD PUSH15 0x5F6B0D59259A16E23BBF87B085C719 0xD0 CREATE2 NUMBER PUSH26 0xCA0C4176DD2FA3742C5E7364736F6C634300081C003300000000 "},"gasEstimates":{"creation":{"codeDepositCost":"1042000","executionCost":"infinite","totalCost":"infinite"},"external":{"checkUpkeep(bytes)":"infinite","enterRaffel()":"infinite","gertRecentWinner()":"2523","getEntryFee()":"infinite","getLatestTimeStamp()":"2504","getNumWords()":"454","getNumberofPlayers()":"2534","getPlayer(uint256)":"5055","getRaffelState()":"2684","getRequestConfirmations()":"343","performUpKeep(bytes)":"infinite","rawFulfillRandomWords(uint256,uint256[])":"infinite"},"internal":{"checkUpkeepLogic()":"infinite","fulfillRandomWords(uint256,uint256[] memory)":"infinite"}},"methodIdentifiers":{"checkUpkeep(bytes)":"6e04ff0d","enterRaffel()":"0ff19fd7","gertRecentWinner()":"0b6831e5","getEntryFee()":"e586a4f0","getLatestTimeStamp()":"320229eb","getNumWords()":"53a2c19a","getNumberofPlayers()":"49a706ce","getPlayer(uint256)":"e55ae4e8","getRaffelState()":"8a78da41","getRequestConfirmations()":"5f1b0fd8","performUpKeep(bytes)":"6c7c8f17","rawFulfillRandomWords(uint256,uint256[])":"1fe543e3"}},"storageLayout":{"storage":[{"astId":198,"contract":"contracts/Raffel.sol:Raffel","label":"s_players","offset":0,"slot":"0","type":"t_array(t_address_payable)dyn_storage"},{"astId":216,"contract":"contracts/Raffel.sol:Raffel","label":"s_recentWinner","offset":0,"slot":"1","type":"t_address"},{"astId":219,"contract":"contracts/Raffel.sol:Raffel","label":"s_raffelState","offset":20,"slot":"1","type":"t_enum(RaffelState)226"},{"astId":221,"contract":"contracts/Raffel.sol:Raffel","label":"s_lastTimeStamp","offset":0,"slot":"2","type":"t_uint256"}],"types":{"t_address":{"encoding":"inplace","label":"address","numberOfBytes":"20"},"t_address_payable":{"encoding":"inplace","label":"address payable","numberOfBytes":"20"},"t_array(t_address_payable)dyn_storage":{"base":"t_address_payable","encoding":"dynamic_array","label":"address payable[]","numberOfBytes":"32"},"t_enum(RaffelState)226":{"encoding":"inplace","label":"enum Raffel.RaffelState","numberOfBytes":"1"},"t_uint256":{"encoding":"inplace","label":"uint256","numberOfBytes":"32"}}},"userdoc":{"kind":"user","methods":{},"version":1}}}}