{"contracts/Raffel.sol":{"Raffel":{"abi":[{"inputs":[{"internalType":"uint256","name":"entryFee","type":"uint256"},{"internalType":"address","name":"vrfCoordinator","type":"address"},{"internalType":"bytes32","name":"gasLane","type":"bytes32"},{"internalType":"uint64","name":"subscriptionId","type":"uint64"},{"internalType":"uint32","name":"callbackGasLimit","type":"uint32"},{"internalType":"uint256","name":"interval","type":"uint256"}],"stateMutability":"nonpayable","type":"constructor"},{"inputs":[{"internalType":"address","name":"have","type":"address"},{"internalType":"address","name":"want","type":"address"}],"name":"OnlyCoordinatorCanFulfill","type":"error"},{"inputs":[],"name":"Raffel_NotOpen","type":"error"},{"inputs":[],"name":"Raffel_TransferFailed","type":"error"},{"inputs":[{"internalType":"uint256","name":"currentBalance","type":"uint256"},{"internalType":"uint256","name":"numPlayers","type":"uint256"},{"internalType":"uint256","name":"raffelState","type":"uint256"}],"name":"Raffel_UpkeepNotNeeded","type":"error"},{"anonymous":false,"inputs":[{"indexed":true,"internalType":"address","name":"player","type":"address"}],"name":"RaffelEntered","type":"event"},{"anonymous":false,"inputs":[{"indexed":true,"internalType":"address","name":"winner","type":"address"}],"name":"RaffelWinnerPicked","type":"event"},{"anonymous":false,"inputs":[{"indexed":true,"internalType":"uint256","name":"requestId","type":"uint256"}],"name":"RequestedRaffelWinner","type":"event"},{"inputs":[{"internalType":"bytes","name":"","type":"bytes"}],"name":"checkUpkeep","outputs":[{"internalType":"bool","name":"upkeepNeeded","type":"bool"},{"internalType":"bytes","name":"","type":"bytes"}],"stateMutability":"view","type":"function"},{"inputs":[],"name":"enterRaffel","outputs":[],"stateMutability":"payable","type":"function"},{"inputs":[],"name":"gertRecentWinner","outputs":[{"internalType":"address","name":"","type":"address"}],"stateMutability":"view","type":"function"},{"inputs":[],"name":"getEntryFee","outputs":[{"internalType":"uint256","name":"","type":"uint256"}],"stateMutability":"view","type":"function"},{"inputs":[],"name":"getNumWords","outputs":[{"internalType":"uint32","name":"","type":"uint32"}],"stateMutability":"pure","type":"function"},{"inputs":[{"internalType":"uint256","name":"index","type":"uint256"}],"name":"getPlayer","outputs":[{"internalType":"address payable","name":"","type":"address"}],"stateMutability":"view","type":"function"},{"inputs":[],"name":"getRaffelState","outputs":[{"internalType":"enum Raffel.RaffelState","name":"","type":"uint8"}],"stateMutability":"view","type":"function"},{"inputs":[],"name":"getRequestConfirmations","outputs":[{"internalType":"uint16","name":"","type":"uint16"}],"stateMutability":"pure","type":"function"},{"inputs":[{"internalType":"bytes","name":"","type":"bytes"}],"name":"performUpKeep","outputs":[],"stateMutability":"nonpayable","type":"function"},{"inputs":[{"internalType":"uint256","name":"requestId","type":"uint256"},{"internalType":"uint256[]","name":"randomWords","type":"uint256[]"}],"name":"rawFulfillRandomWords","outputs":[],"stateMutability":"nonpayable","type":"function"}],"devdoc":{"kind":"dev","methods":{},"version":1},"evm":{"bytecode":{"linkReferences":{},"object":"610160604052620186a063ffffffff166101209063ffffffff1681525034801561002857600080fd5b50604051611783380380611783833981810160405281019061004a9190610287565b848073ffffffffffffffffffffffffffffffffffffffff1660808173ffffffffffffffffffffffffffffffffffffffff1681525050508560a081815250508473ffffffffffffffffffffffffffffffffffffffff1660c08173ffffffffffffffffffffffffffffffffffffffff16815250508360e081815250508267ffffffffffffffff166101008167ffffffffffffffff16815250508163ffffffff166101208163ffffffff16815250506000600160146101000a81548160ff0219169083600181111561011c5761011b610314565b5b021790555042600281905550806101408181525050505050505050610343565b600080fd5b6000819050919050565b61015481610141565b811461015f57600080fd5b50565b6000815190506101718161014b565b92915050565b600073ffffffffffffffffffffffffffffffffffffffff82169050919050565b60006101a282610177565b9050919050565b6101b281610197565b81146101bd57600080fd5b50565b6000815190506101cf816101a9565b92915050565b6000819050919050565b6101e8816101d5565b81146101f357600080fd5b50565b600081519050610205816101df565b92915050565b600067ffffffffffffffff82169050919050565b6102288161020b565b811461023357600080fd5b50565b6000815190506102458161021f565b92915050565b600063ffffffff82169050919050565b6102648161024b565b811461026f57600080fd5b50565b6000815190506102818161025b565b92915050565b60008060008060008060c087890312156102a4576102a361013c565b5b60006102b289828a01610162565b96505060206102c389828a016101c0565b95505060406102d489828a016101f6565b94505060606102e589828a01610236565b93505060806102f689828a01610272565b92505060a061030789828a01610162565b9150509295509295509295565b7f4e487b7100000000000000000000000000000000000000000000000000000000600052602160045260246000fd5b60805160a05160c05160e0516101005161012051610140516113d86103ab60003960006109dd015260006105d9015260006105b6015260006105950152600061055901526000818161027001526107080152600081816103e8015261043c01526113d86000f3fe6080604052600436106100915760003560e01c80636c7c8f17116100595780636c7c8f171461014a5780636e04ff0d146101735780638a78da41146101b1578063e55ae4e8146101dc578063e586a4f01461021957610091565b80630b6831e5146100965780630ff19fd7146100c15780631fe543e3146100cb57806353a2c19a146100f45780635f1b0fd81461011f575b600080fd5b3480156100a257600080fd5b506100ab610244565b6040516100b89190610b2d565b60405180910390f35b6100c961026e565b005b3480156100d757600080fd5b506100f260048036038101906100ed9190610ceb565b6103e6565b005b34801561010057600080fd5b506101096104a6565b6040516101169190610d66565b60405180910390f35b34801561012b57600080fd5b506101346104af565b6040516101419190610d9e565b60405180910390f35b34801561015657600080fd5b50610171600480360381019061016c9190610e14565b6104b8565b005b34801561017f57600080fd5b5061019a60048036038101906101959190610e14565b610691565b6040516101a8929190610efb565b60405180910390f35b3480156101bd57600080fd5b506101c66106a6565b6040516101d39190610fa2565b60405180910390f35b3480156101e857600080fd5b5061020360048036038101906101fe9190610fbd565b6106bd565b604051610210919061100b565b60405180910390f35b34801561022557600080fd5b5061022e610704565b60405161023b9190611035565b60405180910390f35b6000600160009054906101000a900473ffffffffffffffffffffffffffffffffffffffff16905090565b7f00000000000000000000000000000000000000000000000000000000000000003410156102c8576040517f38c2c67e00000000000000000000000000000000000000000000000000000000815260040160405180910390fd5b600060018111156102dc576102db610f2b565b5b600160149054906101000a900460ff1660018111156102fe576102fd610f2b565b5b1461033e576040517f08c379a0000000000000000000000000000000000000000000000000000000008152600401610335906110ad565b60405180910390fd5b6000339080600181540180825580915050600190039060005260206000200160009091909190916101000a81548173ffffffffffffffffffffffffffffffffffffffff021916908373ffffffffffffffffffffffffffffffffffffffff1602179055503373ffffffffffffffffffffffffffffffffffffffff167f8ed6a7aff9a00785197dec230a172a32e2fdea5473a74f7d0477be4505554ef860405160405180910390a2565b7f000000000000000000000000000000000000000000000000000000000000000073ffffffffffffffffffffffffffffffffffffffff163373ffffffffffffffffffffffffffffffffffffffff161461049857337f00000000000000000000000000000000000000000000000000000000000000006040517f1cf993f400000000000000000000000000000000000000000000000000000000815260040161048f9291906110cd565b60405180910390fd5b6104a2828261072c565b5050565b60006001905090565b60006003905090565b6104c061099d565b61052b5747600080549050600160149054906101000a900460ff1660018111156104ed576104ec610f2b565b5b6040517feee093da000000000000000000000000000000000000000000000000000000008152600401610522939291906110f6565b60405180910390fd5b60018060146101000a81548160ff021916908360018111156105505761054f610f2b565b5b021790555060007f000000000000000000000000000000000000000000000000000000000000000073ffffffffffffffffffffffffffffffffffffffff16635d3b1d307f00000000000000000000000000000000000000000000000000000000000000007f000000000000000000000000000000000000000000000000000000000000000060037f000000000000000000000000000000000000000000000000000000000000000060016040518663ffffffff1660e01b815260040161061a959493929190611169565b6020604051808303816000875af1158015610639573d6000803e3d6000fd5b505050506040513d601f19601f8201168201806040525081019061065d91906111d1565b9050807f9cd72631871dff14bbc84976a39c2bca5d943f61f72884a8f331a889778f2c3160405160405180910390a2505050565b6000606061069d61099d565b91509250929050565b6000600160149054906101000a900460ff16905090565b60008082815481106106d2576106d16111fe565b5b9060005260206000200160009054906101000a900473ffffffffffffffffffffffffffffffffffffffff169050919050565b60007f0000000000000000000000000000000000000000000000000000000000000000905090565b6000808054905082600081518110610747576107466111fe565b5b6020026020010151610759919061125c565b905060008082815481106107705761076f6111fe565b5b9060005260206000200160009054906101000a900473ffffffffffffffffffffffffffffffffffffffff16905080600160006101000a81548173ffffffffffffffffffffffffffffffffffffffff021916908373ffffffffffffffffffffffffffffffffffffffff1602179055506000600160146101000a81548160ff0219169083600181111561080457610803610f2b565b5b0217905550600067ffffffffffffffff81111561082457610823610ba8565b5b6040519080825280602002602001820160405280156108525781602001602082028036833780820191505090505b5060009080519060200190610868929190610a45565b504260028190555060008173ffffffffffffffffffffffffffffffffffffffff1647604051610896906112be565b60006040518083038185875af1925050503d80600081146108d3576040519150601f19603f3d011682016040523d82523d6000602084013e6108d8565b606091505b505090508061091c576040517f08c379a00000000000000000000000000000000000000000000000000000000081526004016109139061131f565b60405180910390fd5b80610953576040517f6b56c6a300000000000000000000000000000000000000000000000000000000815260040160405180910390fd5b8173ffffffffffffffffffffffffffffffffffffffff167f7d5e0acef27db2fe13c94bbdb66d614a8840fb82c920a1b9aadb5d6acf3e769260405160405180910390a25050505050565b600080600160149054906101000a900460ff1660018111156109c2576109c1610f2b565b5b600060018111156109d6576109d5610f2b565b5b14905060007f000000000000000000000000000000000000000000000000000000000000000060025442610a0a919061136e565b11905060008060008054905011905060008047119050838015610a2a5750825b8015610a335750815b8015610a3c5750805b94505050505090565b828054828255906000526020600020908101928215610abe579160200282015b82811115610abd5782518260006101000a81548173ffffffffffffffffffffffffffffffffffffffff021916908373ffffffffffffffffffffffffffffffffffffffff16021790555091602001919060010190610a65565b5b509050610acb9190610acf565b5090565b5b80821115610ae8576000816000905550600101610ad0565b5090565b600073ffffffffffffffffffffffffffffffffffffffff82169050919050565b6000610b1782610aec565b9050919050565b610b2781610b0c565b82525050565b6000602082019050610b426000830184610b1e565b92915050565b6000604051905090565b600080fd5b600080fd5b6000819050919050565b610b6f81610b5c565b8114610b7a57600080fd5b50565b600081359050610b8c81610b66565b92915050565b600080fd5b6000601f19601f8301169050919050565b7f4e487b7100000000000000000000000000000000000000000000000000000000600052604160045260246000fd5b610be082610b97565b810181811067ffffffffffffffff82111715610bff57610bfe610ba8565b5b80604052505050565b6000610c12610b48565b9050610c1e8282610bd7565b919050565b600067ffffffffffffffff821115610c3e57610c3d610ba8565b5b602082029050602081019050919050565b600080fd5b6000610c67610c6284610c23565b610c08565b90508083825260208201905060208402830185811115610c8a57610c89610c4f565b5b835b81811015610cb35780610c9f8882610b7d565b845260208401935050602081019050610c8c565b5050509392505050565b600082601f830112610cd257610cd1610b92565b5b8135610ce2848260208601610c54565b91505092915050565b60008060408385031215610d0257610d01610b52565b5b6000610d1085828601610b7d565b925050602083013567ffffffffffffffff811115610d3157610d30610b57565b5b610d3d85828601610cbd565b9150509250929050565b600063ffffffff82169050919050565b610d6081610d47565b82525050565b6000602082019050610d7b6000830184610d57565b92915050565b600061ffff82169050919050565b610d9881610d81565b82525050565b6000602082019050610db36000830184610d8f565b92915050565b600080fd5b60008083601f840112610dd457610dd3610b92565b5b8235905067ffffffffffffffff811115610df157610df0610db9565b5b602083019150836001820283011115610e0d57610e0c610c4f565b5b9250929050565b60008060208385031215610e2b57610e2a610b52565b5b600083013567ffffffffffffffff811115610e4957610e48610b57565b5b610e5585828601610dbe565b92509250509250929050565b60008115159050919050565b610e7681610e61565b82525050565b600081519050919050565b600082825260208201905092915050565b60005b83811015610eb6578082015181840152602081019050610e9b565b60008484015250505050565b6000610ecd82610e7c565b610ed78185610e87565b9350610ee7818560208601610e98565b610ef081610b97565b840191505092915050565b6000604082019050610f106000830185610e6d565b8181036020830152610f228184610ec2565b90509392505050565b7f4e487b7100000000000000000000000000000000000000000000000000000000600052602160045260246000fd5b60028110610f6b57610f6a610f2b565b5b50565b6000819050610f7c82610f5a565b919050565b6000610f8c82610f6e565b9050919050565b610f9c81610f81565b82525050565b6000602082019050610fb76000830184610f93565b92915050565b600060208284031215610fd357610fd2610b52565b5b6000610fe184828501610b7d565b91505092915050565b6000610ff582610aec565b9050919050565b61100581610fea565b82525050565b60006020820190506110206000830184610ffc565b92915050565b61102f81610b5c565b82525050565b600060208201905061104a6000830184611026565b92915050565b600082825260208201905092915050565b7f52616666656c206973206e6f74206f70656e0000000000000000000000000000600082015250565b6000611097601283611050565b91506110a282611061565b602082019050919050565b600060208201905081810360008301526110c68161108a565b9050919050565b60006040820190506110e26000830185610b1e565b6110ef6020830184610b1e565b9392505050565b600060608201905061110b6000830186611026565b6111186020830185611026565b6111256040830184611026565b949350505050565b6000819050919050565b6111408161112d565b82525050565b600067ffffffffffffffff82169050919050565b61116381611146565b82525050565b600060a08201905061117e6000830188611137565b61118b602083018761115a565b6111986040830186610d8f565b6111a56060830185610d57565b6111b26080830184610d57565b9695505050505050565b6000815190506111cb81610b66565b92915050565b6000602082840312156111e7576111e6610b52565b5b60006111f5848285016111bc565b91505092915050565b7f4e487b7100000000000000000000000000000000000000000000000000000000600052603260045260246000fd5b7f4e487b7100000000000000000000000000000000000000000000000000000000600052601260045260246000fd5b600061126782610b5c565b915061127283610b5c565b9250826112825761128161122d565b5b828206905092915050565b600081905092915050565b50565b60006112a860008361128d565b91506112b382611298565b600082019050919050565b60006112c98261129b565b9150819050919050565b7f5472616e73666572206661696c65640000000000000000000000000000000000600082015250565b6000611309600f83611050565b9150611314826112d3565b602082019050919050565b60006020820190508181036000830152611338816112fc565b9050919050565b7f4e487b7100000000000000000000000000000000000000000000000000000000600052601160045260246000fd5b600061137982610b5c565b915061138483610b5c565b925082820390508181111561139c5761139b61133f565b5b9291505056fea2646970667358221220e307202e97ac23f4a98c11370ff4a290bfd0e4fbc2911369a9f37653d005064f64736f6c634300081c0033","opcodes":"PUSH2 0x160 PUSH1 0x40 MSTORE PUSH3 0x186A0 PUSH4 0xFFFFFFFF AND PUSH2 0x120 SWAP1 PUSH4 0xFFFFFFFF AND DUP2 MSTORE POP CALLVALUE DUP1 ISZERO PUSH2 0x28 JUMPI PUSH1 0x0 DUP1 REVERT JUMPDEST POP PUSH1 0x40 MLOAD PUSH2 0x1783 CODESIZE SUB DUP1 PUSH2 0x1783 DUP4 CODECOPY DUP2 DUP2 ADD PUSH1 0x40 MSTORE DUP2 ADD SWAP1 PUSH2 0x4A SWAP2 SWAP1 PUSH2 0x287 JUMP JUMPDEST DUP5 DUP1 PUSH20 0xFFFFFFFFFFFFFFFFFFFFFFFFFFFFFFFFFFFFFFFF AND PUSH1 0x80 DUP2 PUSH20 0xFFFFFFFFFFFFFFFFFFFFFFFFFFFFFFFFFFFFFFFF AND DUP2 MSTORE POP POP POP DUP6 PUSH1 0xA0 DUP2 DUP2 MSTORE POP POP DUP5 PUSH20 0xFFFFFFFFFFFFFFFFFFFFFFFFFFFFFFFFFFFFFFFF AND PUSH1 0xC0 DUP2 PUSH20 0xFFFFFFFFFFFFFFFFFFFFFFFFFFFFFFFFFFFFFFFF AND DUP2 MSTORE POP POP DUP4 PUSH1 0xE0 DUP2 DUP2 MSTORE POP POP DUP3 PUSH8 0xFFFFFFFFFFFFFFFF AND PUSH2 0x100 DUP2 PUSH8 0xFFFFFFFFFFFFFFFF AND DUP2 MSTORE POP POP DUP2 PUSH4 0xFFFFFFFF AND PUSH2 0x120 DUP2 PUSH4 0xFFFFFFFF AND DUP2 MSTORE POP POP PUSH1 0x0 PUSH1 0x1 PUSH1 0x14 PUSH2 0x100 EXP DUP2 SLOAD DUP2 PUSH1 0xFF MUL NOT AND SWAP1 DUP4 PUSH1 0x1 DUP2 GT ISZERO PUSH2 0x11C JUMPI PUSH2 0x11B PUSH2 0x314 JUMP JUMPDEST JUMPDEST MUL OR SWAP1 SSTORE POP TIMESTAMP PUSH1 0x2 DUP2 SWAP1 SSTORE POP DUP1 PUSH2 0x140 DUP2 DUP2 MSTORE POP POP POP POP POP POP POP POP PUSH2 0x343 JUMP JUMPDEST PUSH1 0x0 DUP1 REVERT JUMPDEST PUSH1 0x0 DUP2 SWAP1 POP SWAP2 SWAP1 POP JUMP JUMPDEST PUSH2 0x154 DUP2 PUSH2 0x141 JUMP JUMPDEST DUP2 EQ PUSH2 0x15F JUMPI PUSH1 0x0 DUP1 REVERT JUMPDEST POP JUMP JUMPDEST PUSH1 0x0 DUP2 MLOAD SWAP1 POP PUSH2 0x171 DUP2 PUSH2 0x14B JUMP JUMPDEST SWAP3 SWAP2 POP POP JUMP JUMPDEST PUSH1 0x0 PUSH20 0xFFFFFFFFFFFFFFFFFFFFFFFFFFFFFFFFFFFFFFFF DUP3 AND SWAP1 POP SWAP2 SWAP1 POP JUMP JUMPDEST PUSH1 0x0 PUSH2 0x1A2 DUP3 PUSH2 0x177 JUMP JUMPDEST SWAP1 POP SWAP2 SWAP1 POP JUMP JUMPDEST PUSH2 0x1B2 DUP2 PUSH2 0x197 JUMP JUMPDEST DUP2 EQ PUSH2 0x1BD JUMPI PUSH1 0x0 DUP1 REVERT JUMPDEST POP JUMP JUMPDEST PUSH1 0x0 DUP2 MLOAD SWAP1 POP PUSH2 0x1CF DUP2 PUSH2 0x1A9 JUMP JUMPDEST SWAP3 SWAP2 POP POP JUMP JUMPDEST PUSH1 0x0 DUP2 SWAP1 POP SWAP2 SWAP1 POP JUMP JUMPDEST PUSH2 0x1E8 DUP2 PUSH2 0x1D5 JUMP JUMPDEST DUP2 EQ PUSH2 0x1F3 JUMPI PUSH1 0x0 DUP1 REVERT JUMPDEST POP JUMP JUMPDEST PUSH1 0x0 DUP2 MLOAD SWAP1 POP PUSH2 0x205 DUP2 PUSH2 0x1DF JUMP JUMPDEST SWAP3 SWAP2 POP POP JUMP JUMPDEST PUSH1 0x0 PUSH8 0xFFFFFFFFFFFFFFFF DUP3 AND SWAP1 POP SWAP2 SWAP1 POP JUMP JUMPDEST PUSH2 0x228 DUP2 PUSH2 0x20B JUMP JUMPDEST DUP2 EQ PUSH2 0x233 JUMPI PUSH1 0x0 DUP1 REVERT JUMPDEST POP JUMP JUMPDEST PUSH1 0x0 DUP2 MLOAD SWAP1 POP PUSH2 0x245 DUP2 PUSH2 0x21F JUMP JUMPDEST SWAP3 SWAP2 POP POP JUMP JUMPDEST PUSH1 0x0 PUSH4 0xFFFFFFFF DUP3 AND SWAP1 POP SWAP2 SWAP1 POP JUMP JUMPDEST PUSH2 0x264 DUP2 PUSH2 0x24B JUMP JUMPDEST DUP2 EQ PUSH2 0x26F JUMPI PUSH1 0x0 DUP1 REVERT JUMPDEST POP JUMP JUMPDEST PUSH1 0x0 DUP2 MLOAD SWAP1 POP PUSH2 0x281 DUP2 PUSH2 0x25B JUMP JUMPDEST SWAP3 SWAP2 POP POP JUMP JUMPDEST PUSH1 0x0 DUP1 PUSH1 0x0 DUP1 PUSH1 0x0 DUP1 PUSH1 0xC0 DUP8 DUP10 SUB SLT ISZERO PUSH2 0x2A4 JUMPI PUSH2 0x2A3 PUSH2 0x13C JUMP JUMPDEST JUMPDEST PUSH1 0x0 PUSH2 0x2B2 DUP10 DUP3 DUP11 ADD PUSH2 0x162 JUMP JUMPDEST SWAP7 POP POP PUSH1 0x20 PUSH2 0x2C3 DUP10 DUP3 DUP11 ADD PUSH2 0x1C0 JUMP JUMPDEST SWAP6 POP POP PUSH1 0x40 PUSH2 0x2D4 DUP10 DUP3 DUP11 ADD PUSH2 0x1F6 JUMP JUMPDEST SWAP5 POP POP PUSH1 0x60 PUSH2 0x2E5 DUP10 DUP3 DUP11 ADD PUSH2 0x236 JUMP JUMPDEST SWAP4 POP POP PUSH1 0x80 PUSH2 0x2F6 DUP10 DUP3 DUP11 ADD PUSH2 0x272 JUMP JUMPDEST SWAP3 POP POP PUSH1 0xA0 PUSH2 0x307 DUP10 DUP3 DUP11 ADD PUSH2 0x162 JUMP JUMPDEST SWAP2 POP POP SWAP3 SWAP6 POP SWAP3 SWAP6 POP SWAP3 SWAP6 JUMP JUMPDEST PUSH32 0x4E487B7100000000000000000000000000000000000000000000000000000000 PUSH1 0x0 MSTORE PUSH1 0x21 PUSH1 0x4 MSTORE PUSH1 0x24 PUSH1 0x0 REVERT JUMPDEST PUSH1 0x80 MLOAD PUSH1 0xA0 MLOAD PUSH1 0xC0 MLOAD PUSH1 0xE0 MLOAD PUSH2 0x100 MLOAD PUSH2 0x120 MLOAD PUSH2 0x140 MLOAD PUSH2 0x13D8 PUSH2 0x3AB PUSH1 0x0 CODECOPY PUSH1 0x0 PUSH2 0x9DD ADD MSTORE PUSH1 0x0 PUSH2 0x5D9 ADD MSTORE PUSH1 0x0 PUSH2 0x5B6 ADD MSTORE PUSH1 0x0 PUSH2 0x595 ADD MSTORE PUSH1 0x0 PUSH2 0x559 ADD MSTORE PUSH1 0x0 DUP2 DUP2 PUSH2 0x270 ADD MSTORE PUSH2 0x708 ADD MSTORE PUSH1 0x0 DUP2 DUP2 PUSH2 0x3E8 ADD MSTORE PUSH2 0x43C ADD MSTORE PUSH2 0x13D8 PUSH1 0x0 RETURN INVALID PUSH1 0x80 PUSH1 0x40 MSTORE PUSH1 0x4 CALLDATASIZE LT PUSH2 0x91 JUMPI PUSH1 0x0 CALLDATALOAD PUSH1 0xE0 SHR DUP1 PUSH4 0x6C7C8F17 GT PUSH2 0x59 JUMPI DUP1 PUSH4 0x6C7C8F17 EQ PUSH2 0x14A JUMPI DUP1 PUSH4 0x6E04FF0D EQ PUSH2 0x173 JUMPI DUP1 PUSH4 0x8A78DA41 EQ PUSH2 0x1B1 JUMPI DUP1 PUSH4 0xE55AE4E8 EQ PUSH2 0x1DC JUMPI DUP1 PUSH4 0xE586A4F0 EQ PUSH2 0x219 JUMPI PUSH2 0x91 JUMP JUMPDEST DUP1 PUSH4 0xB6831E5 EQ PUSH2 0x96 JUMPI DUP1 PUSH4 0xFF19FD7 EQ PUSH2 0xC1 JUMPI DUP1 PUSH4 0x1FE543E3 EQ PUSH2 0xCB JUMPI DUP1 PUSH4 0x53A2C19A EQ PUSH2 0xF4 JUMPI DUP1 PUSH4 0x5F1B0FD8 EQ PUSH2 0x11F JUMPI JUMPDEST PUSH1 0x0 DUP1 REVERT JUMPDEST CALLVALUE DUP1 ISZERO PUSH2 0xA2 JUMPI PUSH1 0x0 DUP1 REVERT JUMPDEST POP PUSH2 0xAB PUSH2 0x244 JUMP JUMPDEST PUSH1 0x40 MLOAD PUSH2 0xB8 SWAP2 SWAP1 PUSH2 0xB2D JUMP JUMPDEST PUSH1 0x40 MLOAD DUP1 SWAP2 SUB SWAP1 RETURN JUMPDEST PUSH2 0xC9 PUSH2 0x26E JUMP JUMPDEST STOP JUMPDEST CALLVALUE DUP1 ISZERO PUSH2 0xD7 JUMPI PUSH1 0x0 DUP1 REVERT JUMPDEST POP PUSH2 0xF2 PUSH1 0x4 DUP1 CALLDATASIZE SUB DUP2 ADD SWAP1 PUSH2 0xED SWAP2 SWAP1 PUSH2 0xCEB JUMP JUMPDEST PUSH2 0x3E6 JUMP JUMPDEST STOP JUMPDEST CALLVALUE DUP1 ISZERO PUSH2 0x100 JUMPI PUSH1 0x0 DUP1 REVERT JUMPDEST POP PUSH2 0x109 PUSH2 0x4A6 JUMP JUMPDEST PUSH1 0x40 MLOAD PUSH2 0x116 SWAP2 SWAP1 PUSH2 0xD66 JUMP JUMPDEST PUSH1 0x40 MLOAD DUP1 SWAP2 SUB SWAP1 RETURN JUMPDEST CALLVALUE DUP1 ISZERO PUSH2 0x12B JUMPI PUSH1 0x0 DUP1 REVERT JUMPDEST POP PUSH2 0x134 PUSH2 0x4AF JUMP JUMPDEST PUSH1 0x40 MLOAD PUSH2 0x141 SWAP2 SWAP1 PUSH2 0xD9E JUMP JUMPDEST PUSH1 0x40 MLOAD DUP1 SWAP2 SUB SWAP1 RETURN JUMPDEST CALLVALUE DUP1 ISZERO PUSH2 0x156 JUMPI PUSH1 0x0 DUP1 REVERT JUMPDEST POP PUSH2 0x171 PUSH1 0x4 DUP1 CALLDATASIZE SUB DUP2 ADD SWAP1 PUSH2 0x16C SWAP2 SWAP1 PUSH2 0xE14 JUMP JUMPDEST PUSH2 0x4B8 JUMP JUMPDEST STOP JUMPDEST CALLVALUE DUP1 ISZERO PUSH2 0x17F JUMPI PUSH1 0x0 DUP1 REVERT JUMPDEST POP PUSH2 0x19A PUSH1 0x4 DUP1 CALLDATASIZE SUB DUP2 ADD SWAP1 PUSH2 0x195 SWAP2 SWAP1 PUSH2 0xE14 JUMP JUMPDEST PUSH2 0x691 JUMP JUMPDEST PUSH1 0x40 MLOAD PUSH2 0x1A8 SWAP3 SWAP2 SWAP1 PUSH2 0xEFB JUMP JUMPDEST PUSH1 0x40 MLOAD DUP1 SWAP2 SUB SWAP1 RETURN JUMPDEST CALLVALUE DUP1 ISZERO PUSH2 0x1BD JUMPI PUSH1 0x0 DUP1 REVERT JUMPDEST POP PUSH2 0x1C6 PUSH2 0x6A6 JUMP JUMPDEST PUSH1 0x40 MLOAD PUSH2 0x1D3 SWAP2 SWAP1 PUSH2 0xFA2 JUMP JUMPDEST PUSH1 0x40 MLOAD DUP1 SWAP2 SUB SWAP1 RETURN JUMPDEST CALLVALUE DUP1 ISZERO PUSH2 0x1E8 JUMPI PUSH1 0x0 DUP1 REVERT JUMPDEST POP PUSH2 0x203 PUSH1 0x4 DUP1 CALLDATASIZE SUB DUP2 ADD SWAP1 PUSH2 0x1FE SWAP2 SWAP1 PUSH2 0xFBD JUMP JUMPDEST PUSH2 0x6BD JUMP JUMPDEST PUSH1 0x40 MLOAD PUSH2 0x210 SWAP2 SWAP1 PUSH2 0x100B JUMP JUMPDEST PUSH1 0x40 MLOAD DUP1 SWAP2 SUB SWAP1 RETURN JUMPDEST CALLVALUE DUP1 ISZERO PUSH2 0x225 JUMPI PUSH1 0x0 DUP1 REVERT JUMPDEST POP PUSH2 0x22E PUSH2 0x704 JUMP JUMPDEST PUSH1 0x40 MLOAD PUSH2 0x23B SWAP2 SWAP1 PUSH2 0x1035 JUMP JUMPDEST PUSH1 0x40 MLOAD DUP1 SWAP2 SUB SWAP1 RETURN JUMPDEST PUSH1 0x0 PUSH1 0x1 PUSH1 0x0 SWAP1 SLOAD SWAP1 PUSH2 0x100 EXP SWAP1 DIV PUSH20 0xFFFFFFFFFFFFFFFFFFFFFFFFFFFFFFFFFFFFFFFF AND SWAP1 POP SWAP1 JUMP JUMPDEST PUSH32 0x0 CALLVALUE LT ISZERO PUSH2 0x2C8 JUMPI PUSH1 0x40 MLOAD PUSH32 0x38C2C67E00000000000000000000000000000000000000000000000000000000 DUP2 MSTORE PUSH1 0x4 ADD PUSH1 0x40 MLOAD DUP1 SWAP2 SUB SWAP1 REVERT JUMPDEST PUSH1 0x0 PUSH1 0x1 DUP2 GT ISZERO PUSH2 0x2DC JUMPI PUSH2 0x2DB PUSH2 0xF2B JUMP JUMPDEST JUMPDEST PUSH1 0x1 PUSH1 0x14 SWAP1 SLOAD SWAP1 PUSH2 0x100 EXP SWAP1 DIV PUSH1 0xFF AND PUSH1 0x1 DUP2 GT ISZERO PUSH2 0x2FE JUMPI PUSH2 0x2FD PUSH2 0xF2B JUMP JUMPDEST JUMPDEST EQ PUSH2 0x33E JUMPI PUSH1 0x40 MLOAD PUSH32 0x8C379A000000000000000000000000000000000000000000000000000000000 DUP2 MSTORE PUSH1 0x4 ADD PUSH2 0x335 SWAP1 PUSH2 0x10AD JUMP JUMPDEST PUSH1 0x40 MLOAD DUP1 SWAP2 SUB SWAP1 REVERT JUMPDEST PUSH1 0x0 CALLER SWAP1 DUP1 PUSH1 0x1 DUP2 SLOAD ADD DUP1 DUP3 SSTORE DUP1 SWAP2 POP POP PUSH1 0x1 SWAP1 SUB SWAP1 PUSH1 0x0 MSTORE PUSH1 0x20 PUSH1 0x0 KECCAK256 ADD PUSH1 0x0 SWAP1 SWAP2 SWAP1 SWAP2 SWAP1 SWAP2 PUSH2 0x100 EXP DUP2 SLOAD DUP2 PUSH20 0xFFFFFFFFFFFFFFFFFFFFFFFFFFFFFFFFFFFFFFFF MUL NOT AND SWAP1 DUP4 PUSH20 0xFFFFFFFFFFFFFFFFFFFFFFFFFFFFFFFFFFFFFFFF AND MUL OR SWAP1 SSTORE POP CALLER PUSH20 0xFFFFFFFFFFFFFFFFFFFFFFFFFFFFFFFFFFFFFFFF AND PUSH32 0x8ED6A7AFF9A00785197DEC230A172A32E2FDEA5473A74F7D0477BE4505554EF8 PUSH1 0x40 MLOAD PUSH1 0x40 MLOAD DUP1 SWAP2 SUB SWAP1 LOG2 JUMP JUMPDEST PUSH32 0x0 PUSH20 0xFFFFFFFFFFFFFFFFFFFFFFFFFFFFFFFFFFFFFFFF AND CALLER PUSH20 0xFFFFFFFFFFFFFFFFFFFFFFFFFFFFFFFFFFFFFFFF AND EQ PUSH2 0x498 JUMPI CALLER PUSH32 0x0 PUSH1 0x40 MLOAD PUSH32 0x1CF993F400000000000000000000000000000000000000000000000000000000 DUP2 MSTORE PUSH1 0x4 ADD PUSH2 0x48F SWAP3 SWAP2 SWAP1 PUSH2 0x10CD JUMP JUMPDEST PUSH1 0x40 MLOAD DUP1 SWAP2 SUB SWAP1 REVERT JUMPDEST PUSH2 0x4A2 DUP3 DUP3 PUSH2 0x72C JUMP JUMPDEST POP POP JUMP JUMPDEST PUSH1 0x0 PUSH1 0x1 SWAP1 POP SWAP1 JUMP JUMPDEST PUSH1 0x0 PUSH1 0x3 SWAP1 POP SWAP1 JUMP JUMPDEST PUSH2 0x4C0 PUSH2 0x99D JUMP JUMPDEST PUSH2 0x52B JUMPI SELFBALANCE PUSH1 0x0 DUP1 SLOAD SWAP1 POP PUSH1 0x1 PUSH1 0x14 SWAP1 SLOAD SWAP1 PUSH2 0x100 EXP SWAP1 DIV PUSH1 0xFF AND PUSH1 0x1 DUP2 GT ISZERO PUSH2 0x4ED JUMPI PUSH2 0x4EC PUSH2 0xF2B JUMP JUMPDEST JUMPDEST PUSH1 0x40 MLOAD PUSH32 0xEEE093DA00000000000000000000000000000000000000000000000000000000 DUP2 MSTORE PUSH1 0x4 ADD PUSH2 0x522 SWAP4 SWAP3 SWAP2 SWAP1 PUSH2 0x10F6 JUMP JUMPDEST PUSH1 0x40 MLOAD DUP1 SWAP2 SUB SWAP1 REVERT JUMPDEST PUSH1 0x1 DUP1 PUSH1 0x14 PUSH2 0x100 EXP DUP2 SLOAD DUP2 PUSH1 0xFF MUL NOT AND SWAP1 DUP4 PUSH1 0x1 DUP2 GT ISZERO PUSH2 0x550 JUMPI PUSH2 0x54F PUSH2 0xF2B JUMP JUMPDEST JUMPDEST MUL OR SWAP1 SSTORE POP PUSH1 0x0 PUSH32 0x0 PUSH20 0xFFFFFFFFFFFFFFFFFFFFFFFFFFFFFFFFFFFFFFFF AND PUSH4 0x5D3B1D30 PUSH32 0x0 PUSH32 0x0 PUSH1 0x3 PUSH32 0x0 PUSH1 0x1 PUSH1 0x40 MLOAD DUP7 PUSH4 0xFFFFFFFF AND PUSH1 0xE0 SHL DUP2 MSTORE PUSH1 0x4 ADD PUSH2 0x61A SWAP6 SWAP5 SWAP4 SWAP3 SWAP2 SWAP1 PUSH2 0x1169 JUMP JUMPDEST PUSH1 0x20 PUSH1 0x40 MLOAD DUP1 DUP4 SUB DUP2 PUSH1 0x0 DUP8 GAS CALL ISZERO DUP1 ISZERO PUSH2 0x639 JUMPI RETURNDATASIZE PUSH1 0x0 DUP1 RETURNDATACOPY RETURNDATASIZE PUSH1 0x0 REVERT JUMPDEST POP POP POP POP PUSH1 0x40 MLOAD RETURNDATASIZE PUSH1 0x1F NOT PUSH1 0x1F DUP3 ADD AND DUP3 ADD DUP1 PUSH1 0x40 MSTORE POP DUP2 ADD SWAP1 PUSH2 0x65D SWAP2 SWAP1 PUSH2 0x11D1 JUMP JUMPDEST SWAP1 POP DUP1 PUSH32 0x9CD72631871DFF14BBC84976A39C2BCA5D943F61F72884A8F331A889778F2C31 PUSH1 0x40 MLOAD PUSH1 0x40 MLOAD DUP1 SWAP2 SUB SWAP1 LOG2 POP POP POP JUMP JUMPDEST PUSH1 0x0 PUSH1 0x60 PUSH2 0x69D PUSH2 0x99D JUMP JUMPDEST SWAP2 POP SWAP3 POP SWAP3 SWAP1 POP JUMP JUMPDEST PUSH1 0x0 PUSH1 0x1 PUSH1 0x14 SWAP1 SLOAD SWAP1 PUSH2 0x100 EXP SWAP1 DIV PUSH1 0xFF AND SWAP1 POP SWAP1 JUMP JUMPDEST PUSH1 0x0 DUP1 DUP3 DUP2 SLOAD DUP2 LT PUSH2 0x6D2 JUMPI PUSH2 0x6D1 PUSH2 0x11FE JUMP JUMPDEST JUMPDEST SWAP1 PUSH1 0x0 MSTORE PUSH1 0x20 PUSH1 0x0 KECCAK256 ADD PUSH1 0x0 SWAP1 SLOAD SWAP1 PUSH2 0x100 EXP SWAP1 DIV PUSH20 0xFFFFFFFFFFFFFFFFFFFFFFFFFFFFFFFFFFFFFFFF AND SWAP1 POP SWAP2 SWAP1 POP JUMP JUMPDEST PUSH1 0x0 PUSH32 0x0 SWAP1 POP SWAP1 JUMP JUMPDEST PUSH1 0x0 DUP1 DUP1 SLOAD SWAP1 POP DUP3 PUSH1 0x0 DUP2 MLOAD DUP2 LT PUSH2 0x747 JUMPI PUSH2 0x746 PUSH2 0x11FE JUMP JUMPDEST JUMPDEST PUSH1 0x20 MUL PUSH1 0x20 ADD ADD MLOAD PUSH2 0x759 SWAP2 SWAP1 PUSH2 0x125C JUMP JUMPDEST SWAP1 POP PUSH1 0x0 DUP1 DUP3 DUP2 SLOAD DUP2 LT PUSH2 0x770 JUMPI PUSH2 0x76F PUSH2 0x11FE JUMP JUMPDEST JUMPDEST SWAP1 PUSH1 0x0 MSTORE PUSH1 0x20 PUSH1 0x0 KECCAK256 ADD PUSH1 0x0 SWAP1 SLOAD SWAP1 PUSH2 0x100 EXP SWAP1 DIV PUSH20 0xFFFFFFFFFFFFFFFFFFFFFFFFFFFFFFFFFFFFFFFF AND SWAP1 POP DUP1 PUSH1 0x1 PUSH1 0x0 PUSH2 0x100 EXP DUP2 SLOAD DUP2 PUSH20 0xFFFFFFFFFFFFFFFFFFFFFFFFFFFFFFFFFFFFFFFF MUL NOT AND SWAP1 DUP4 PUSH20 0xFFFFFFFFFFFFFFFFFFFFFFFFFFFFFFFFFFFFFFFF AND MUL OR SWAP1 SSTORE POP PUSH1 0x0 PUSH1 0x1 PUSH1 0x14 PUSH2 0x100 EXP DUP2 SLOAD DUP2 PUSH1 0xFF MUL NOT AND SWAP1 DUP4 PUSH1 0x1 DUP2 GT ISZERO PUSH2 0x804 JUMPI PUSH2 0x803 PUSH2 0xF2B JUMP JUMPDEST JUMPDEST MUL OR SWAP1 SSTORE POP PUSH1 0x0 PUSH8 0xFFFFFFFFFFFFFFFF DUP2 GT ISZERO PUSH2 0x824 JUMPI PUSH2 0x823 PUSH2 0xBA8 JUMP JUMPDEST JUMPDEST PUSH1 0x40 MLOAD SWAP1 DUP1 DUP3 MSTORE DUP1 PUSH1 0x20 MUL PUSH1 0x20 ADD DUP3 ADD PUSH1 0x40 MSTORE DUP1 ISZERO PUSH2 0x852 JUMPI DUP2 PUSH1 0x20 ADD PUSH1 0x20 DUP3 MUL DUP1 CALLDATASIZE DUP4 CALLDATACOPY DUP1 DUP3 ADD SWAP2 POP POP SWAP1 POP JUMPDEST POP PUSH1 0x0 SWAP1 DUP1 MLOAD SWAP1 PUSH1 0x20 ADD SWAP1 PUSH2 0x868 SWAP3 SWAP2 SWAP1 PUSH2 0xA45 JUMP JUMPDEST POP TIMESTAMP PUSH1 0x2 DUP2 SWAP1 SSTORE POP PUSH1 0x0 DUP2 PUSH20 0xFFFFFFFFFFFFFFFFFFFFFFFFFFFFFFFFFFFFFFFF AND SELFBALANCE PUSH1 0x40 MLOAD PUSH2 0x896 SWAP1 PUSH2 0x12BE JUMP JUMPDEST PUSH1 0x0 PUSH1 0x40 MLOAD DUP1 DUP4 SUB DUP2 DUP6 DUP8 GAS CALL SWAP3 POP POP POP RETURNDATASIZE DUP1 PUSH1 0x0 DUP2 EQ PUSH2 0x8D3 JUMPI PUSH1 0x40 MLOAD SWAP2 POP PUSH1 0x1F NOT PUSH1 0x3F RETURNDATASIZE ADD AND DUP3 ADD PUSH1 0x40 MSTORE RETURNDATASIZE DUP3 MSTORE RETURNDATASIZE PUSH1 0x0 PUSH1 0x20 DUP5 ADD RETURNDATACOPY PUSH2 0x8D8 JUMP JUMPDEST PUSH1 0x60 SWAP2 POP JUMPDEST POP POP SWAP1 POP DUP1 PUSH2 0x91C JUMPI PUSH1 0x40 MLOAD PUSH32 0x8C379A000000000000000000000000000000000000000000000000000000000 DUP2 MSTORE PUSH1 0x4 ADD PUSH2 0x913 SWAP1 PUSH2 0x131F JUMP JUMPDEST PUSH1 0x40 MLOAD DUP1 SWAP2 SUB SWAP1 REVERT JUMPDEST DUP1 PUSH2 0x953 JUMPI PUSH1 0x40 MLOAD PUSH32 0x6B56C6A300000000000000000000000000000000000000000000000000000000 DUP2 MSTORE PUSH1 0x4 ADD PUSH1 0x40 MLOAD DUP1 SWAP2 SUB SWAP1 REVERT JUMPDEST DUP2 PUSH20 0xFFFFFFFFFFFFFFFFFFFFFFFFFFFFFFFFFFFFFFFF AND PUSH32 0x7D5E0ACEF27DB2FE13C94BBDB66D614A8840FB82C920A1B9AADB5D6ACF3E7692 PUSH1 0x40 MLOAD PUSH1 0x40 MLOAD DUP1 SWAP2 SUB SWAP1 LOG2 POP POP POP POP POP JUMP JUMPDEST PUSH1 0x0 DUP1 PUSH1 0x1 PUSH1 0x14 SWAP1 SLOAD SWAP1 PUSH2 0x100 EXP SWAP1 DIV PUSH1 0xFF AND PUSH1 0x1 DUP2 GT ISZERO PUSH2 0x9C2 JUMPI PUSH2 0x9C1 PUSH2 0xF2B JUMP JUMPDEST JUMPDEST PUSH1 0x0 PUSH1 0x1 DUP2 GT ISZERO PUSH2 0x9D6 JUMPI PUSH2 0x9D5 PUSH2 0xF2B JUMP JUMPDEST JUMPDEST EQ SWAP1 POP PUSH1 0x0 PUSH32 0x0 PUSH1 0x2 SLOAD TIMESTAMP PUSH2 0xA0A SWAP2 SWAP1 PUSH2 0x136E JUMP JUMPDEST GT SWAP1 POP PUSH1 0x0 DUP1 PUSH1 0x0 DUP1 SLOAD SWAP1 POP GT SWAP1 POP PUSH1 0x0 DUP1 SELFBALANCE GT SWAP1 POP DUP4 DUP1 ISZERO PUSH2 0xA2A JUMPI POP DUP3 JUMPDEST DUP1 ISZERO PUSH2 0xA33 JUMPI POP DUP2 JUMPDEST DUP1 ISZERO PUSH2 0xA3C JUMPI POP DUP1 JUMPDEST SWAP5 POP POP POP POP POP SWAP1 JUMP JUMPDEST DUP3 DUP1 SLOAD DUP3 DUP3 SSTORE SWAP1 PUSH1 0x0 MSTORE PUSH1 0x20 PUSH1 0x0 KECCAK256 SWAP1 DUP2 ADD SWAP3 DUP3 ISZERO PUSH2 0xABE JUMPI SWAP2 PUSH1 0x20 MUL DUP3 ADD JUMPDEST DUP3 DUP2 GT ISZERO PUSH2 0xABD JUMPI DUP3 MLOAD DUP3 PUSH1 0x0 PUSH2 0x100 EXP DUP2 SLOAD DUP2 PUSH20 0xFFFFFFFFFFFFFFFFFFFFFFFFFFFFFFFFFFFFFFFF MUL NOT AND SWAP1 DUP4 PUSH20 0xFFFFFFFFFFFFFFFFFFFFFFFFFFFFFFFFFFFFFFFF AND MUL OR SWAP1 SSTORE POP SWAP2 PUSH1 0x20 ADD SWAP2 SWAP1 PUSH1 0x1 ADD SWAP1 PUSH2 0xA65 JUMP JUMPDEST JUMPDEST POP SWAP1 POP PUSH2 0xACB SWAP2 SWAP1 PUSH2 0xACF JUMP JUMPDEST POP SWAP1 JUMP JUMPDEST JUMPDEST DUP1 DUP3 GT ISZERO PUSH2 0xAE8 JUMPI PUSH1 0x0 DUP2 PUSH1 0x0 SWAP1 SSTORE POP PUSH1 0x1 ADD PUSH2 0xAD0 JUMP JUMPDEST POP SWAP1 JUMP JUMPDEST PUSH1 0x0 PUSH20 0xFFFFFFFFFFFFFFFFFFFFFFFFFFFFFFFFFFFFFFFF DUP3 AND SWAP1 POP SWAP2 SWAP1 POP JUMP JUMPDEST PUSH1 0x0 PUSH2 0xB17 DUP3 PUSH2 0xAEC JUMP JUMPDEST SWAP1 POP SWAP2 SWAP1 POP JUMP JUMPDEST PUSH2 0xB27 DUP2 PUSH2 0xB0C JUMP JUMPDEST DUP3 MSTORE POP POP JUMP JUMPDEST PUSH1 0x0 PUSH1 0x20 DUP3 ADD SWAP1 POP PUSH2 0xB42 PUSH1 0x0 DUP4 ADD DUP5 PUSH2 0xB1E JUMP JUMPDEST SWAP3 SWAP2 POP POP JUMP JUMPDEST PUSH1 0x0 PUSH1 0x40 MLOAD SWAP1 POP SWAP1 JUMP JUMPDEST PUSH1 0x0 DUP1 REVERT JUMPDEST PUSH1 0x0 DUP1 REVERT JUMPDEST PUSH1 0x0 DUP2 SWAP1 POP SWAP2 SWAP1 POP JUMP JUMPDEST PUSH2 0xB6F DUP2 PUSH2 0xB5C JUMP JUMPDEST DUP2 EQ PUSH2 0xB7A JUMPI PUSH1 0x0 DUP1 REVERT JUMPDEST POP JUMP JUMPDEST PUSH1 0x0 DUP2 CALLDATALOAD SWAP1 POP PUSH2 0xB8C DUP2 PUSH2 0xB66 JUMP JUMPDEST SWAP3 SWAP2 POP POP JUMP JUMPDEST PUSH1 0x0 DUP1 REVERT JUMPDEST PUSH1 0x0 PUSH1 0x1F NOT PUSH1 0x1F DUP4 ADD AND SWAP1 POP SWAP2 SWAP1 POP JUMP JUMPDEST PUSH32 0x4E487B7100000000000000000000000000000000000000000000000000000000 PUSH1 0x0 MSTORE PUSH1 0x41 PUSH1 0x4 MSTORE PUSH1 0x24 PUSH1 0x0 REVERT JUMPDEST PUSH2 0xBE0 DUP3 PUSH2 0xB97 JUMP JUMPDEST DUP2 ADD DUP2 DUP2 LT PUSH8 0xFFFFFFFFFFFFFFFF DUP3 GT OR ISZERO PUSH2 0xBFF JUMPI PUSH2 0xBFE PUSH2 0xBA8 JUMP JUMPDEST JUMPDEST DUP1 PUSH1 0x40 MSTORE POP POP POP JUMP JUMPDEST PUSH1 0x0 PUSH2 0xC12 PUSH2 0xB48 JUMP JUMPDEST SWAP1 POP PUSH2 0xC1E DUP3 DUP3 PUSH2 0xBD7 JUMP JUMPDEST SWAP2 SWAP1 POP JUMP JUMPDEST PUSH1 0x0 PUSH8 0xFFFFFFFFFFFFFFFF DUP3 GT ISZERO PUSH2 0xC3E JUMPI PUSH2 0xC3D PUSH2 0xBA8 JUMP JUMPDEST JUMPDEST PUSH1 0x20 DUP3 MUL SWAP1 POP PUSH1 0x20 DUP2 ADD SWAP1 POP SWAP2 SWAP1 POP JUMP JUMPDEST PUSH1 0x0 DUP1 REVERT JUMPDEST PUSH1 0x0 PUSH2 0xC67 PUSH2 0xC62 DUP5 PUSH2 0xC23 JUMP JUMPDEST PUSH2 0xC08 JUMP JUMPDEST SWAP1 POP DUP1 DUP4 DUP3 MSTORE PUSH1 0x20 DUP3 ADD SWAP1 POP PUSH1 0x20 DUP5 MUL DUP4 ADD DUP6 DUP2 GT ISZERO PUSH2 0xC8A JUMPI PUSH2 0xC89 PUSH2 0xC4F JUMP JUMPDEST JUMPDEST DUP4 JUMPDEST DUP2 DUP2 LT ISZERO PUSH2 0xCB3 JUMPI DUP1 PUSH2 0xC9F DUP9 DUP3 PUSH2 0xB7D JUMP JUMPDEST DUP5 MSTORE PUSH1 0x20 DUP5 ADD SWAP4 POP POP PUSH1 0x20 DUP2 ADD SWAP1 POP PUSH2 0xC8C JUMP JUMPDEST POP POP POP SWAP4 SWAP3 POP POP POP JUMP JUMPDEST PUSH1 0x0 DUP3 PUSH1 0x1F DUP4 ADD SLT PUSH2 0xCD2 JUMPI PUSH2 0xCD1 PUSH2 0xB92 JUMP JUMPDEST JUMPDEST DUP2 CALLDATALOAD PUSH2 0xCE2 DUP5 DUP3 PUSH1 0x20 DUP7 ADD PUSH2 0xC54 JUMP JUMPDEST SWAP2 POP POP SWAP3 SWAP2 POP POP JUMP JUMPDEST PUSH1 0x0 DUP1 PUSH1 0x40 DUP4 DUP6 SUB SLT ISZERO PUSH2 0xD02 JUMPI PUSH2 0xD01 PUSH2 0xB52 JUMP JUMPDEST JUMPDEST PUSH1 0x0 PUSH2 0xD10 DUP6 DUP3 DUP7 ADD PUSH2 0xB7D JUMP JUMPDEST SWAP3 POP POP PUSH1 0x20 DUP4 ADD CALLDATALOAD PUSH8 0xFFFFFFFFFFFFFFFF DUP2 GT ISZERO PUSH2 0xD31 JUMPI PUSH2 0xD30 PUSH2 0xB57 JUMP JUMPDEST JUMPDEST PUSH2 0xD3D DUP6 DUP3 DUP7 ADD PUSH2 0xCBD JUMP JUMPDEST SWAP2 POP POP SWAP3 POP SWAP3 SWAP1 POP JUMP JUMPDEST PUSH1 0x0 PUSH4 0xFFFFFFFF DUP3 AND SWAP1 POP SWAP2 SWAP1 POP JUMP JUMPDEST PUSH2 0xD60 DUP2 PUSH2 0xD47 JUMP JUMPDEST DUP3 MSTORE POP POP JUMP JUMPDEST PUSH1 0x0 PUSH1 0x20 DUP3 ADD SWAP1 POP PUSH2 0xD7B PUSH1 0x0 DUP4 ADD DUP5 PUSH2 0xD57 JUMP JUMPDEST SWAP3 SWAP2 POP POP JUMP JUMPDEST PUSH1 0x0 PUSH2 0xFFFF DUP3 AND SWAP1 POP SWAP2 SWAP1 POP JUMP JUMPDEST PUSH2 0xD98 DUP2 PUSH2 0xD81 JUMP JUMPDEST DUP3 MSTORE POP POP JUMP JUMPDEST PUSH1 0x0 PUSH1 0x20 DUP3 ADD SWAP1 POP PUSH2 0xDB3 PUSH1 0x0 DUP4 ADD DUP5 PUSH2 0xD8F JUMP JUMPDEST SWAP3 SWAP2 POP POP JUMP JUMPDEST PUSH1 0x0 DUP1 REVERT JUMPDEST PUSH1 0x0 DUP1 DUP4 PUSH1 0x1F DUP5 ADD SLT PUSH2 0xDD4 JUMPI PUSH2 0xDD3 PUSH2 0xB92 JUMP JUMPDEST JUMPDEST DUP3 CALLDATALOAD SWAP1 POP PUSH8 0xFFFFFFFFFFFFFFFF DUP2 GT ISZERO PUSH2 0xDF1 JUMPI PUSH2 0xDF0 PUSH2 0xDB9 JUMP JUMPDEST JUMPDEST PUSH1 0x20 DUP4 ADD SWAP2 POP DUP4 PUSH1 0x1 DUP3 MUL DUP4 ADD GT ISZERO PUSH2 0xE0D JUMPI PUSH2 0xE0C PUSH2 0xC4F JUMP JUMPDEST JUMPDEST SWAP3 POP SWAP3 SWAP1 POP JUMP JUMPDEST PUSH1 0x0 DUP1 PUSH1 0x20 DUP4 DUP6 SUB SLT ISZERO PUSH2 0xE2B JUMPI PUSH2 0xE2A PUSH2 0xB52 JUMP JUMPDEST JUMPDEST PUSH1 0x0 DUP4 ADD CALLDATALOAD PUSH8 0xFFFFFFFFFFFFFFFF DUP2 GT ISZERO PUSH2 0xE49 JUMPI PUSH2 0xE48 PUSH2 0xB57 JUMP JUMPDEST JUMPDEST PUSH2 0xE55 DUP6 DUP3 DUP7 ADD PUSH2 0xDBE JUMP JUMPDEST SWAP3 POP SWAP3 POP POP SWAP3 POP SWAP3 SWAP1 POP JUMP JUMPDEST PUSH1 0x0 DUP2 ISZERO ISZERO SWAP1 POP SWAP2 SWAP1 POP JUMP JUMPDEST PUSH2 0xE76 DUP2 PUSH2 0xE61 JUMP JUMPDEST DUP3 MSTORE POP POP JUMP JUMPDEST PUSH1 0x0 DUP2 MLOAD SWAP1 POP SWAP2 SWAP1 POP JUMP JUMPDEST PUSH1 0x0 DUP3 DUP3 MSTORE PUSH1 0x20 DUP3 ADD SWAP1 POP SWAP3 SWAP2 POP POP JUMP JUMPDEST PUSH1 0x0 JUMPDEST DUP4 DUP2 LT ISZERO PUSH2 0xEB6 JUMPI DUP1 DUP3 ADD MLOAD DUP2 DUP5 ADD MSTORE PUSH1 0x20 DUP2 ADD SWAP1 POP PUSH2 0xE9B JUMP JUMPDEST PUSH1 0x0 DUP5 DUP5 ADD MSTORE POP POP POP POP JUMP JUMPDEST PUSH1 0x0 PUSH2 0xECD DUP3 PUSH2 0xE7C JUMP JUMPDEST PUSH2 0xED7 DUP2 DUP6 PUSH2 0xE87 JUMP JUMPDEST SWAP4 POP PUSH2 0xEE7 DUP2 DUP6 PUSH1 0x20 DUP7 ADD PUSH2 0xE98 JUMP JUMPDEST PUSH2 0xEF0 DUP2 PUSH2 0xB97 JUMP JUMPDEST DUP5 ADD SWAP2 POP POP SWAP3 SWAP2 POP POP JUMP JUMPDEST PUSH1 0x0 PUSH1 0x40 DUP3 ADD SWAP1 POP PUSH2 0xF10 PUSH1 0x0 DUP4 ADD DUP6 PUSH2 0xE6D JUMP JUMPDEST DUP2 DUP2 SUB PUSH1 0x20 DUP4 ADD MSTORE PUSH2 0xF22 DUP2 DUP5 PUSH2 0xEC2 JUMP JUMPDEST SWAP1 POP SWAP4 SWAP3 POP POP POP JUMP JUMPDEST PUSH32 0x4E487B7100000000000000000000000000000000000000000000000000000000 PUSH1 0x0 MSTORE PUSH1 0x21 PUSH1 0x4 MSTORE PUSH1 0x24 PUSH1 0x0 REVERT JUMPDEST PUSH1 0x2 DUP2 LT PUSH2 0xF6B JUMPI PUSH2 0xF6A PUSH2 0xF2B JUMP JUMPDEST JUMPDEST POP JUMP JUMPDEST PUSH1 0x0 DUP2 SWAP1 POP PUSH2 0xF7C DUP3 PUSH2 0xF5A JUMP JUMPDEST SWAP2 SWAP1 POP JUMP JUMPDEST PUSH1 0x0 PUSH2 0xF8C DUP3 PUSH2 0xF6E JUMP JUMPDEST SWAP1 POP SWAP2 SWAP1 POP JUMP JUMPDEST PUSH2 0xF9C DUP2 PUSH2 0xF81 JUMP JUMPDEST DUP3 MSTORE POP POP JUMP JUMPDEST PUSH1 0x0 PUSH1 0x20 DUP3 ADD SWAP1 POP PUSH2 0xFB7 PUSH1 0x0 DUP4 ADD DUP5 PUSH2 0xF93 JUMP JUMPDEST SWAP3 SWAP2 POP POP JUMP JUMPDEST PUSH1 0x0 PUSH1 0x20 DUP3 DUP5 SUB SLT ISZERO PUSH2 0xFD3 JUMPI PUSH2 0xFD2 PUSH2 0xB52 JUMP JUMPDEST JUMPDEST PUSH1 0x0 PUSH2 0xFE1 DUP5 DUP3 DUP6 ADD PUSH2 0xB7D JUMP JUMPDEST SWAP2 POP POP SWAP3 SWAP2 POP POP JUMP JUMPDEST PUSH1 0x0 PUSH2 0xFF5 DUP3 PUSH2 0xAEC JUMP JUMPDEST SWAP1 POP SWAP2 SWAP1 POP JUMP JUMPDEST PUSH2 0x1005 DUP2 PUSH2 0xFEA JUMP JUMPDEST DUP3 MSTORE POP POP JUMP JUMPDEST PUSH1 0x0 PUSH1 0x20 DUP3 ADD SWAP1 POP PUSH2 0x1020 PUSH1 0x0 DUP4 ADD DUP5 PUSH2 0xFFC JUMP JUMPDEST SWAP3 SWAP2 POP POP JUMP JUMPDEST PUSH2 0x102F DUP2 PUSH2 0xB5C JUMP JUMPDEST DUP3 MSTORE POP POP JUMP JUMPDEST PUSH1 0x0 PUSH1 0x20 DUP3 ADD SWAP1 POP PUSH2 0x104A PUSH1 0x0 DUP4 ADD DUP5 PUSH2 0x1026 JUMP JUMPDEST SWAP3 SWAP2 POP POP JUMP JUMPDEST PUSH1 0x0 DUP3 DUP3 MSTORE PUSH1 0x20 DUP3 ADD SWAP1 POP SWAP3 SWAP2 POP POP JUMP JUMPDEST PUSH32 0x52616666656C206973206E6F74206F70656E0000000000000000000000000000 PUSH1 0x0 DUP3 ADD MSTORE POP JUMP JUMPDEST PUSH1 0x0 PUSH2 0x1097 PUSH1 0x12 DUP4 PUSH2 0x1050 JUMP JUMPDEST SWAP2 POP PUSH2 0x10A2 DUP3 PUSH2 0x1061 JUMP JUMPDEST PUSH1 0x20 DUP3 ADD SWAP1 POP SWAP2 SWAP1 POP JUMP JUMPDEST PUSH1 0x0 PUSH1 0x20 DUP3 ADD SWAP1 POP DUP2 DUP2 SUB PUSH1 0x0 DUP4 ADD MSTORE PUSH2 0x10C6 DUP2 PUSH2 0x108A JUMP JUMPDEST SWAP1 POP SWAP2 SWAP1 POP JUMP JUMPDEST PUSH1 0x0 PUSH1 0x40 DUP3 ADD SWAP1 POP PUSH2 0x10E2 PUSH1 0x0 DUP4 ADD DUP6 PUSH2 0xB1E JUMP JUMPDEST PUSH2 0x10EF PUSH1 0x20 DUP4 ADD DUP5 PUSH2 0xB1E JUMP JUMPDEST SWAP4 SWAP3 POP POP POP JUMP JUMPDEST PUSH1 0x0 PUSH1 0x60 DUP3 ADD SWAP1 POP PUSH2 0x110B PUSH1 0x0 DUP4 ADD DUP7 PUSH2 0x1026 JUMP JUMPDEST PUSH2 0x1118 PUSH1 0x20 DUP4 ADD DUP6 PUSH2 0x1026 JUMP JUMPDEST PUSH2 0x1125 PUSH1 0x40 DUP4 ADD DUP5 PUSH2 0x1026 JUMP JUMPDEST SWAP5 SWAP4 POP POP POP POP JUMP JUMPDEST PUSH1 0x0 DUP2 SWAP1 POP SWAP2 SWAP1 POP JUMP JUMPDEST PUSH2 0x1140 DUP2 PUSH2 0x112D JUMP JUMPDEST DUP3 MSTORE POP POP JUMP JUMPDEST PUSH1 0x0 PUSH8 0xFFFFFFFFFFFFFFFF DUP3 AND SWAP1 POP SWAP2 SWAP1 POP JUMP JUMPDEST PUSH2 0x1163 DUP2 PUSH2 0x1146 JUMP JUMPDEST DUP3 MSTORE POP POP JUMP JUMPDEST PUSH1 0x0 PUSH1 0xA0 DUP3 ADD SWAP1 POP PUSH2 0x117E PUSH1 0x0 DUP4 ADD DUP9 PUSH2 0x1137 JUMP JUMPDEST PUSH2 0x118B PUSH1 0x20 DUP4 ADD DUP8 PUSH2 0x115A JUMP JUMPDEST PUSH2 0x1198 PUSH1 0x40 DUP4 ADD DUP7 PUSH2 0xD8F JUMP JUMPDEST PUSH2 0x11A5 PUSH1 0x60 DUP4 ADD DUP6 PUSH2 0xD57 JUMP JUMPDEST PUSH2 0x11B2 PUSH1 0x80 DUP4 ADD DUP5 PUSH2 0xD57 JUMP JUMPDEST SWAP7 SWAP6 POP POP POP POP POP POP JUMP JUMPDEST PUSH1 0x0 DUP2 MLOAD SWAP1 POP PUSH2 0x11CB DUP2 PUSH2 0xB66 JUMP JUMPDEST SWAP3 SWAP2 POP POP JUMP JUMPDEST PUSH1 0x0 PUSH1 0x20 DUP3 DUP5 SUB SLT ISZERO PUSH2 0x11E7 JUMPI PUSH2 0x11E6 PUSH2 0xB52 JUMP JUMPDEST JUMPDEST PUSH1 0x0 PUSH2 0x11F5 DUP5 DUP3 DUP6 ADD PUSH2 0x11BC JUMP JUMPDEST SWAP2 POP POP SWAP3 SWAP2 POP POP JUMP JUMPDEST PUSH32 0x4E487B7100000000000000000000000000000000000000000000000000000000 PUSH1 0x0 MSTORE PUSH1 0x32 PUSH1 0x4 MSTORE PUSH1 0x24 PUSH1 0x0 REVERT JUMPDEST PUSH32 0x4E487B7100000000000000000000000000000000000000000000000000000000 PUSH1 0x0 MSTORE PUSH1 0x12 PUSH1 0x4 MSTORE PUSH1 0x24 PUSH1 0x0 REVERT JUMPDEST PUSH1 0x0 PUSH2 0x1267 DUP3 PUSH2 0xB5C JUMP JUMPDEST SWAP2 POP PUSH2 0x1272 DUP4 PUSH2 0xB5C JUMP JUMPDEST SWAP3 POP DUP3 PUSH2 0x1282 JUMPI PUSH2 0x1281 PUSH2 0x122D JUMP JUMPDEST JUMPDEST DUP3 DUP3 MOD SWAP1 POP SWAP3 SWAP2 POP POP JUMP JUMPDEST PUSH1 0x0 DUP2 SWAP1 POP SWAP3 SWAP2 POP POP JUMP JUMPDEST POP JUMP JUMPDEST PUSH1 0x0 PUSH2 0x12A8 PUSH1 0x0 DUP4 PUSH2 0x128D JUMP JUMPDEST SWAP2 POP PUSH2 0x12B3 DUP3 PUSH2 0x1298 JUMP JUMPDEST PUSH1 0x0 DUP3 ADD SWAP1 POP SWAP2 SWAP1 POP JUMP JUMPDEST PUSH1 0x0 PUSH2 0x12C9 DUP3 PUSH2 0x129B JUMP JUMPDEST SWAP2 POP DUP2 SWAP1 POP SWAP2 SWAP1 POP JUMP JUMPDEST PUSH32 0x5472616E73666572206661696C65640000000000000000000000000000000000 PUSH1 0x0 DUP3 ADD MSTORE POP JUMP JUMPDEST PUSH1 0x0 PUSH2 0x1309 PUSH1 0xF DUP4 PUSH2 0x1050 JUMP JUMPDEST SWAP2 POP PUSH2 0x1314 DUP3 PUSH2 0x12D3 JUMP JUMPDEST PUSH1 0x20 DUP3 ADD SWAP1 POP SWAP2 SWAP1 POP JUMP JUMPDEST PUSH1 0x0 PUSH1 0x20 DUP3 ADD SWAP1 POP DUP2 DUP2 SUB PUSH1 0x0 DUP4 ADD MSTORE PUSH2 0x1338 DUP2 PUSH2 0x12FC JUMP JUMPDEST SWAP1 POP SWAP2 SWAP1 POP JUMP JUMPDEST PUSH32 0x4E487B7100000000000000000000000000000000000000000000000000000000 PUSH1 0x0 MSTORE PUSH1 0x11 PUSH1 0x4 MSTORE PUSH1 0x24 PUSH1 0x0 REVERT JUMPDEST PUSH1 0x0 PUSH2 0x1379 DUP3 PUSH2 0xB5C JUMP JUMPDEST SWAP2 POP PUSH2 0x1384 DUP4 PUSH2 0xB5C JUMP JUMPDEST SWAP3 POP DUP3 DUP3 SUB SWAP1 POP DUP2 DUP2 GT ISZERO PUSH2 0x139C JUMPI PUSH2 0x139B PUSH2 0x133F JUMP JUMPDEST JUMPDEST SWAP3 SWAP2 POP POP JUMP INVALID LOG2 PUSH5 0x6970667358 0x22 SLT KECCAK256 0xE3 SMOD KECCAK256 0x2E SWAP8 0xAC 0x23 DELEGATECALL 0xA9 DUP13 GT CALLDATACOPY 0xF DELEGATECALL LOG2 SWAP1 0xBF 0xD0 0xE4 0xFB 0xC2 SWAP2 SGT PUSH10 0xA9F37653D005064F6473 PUSH16 0x6C634300081C00330000000000000000 "},"gasEstimates":{"creation":{"codeDepositCost":"1016000","executionCost":"infinite","totalCost":"infinite"},"external":{"checkUpkeep(bytes)":"infinite","enterRaffel()":"infinite","gertRecentWinner()":"2523","getEntryFee()":"infinite","getNumWords()":"410","getPlayer(uint256)":"5033","getRaffelState()":"2662","getRequestConfirmations()":"432","performUpKeep(bytes)":"infinite","rawFulfillRandomWords(uint256,uint256[])":"infinite"},"internal":{"chaecUpkeepLogic()":"infinite","fulfillRandomWords(uint256,uint256[] memory)":"infinite"}},"methodIdentifiers":{"checkUpkeep(bytes)":"6e04ff0d","enterRaffel()":"0ff19fd7","gertRecentWinner()":"0b6831e5","getEntryFee()":"e586a4f0","getNumWords()":"53a2c19a","getPlayer(uint256)":"e55ae4e8","getRaffelState()":"8a78da41","getRequestConfirmations()":"5f1b0fd8","performUpKeep(bytes)":"6c7c8f17","rawFulfillRandomWords(uint256,uint256[])":"1fe543e3"}},"storageLayout":{"storage":[{"astId":198,"contract":"contracts/Raffel.sol:Raffel","label":"s_players","offset":0,"slot":"0","type":"t_array(t_address_payable)dyn_storage"},{"astId":216,"contract":"contracts/Raffel.sol:Raffel","label":"s_recentWinner","offset":0,"slot":"1","type":"t_address"},{"astId":219,"contract":"contracts/Raffel.sol:Raffel","label":"s_raffelState","offset":20,"slot":"1","type":"t_enum(RaffelState)226"},{"astId":221,"contract":"contracts/Raffel.sol:Raffel","label":"s_lastTimeStamp","offset":0,"slot":"2","type":"t_uint256"}],"types":{"t_address":{"encoding":"inplace","label":"address","numberOfBytes":"20"},"t_address_payable":{"encoding":"inplace","label":"address payable","numberOfBytes":"20"},"t_array(t_address_payable)dyn_storage":{"base":"t_address_payable","encoding":"dynamic_array","label":"address payable[]","numberOfBytes":"32"},"t_enum(RaffelState)226":{"encoding":"inplace","label":"enum Raffel.RaffelState","numberOfBytes":"1"},"t_uint256":{"encoding":"inplace","label":"uint256","numberOfBytes":"32"}}},"userdoc":{"kind":"user","methods":{},"version":1}}}}