{
  "_format": "hh-sol-artifact-1",
  "contractName": "Raffel",
  "sourceName": "contracts/Raffel.sol",
  "abi": [
    {
      "inputs": [
        {
          "internalType": "uint256",
          "name": "entryFee",
          "type": "uint256"
        },
        {
          "internalType": "address",
          "name": "vrfCoordinator",
          "type": "address"
        },
        {
          "internalType": "bytes32",
          "name": "gasLane",
          "type": "bytes32"
        },
        {
          "internalType": "uint64",
          "name": "subscriptionId",
          "type": "uint64"
        },
        {
          "internalType": "uint32",
          "name": "callbackGasLimit",
          "type": "uint32"
        },
        {
          "internalType": "uint256",
          "name": "interval",
          "type": "uint256"
        }
      ],
      "stateMutability": "nonpayable",
      "type": "constructor"
    },
    {
      "inputs": [
        {
          "internalType": "address",
          "name": "have",
          "type": "address"
        },
        {
          "internalType": "address",
          "name": "want",
          "type": "address"
        }
      ],
      "name": "OnlyCoordinatorCanFulfill",
      "type": "error"
    },
    {
      "inputs": [],
      "name": "Raffel_NotOpen",
      "type": "error"
    },
    {
      "inputs": [],
      "name": "Raffel_TransferFailed",
      "type": "error"
    },
    {
      "inputs": [
        {
          "internalType": "uint256",
          "name": "currentBalance",
          "type": "uint256"
        },
        {
          "internalType": "uint256",
          "name": "numPlayers",
          "type": "uint256"
        },
        {
          "internalType": "uint256",
          "name": "raffelState",
          "type": "uint256"
        }
      ],
      "name": "Raffel_UpkeepNotNeeded",
      "type": "error"
    },
    {
      "anonymous": false,
      "inputs": [
        {
          "indexed": true,
          "internalType": "address",
          "name": "player",
          "type": "address"
        }
      ],
      "name": "RaffelEntered",
      "type": "event"
    },
    {
      "anonymous": false,
      "inputs": [
        {
          "indexed": true,
          "internalType": "address",
          "name": "winner",
          "type": "address"
        }
      ],
      "name": "RaffelWinnerPicked",
      "type": "event"
    },
    {
      "anonymous": false,
      "inputs": [
        {
          "indexed": true,
          "internalType": "uint256",
          "name": "requestId",
          "type": "uint256"
        }
      ],
      "name": "RequestedRaffelWinner",
      "type": "event"
    },
    {
      "inputs": [
        {
          "internalType": "bytes",
          "name": "",
          "type": "bytes"
        }
      ],
      "name": "checkUpkeep",
      "outputs": [
        {
          "internalType": "bool",
          "name": "upkeepNeeded",
          "type": "bool"
        },
        {
          "internalType": "bytes",
          "name": "",
          "type": "bytes"
        }
      ],
      "stateMutability": "view",
      "type": "function"
    },
    {
      "inputs": [],
      "name": "enterRaffel",
      "outputs": [],
      "stateMutability": "payable",
      "type": "function"
    },
    {
      "inputs": [],
      "name": "gertRecentWinner",
      "outputs": [
        {
          "internalType": "address",
          "name": "",
          "type": "address"
        }
      ],
      "stateMutability": "view",
      "type": "function"
    },
    {
      "inputs": [],
      "name": "getEntryFee",
      "outputs": [
        {
          "internalType": "uint256",
          "name": "",
          "type": "uint256"
        }
      ],
      "stateMutability": "view",
      "type": "function"
    },
    {
      "inputs": [],
      "name": "getLatestTimeStamp",
      "outputs": [
        {
          "internalType": "uint256",
          "name": "",
          "type": "uint256"
        }
      ],
      "stateMutability": "view",
      "type": "function"
    },
    {
      "inputs": [],
      "name": "getNumWords",
      "outputs": [
        {
          "internalType": "uint32",
          "name": "",
          "type": "uint32"
        }
      ],
      "stateMutability": "pure",
      "type": "function"
    },
    {
      "inputs": [],
      "name": "getNumberofPlayers",
      "outputs": [
        {
          "internalType": "uint256",
          "name": "",
          "type": "uint256"
        }
      ],
      "stateMutability": "view",
      "type": "function"
    },
    {
      "inputs": [
        {
          "internalType": "uint256",
          "name": "index",
          "type": "uint256"
        }
      ],
      "name": "getPlayer",
      "outputs": [
        {
          "internalType": "address payable",
          "name": "",
          "type": "address"
        }
      ],
      "stateMutability": "view",
      "type": "function"
    },
    {
      "inputs": [],
      "name": "getRaffelState",
      "outputs": [
        {
          "internalType": "enum Raffel.RaffelState",
          "name": "",
          "type": "uint8"
        }
      ],
      "stateMutability": "view",
      "type": "function"
    },
    {
      "inputs": [],
      "name": "getRequestConfirmations",
      "outputs": [
        {
          "internalType": "uint16",
          "name": "",
          "type": "uint16"
        }
      ],
      "stateMutability": "pure",
      "type": "function"
    },
    {
      "inputs": [
        {
          "internalType": "bytes",
          "name": "",
          "type": "bytes"
        }
      ],
      "name": "performUpKeep",
      "outputs": [],
      "stateMutability": "nonpayable",
      "type": "function"
    },
    {
      "inputs": [
        {
          "internalType": "uint256",
          "name": "requestId",
          "type": "uint256"
        },
        {
          "internalType": "uint256[]",
          "name": "randomWords",
          "type": "uint256[]"
        }
      ],
      "name": "rawFulfillRandomWords",
      "outputs": [],
      "stateMutability": "nonpayable",
      "type": "function"
    }
  ],
  "bytecode": "0x610160604052620186a063ffffffff166101209063ffffffff1681525034801561002857600080fd5b50604051611805380380611805833981810160405281019061004a9190610287565b848073ffffffffffffffffffffffffffffffffffffffff1660808173ffffffffffffffffffffffffffffffffffffffff1681525050508560a081815250508473ffffffffffffffffffffffffffffffffffffffff1660c08173ffffffffffffffffffffffffffffffffffffffff16815250508360e081815250508267ffffffffffffffff166101008167ffffffffffffffff16815250508163ffffffff166101208163ffffffff16815250506000600160146101000a81548160ff0219169083600181111561011c5761011b610314565b5b021790555042600281905550806101408181525050505050505050610343565b600080fd5b6000819050919050565b61015481610141565b811461015f57600080fd5b50565b6000815190506101718161014b565b92915050565b600073ffffffffffffffffffffffffffffffffffffffff82169050919050565b60006101a282610177565b9050919050565b6101b281610197565b81146101bd57600080fd5b50565b6000815190506101cf816101a9565b92915050565b6000819050919050565b6101e8816101d5565b81146101f357600080fd5b50565b600081519050610205816101df565b92915050565b600067ffffffffffffffff82169050919050565b6102288161020b565b811461023357600080fd5b50565b6000815190506102458161021f565b92915050565b600063ffffffff82169050919050565b6102648161024b565b811461026f57600080fd5b50565b6000815190506102818161025b565b92915050565b60008060008060008060c087890312156102a4576102a361013c565b5b60006102b289828a01610162565b96505060206102c389828a016101c0565b95505060406102d489828a016101f6565b94505060606102e589828a01610236565b93505060806102f689828a01610272565b92505060a061030789828a01610162565b9150509295509295509295565b7f4e487b7100000000000000000000000000000000000000000000000000000000600052602160045260246000fd5b60805160a05160c05160e05161010051610120516101405161145a6103ab6000396000610a5f0152600061065b0152600061063801526000610617015260006105db0152600081816102dc015261078a01526000818161045401526104a8015261145a6000f3fe6080604052600436106100a75760003560e01c80635f1b0fd8116100645780635f1b0fd81461018b5780636c7c8f17146101b65780636e04ff0d146101df5780638a78da411461021d578063e55ae4e814610248578063e586a4f014610285576100a7565b80630b6831e5146100ac5780630ff19fd7146100d75780631fe543e3146100e1578063320229eb1461010a57806349a706ce1461013557806353a2c19a14610160575b600080fd5b3480156100b857600080fd5b506100c16102b0565b6040516100ce9190610baf565b60405180910390f35b6100df6102da565b005b3480156100ed57600080fd5b5061010860048036038101906101039190610d6d565b610452565b005b34801561011657600080fd5b5061011f610512565b60405161012c9190610dd8565b60405180910390f35b34801561014157600080fd5b5061014a61051c565b6040516101579190610dd8565b60405180910390f35b34801561016c57600080fd5b50610175610528565b6040516101829190610e12565b60405180910390f35b34801561019757600080fd5b506101a0610531565b6040516101ad9190610e4a565b60405180910390f35b3480156101c257600080fd5b506101dd60048036038101906101d89190610ec0565b61053a565b005b3480156101eb57600080fd5b5061020660048036038101906102019190610ec0565b610713565b604051610214929190610fa7565b60405180910390f35b34801561022957600080fd5b50610232610728565b60405161023f919061104e565b60405180910390f35b34801561025457600080fd5b5061026f600480360381019061026a9190611069565b61073f565b60405161027c91906110b7565b60405180910390f35b34801561029157600080fd5b5061029a610786565b6040516102a79190610dd8565b60405180910390f35b6000600160009054906101000a900473ffffffffffffffffffffffffffffffffffffffff16905090565b7f0000000000000000000000000000000000000000000000000000000000000000341015610334576040517f38c2c67e00000000000000000000000000000000000000000000000000000000815260040160405180910390fd5b6000600181111561034857610347610fd7565b5b600160149054906101000a900460ff16600181111561036a57610369610fd7565b5b146103aa576040517f08c379a00000000000000000000000000000000000000000000000000000000081526004016103a19061112f565b60405180910390fd5b6000339080600181540180825580915050600190039060005260206000200160009091909190916101000a81548173ffffffffffffffffffffffffffffffffffffffff021916908373ffffffffffffffffffffffffffffffffffffffff1602179055503373ffffffffffffffffffffffffffffffffffffffff167f8ed6a7aff9a00785197dec230a172a32e2fdea5473a74f7d0477be4505554ef860405160405180910390a2565b7f000000000000000000000000000000000000000000000000000000000000000073ffffffffffffffffffffffffffffffffffffffff163373ffffffffffffffffffffffffffffffffffffffff161461050457337f00000000000000000000000000000000000000000000000000000000000000006040517f1cf993f40000000000000000000000000000000000000000000000000000000081526004016104fb92919061114f565b60405180910390fd5b61050e82826107ae565b5050565b6000600254905090565b60008080549050905090565b60006001905090565b60006003905090565b610542610a1f565b6105ad5747600080549050600160149054906101000a900460ff16600181111561056f5761056e610fd7565b5b6040517feee093da0000000000000000000000000000000000000000000000000000000081526004016105a493929190611178565b60405180910390fd5b60018060146101000a81548160ff021916908360018111156105d2576105d1610fd7565b5b021790555060007f000000000000000000000000000000000000000000000000000000000000000073ffffffffffffffffffffffffffffffffffffffff16635d3b1d307f00000000000000000000000000000000000000000000000000000000000000007f000000000000000000000000000000000000000000000000000000000000000060037f000000000000000000000000000000000000000000000000000000000000000060016040518663ffffffff1660e01b815260040161069c9594939291906111eb565b6020604051808303816000875af11580156106bb573d6000803e3d6000fd5b505050506040513d601f19601f820116820180604052508101906106df9190611253565b9050807f9cd72631871dff14bbc84976a39c2bca5d943f61f72884a8f331a889778f2c3160405160405180910390a2505050565b6000606061071f610a1f565b91509250929050565b6000600160149054906101000a900460ff16905090565b600080828154811061075457610753611280565b5b9060005260206000200160009054906101000a900473ffffffffffffffffffffffffffffffffffffffff169050919050565b60007f0000000000000000000000000000000000000000000000000000000000000000905090565b60008080549050826000815181106107c9576107c8611280565b5b60200260200101516107db91906112de565b905060008082815481106107f2576107f1611280565b5b9060005260206000200160009054906101000a900473ffffffffffffffffffffffffffffffffffffffff16905080600160006101000a81548173ffffffffffffffffffffffffffffffffffffffff021916908373ffffffffffffffffffffffffffffffffffffffff1602179055506000600160146101000a81548160ff0219169083600181111561088657610885610fd7565b5b0217905550600067ffffffffffffffff8111156108a6576108a5610c2a565b5b6040519080825280602002602001820160405280156108d45781602001602082028036833780820191505090505b50600090805190602001906108ea929190610ac7565b504260028190555060008173ffffffffffffffffffffffffffffffffffffffff164760405161091890611340565b60006040518083038185875af1925050503d8060008114610955576040519150601f19603f3d011682016040523d82523d6000602084013e61095a565b606091505b505090508061099e576040517f08c379a0000000000000000000000000000000000000000000000000000000008152600401610995906113a1565b60405180910390fd5b806109d5576040517f6b56c6a300000000000000000000000000000000000000000000000000000000815260040160405180910390fd5b8173ffffffffffffffffffffffffffffffffffffffff167f7d5e0acef27db2fe13c94bbdb66d614a8840fb82c920a1b9aadb5d6acf3e769260405160405180910390a25050505050565b600080600160149054906101000a900460ff166001811115610a4457610a43610fd7565b5b60006001811115610a5857610a57610fd7565b5b14905060007f000000000000000000000000000000000000000000000000000000000000000060025442610a8c91906113f0565b11905060008060008054905011905060008047119050838015610aac5750825b8015610ab55750815b8015610abe5750805b94505050505090565b828054828255906000526020600020908101928215610b40579160200282015b82811115610b3f5782518260006101000a81548173ffffffffffffffffffffffffffffffffffffffff021916908373ffffffffffffffffffffffffffffffffffffffff16021790555091602001919060010190610ae7565b5b509050610b4d9190610b51565b5090565b5b80821115610b6a576000816000905550600101610b52565b5090565b600073ffffffffffffffffffffffffffffffffffffffff82169050919050565b6000610b9982610b6e565b9050919050565b610ba981610b8e565b82525050565b6000602082019050610bc46000830184610ba0565b92915050565b6000604051905090565b600080fd5b600080fd5b6000819050919050565b610bf181610bde565b8114610bfc57600080fd5b50565b600081359050610c0e81610be8565b92915050565b600080fd5b6000601f19601f8301169050919050565b7f4e487b7100000000000000000000000000000000000000000000000000000000600052604160045260246000fd5b610c6282610c19565b810181811067ffffffffffffffff82111715610c8157610c80610c2a565b5b80604052505050565b6000610c94610bca565b9050610ca08282610c59565b919050565b600067ffffffffffffffff821115610cc057610cbf610c2a565b5b602082029050602081019050919050565b600080fd5b6000610ce9610ce484610ca5565b610c8a565b90508083825260208201905060208402830185811115610d0c57610d0b610cd1565b5b835b81811015610d355780610d218882610bff565b845260208401935050602081019050610d0e565b5050509392505050565b600082601f830112610d5457610d53610c14565b5b8135610d64848260208601610cd6565b91505092915050565b60008060408385031215610d8457610d83610bd4565b5b6000610d9285828601610bff565b925050602083013567ffffffffffffffff811115610db357610db2610bd9565b5b610dbf85828601610d3f565b9150509250929050565b610dd281610bde565b82525050565b6000602082019050610ded6000830184610dc9565b92915050565b600063ffffffff82169050919050565b610e0c81610df3565b82525050565b6000602082019050610e276000830184610e03565b92915050565b600061ffff82169050919050565b610e4481610e2d565b82525050565b6000602082019050610e5f6000830184610e3b565b92915050565b600080fd5b60008083601f840112610e8057610e7f610c14565b5b8235905067ffffffffffffffff811115610e9d57610e9c610e65565b5b602083019150836001820283011115610eb957610eb8610cd1565b5b9250929050565b60008060208385031215610ed757610ed6610bd4565b5b600083013567ffffffffffffffff811115610ef557610ef4610bd9565b5b610f0185828601610e6a565b92509250509250929050565b60008115159050919050565b610f2281610f0d565b82525050565b600081519050919050565b600082825260208201905092915050565b60005b83811015610f62578082015181840152602081019050610f47565b60008484015250505050565b6000610f7982610f28565b610f838185610f33565b9350610f93818560208601610f44565b610f9c81610c19565b840191505092915050565b6000604082019050610fbc6000830185610f19565b8181036020830152610fce8184610f6e565b90509392505050565b7f4e487b7100000000000000000000000000000000000000000000000000000000600052602160045260246000fd5b6002811061101757611016610fd7565b5b50565b600081905061102882611006565b919050565b60006110388261101a565b9050919050565b6110488161102d565b82525050565b6000602082019050611063600083018461103f565b92915050565b60006020828403121561107f5761107e610bd4565b5b600061108d84828501610bff565b91505092915050565b60006110a182610b6e565b9050919050565b6110b181611096565b82525050565b60006020820190506110cc60008301846110a8565b92915050565b600082825260208201905092915050565b7f52616666656c206973206e6f74206f70656e0000000000000000000000000000600082015250565b60006111196012836110d2565b9150611124826110e3565b602082019050919050565b600060208201905081810360008301526111488161110c565b9050919050565b60006040820190506111646000830185610ba0565b6111716020830184610ba0565b9392505050565b600060608201905061118d6000830186610dc9565b61119a6020830185610dc9565b6111a76040830184610dc9565b949350505050565b6000819050919050565b6111c2816111af565b82525050565b600067ffffffffffffffff82169050919050565b6111e5816111c8565b82525050565b600060a08201905061120060008301886111b9565b61120d60208301876111dc565b61121a6040830186610e3b565b6112276060830185610e03565b6112346080830184610e03565b9695505050505050565b60008151905061124d81610be8565b92915050565b60006020828403121561126957611268610bd4565b5b60006112778482850161123e565b91505092915050565b7f4e487b7100000000000000000000000000000000000000000000000000000000600052603260045260246000fd5b7f4e487b7100000000000000000000000000000000000000000000000000000000600052601260045260246000fd5b60006112e982610bde565b91506112f483610bde565b925082611304576113036112af565b5b828206905092915050565b600081905092915050565b50565b600061132a60008361130f565b91506113358261131a565b600082019050919050565b600061134b8261131d565b9150819050919050565b7f5472616e73666572206661696c65640000000000000000000000000000000000600082015250565b600061138b600f836110d2565b915061139682611355565b602082019050919050565b600060208201905081810360008301526113ba8161137e565b9050919050565b7f4e487b7100000000000000000000000000000000000000000000000000000000600052601160045260246000fd5b60006113fb82610bde565b915061140683610bde565b925082820390508181111561141e5761141d6113c1565b5b9291505056fea2646970667358221220a0ee419131eb5721ffa951ec9e75b43219a110334c4ab9f7215328156f07d8c164736f6c634300081c0033",
  "linkReferences": {},
  "deployedLinkReferences": {}
}